:100000000C9463000C948B000C948B000C94A6064B
:100010000C94A6060C94A6060C948B000C948B00F2
:100020000C948B000C948B000C948B000C948B0024
:100030000C948B000C948B000C948B000C948B0014
:100040000C9404060C948B000C9474060C944E06CD
:100050000C948B000C948B000C948B000C948B00F4
:100060000C948B000C948B000000000024002700EF
:100070002A0000000008000201000003040700003D
:1000800000000000000000000000230026002900FE
:1000900000000000250028002B00040404040404D0
:1000A0000404020202020202030303030303010227
:1000B00004081020408001020408102001020408F6
:1000C00010201E07530D11241FBECFEFD8E0DEBF56
:1000D000CDBF22E0A6E8B1E001C01D92AD3BB20762
:1000E000E1F711E0A0E0B1E0E4E2F5E202C0059042
:1000F0000D92A638B107D9F710E0C2E6D0E004C0EF
:100100002197FE010E947610C136D107C9F70E94DF
:1001100028080C9485120C940000209186023091DE
:100120008702232B81F190918C02992361F0899FA2
:1001300090011124832F969FB0011124672F949F63
:10014000A0011124452FE091920220918D0230915F
:100150008E0290918F02E91721F0E20FF32FF11D2B
:100160001082E0918F02E20FF32FF11D8083E09166
:100170009002E20FF32FF11D608380919102280F0E
:10018000311DF90140830895833081F028F48130D6
:1001900099F08230A9F008958730A9F08830C9F02D
:1001A0008430B1F4809180008F7D03C08091800005
:1001B0008F7780938000089584B58F7784BD0895EC
:1001C00084B58F7DFBCF8091B0008F778093B00096
:1001D00008958091B0008F7DF9CF1F93CF93DF9367
:1001E000282F30E0F901EE58FF4F8491F901E255D4
:1001F000FF4FD491F901E656FF4FC491CC23A9F0EB
:10020000162F81110E94C400EC2FF0E0EE0FFF1FAB
:10021000E057FF4FA591B4918FB7F894EC9111116D
:1002200008C0D095DE23DC938FBFDF91CF911F9163
:100230000895DE2BF8CFCF93DF9390E0FC01E255D9
:10024000FF4F249186569F4FFC0184918823D1F063
:1002500090E0880F991FFC01E859FF4FA591B491D8
:10026000FC01E057FF4FC591D49161110EC09FB7BB
:10027000F8948C91E22FE0958E238C932881E223D1
:10028000E8839FBFDF91CF9108958FB7F894EC91E9
:10029000E22BEC938FBFF6CF8E3008F08E50877034
:1002A000806480937C0080917A00806480937A00DF
:1002B00080917A0086FDFCCF809178009091790042
:1002C00008953FB7F8948091DF019091E001A091EB
:1002D000E101B091E20126B5A89B05C02F3F19F0BE
:1002E0000196A11DB11D3FBFBA2FA92F982F8827B6
:1002F000BC01CD01620F711D811D911D42E0660F91
:10030000771F881F991F4A95D1F708950F931F9360
:10031000CF93DF93CDB7DEB729970FB6F894DEBF42
:100320000FBECDBF0E946101009193021091940213
:10033000209195023091960260177107820793070A
:1003400040F460939302709394028093950290938B
:10035000960200919302109194022091950230919F
:100360009602601B710B820B930B6C3271408105FE
:100370009105C0F2F89480918802909189029A8345
:100380008983E0918D02F0918E02DF0111968081C8
:10039000898790918402E0919702F0919802809170
:1003A0009902992309F445C09081982B98879081F0
:1003B000809589238F838F818C8388E08B835885F8
:1003C0006F8149853B812C8189819A81508347FDCA
:1003D000252F3A952083262F39F0441F00C00000B6
:1003E0006083000000C0F2CF38E04D9160830000D0
:1003F000019761F7F0939802E093970249873B8356
:100400002C839A83898378940E946101609393027C
:1004100070939402809395029093960229960FB65A
:10042000F894DEBF0FBECDBFDF91CF911F910F912A
:1004300008959081982B98879081809589238F8348
:100440008F818E8388E08D8358856F8149853D81BA
:100450002E8189819A81508347FD252F00C000C0DD
:10046000208300C000C000C000C000C06083000046
:10047000262F3A9541F0441F000000C000C000C084
:1004800000C000C0E8CF38E04D9100C0608300C0DC
:10049000019709F7F0939802E093970249873D830B
:1004A0002E83AFCFAF92BF92CF92DF92EF92FF92A7
:1004B0000F931F93CF93DF936C017B018B01040F8C
:1004C000151FEB015E01AE18BF08C017D10759F028
:1004D0006991D601ED91FC910190F081E02DC6016A
:1004E0000995892B79F7C501DF91CF911F910F9164
:1004F000FF90EF90DF90CF90BF90AF900895FC01F8
:10050000538D448D252F30E0842F90E0821B930B78
:10051000541710F0CF96089501970895FC01918D1E
:10052000828D981761F0A28DAE0FBF2FB11D5D9621
:100530008C91928D9F5F9F73928F90E008958FEFC3
:100540009FEF08952FB7F8948091E3019091E40113
:10055000A091E501B091E6012FBF8093EF01909348
:10056000F001A093F101B093F20187EE91E00E94B7
:100570008E0297FF26C02FB7F8948091E3019091E7
:10058000E401A091E501B091E6012FBF4091EF0198
:100590005091F0016091F1017091F201841B950B73
:1005A000A60BB70B4091EB015091EC016091ED016E
:1005B0007091EE0184179507A607B707B0F28FEF89
:1005C0009FEF0895FC01918D828D981731F0828DF7
:1005D000E80FF11D858D90E008958FEF9FEF08954E
:1005E000FC01918D228D892F90E0805C9F4F821BB2
:1005F00091098F739927089587EE91E00E94F00288
:1006000021E0892B09F420E0822F089580E090E01A
:10061000892B29F00E94FC0281110C94000008959E
:10062000FC01A48DA80FB92FB11DA35ABF4F2C9167
:10063000848D90E001968F739927848FA689B7895E
:100640002C93A089B1898C91837080648C93938D55
:10065000848D981306C00288F389E02D80818F7DF8
:1006600080830895EF92FF920F931F93CF93DF93B0
:10067000EC0181E0888F9B8D8C8D98131AC0E889DE
:10068000F989808185FF15C09FB7F894EE89FF89AD
:100690006083E889F98980818370806480839FBF4B
:1006A00081E090E0DF91CF911F910F91FF90EF904B
:1006B0000895F62E0B8D10E00F5F1F4F0F7311275B
:1006C000E02E8C8D8E110CC00FB607FCFACFE88996
:1006D000F989808185FFF5CFCE010E941003F1CF0B
:1006E000EB8DEC0FFD2FF11DE35AFF4FF0829FB70A
:1006F000F8940B8FEA89FB8980818062CFCFCF93FA
:10070000DF93EC01888D8823B9F0AA89BB89E88939
:10071000F9898C9185FD03C0808186FD0DC00FB6DF
:1007200007FCF7CF8C9185FFF2CF808185FFEDCF5D
:10073000CE010E941003E9CFDF91CF91089520915F
:10074000C8013091C9012817390771F49091C60189
:100750008091C701981741F0E091C601F0E0EA5797
:10076000FE4F808190E008958FEF9FEF08950895E8
:10077000EF92FF920F931F93CF93DF93DC015C9670
:10078000ED90FC905D97E114F10479F481E090E044
:1007900013969C938E93129790E080E0DF91CF9117
:1007A0001F910F91FF90EF9008955196ED91FC915C
:1007B000529750968C915097982F90950FB75E96C0
:1007C0002C915E97122F127021FD6095F894208174
:1007D000112319F1282B2083E7012197F1F728E055
:1007E000462F50E0308160FF1AC0382B3083E7017C
:1007F0002197F1F7BA0175956795215089F7112373
:1008000081F08081892380830FBF5C968D919C91BC
:100810000197F1F781E090E0C1CF2923DCCF3923A4
:10082000E5CF9081892BEFCF2091C8013091C9018C
:100830002817390761F48091C7012091C60190E023
:10084000805C9F4F821B91098F739927089590E0D8
:1008500080E008952091C8013091C9012817390717
:10086000B9F49091C6018091C701981789F0E09181
:10087000C601F0E0EA57FE4F80812091C60130E0CA
:100880002F5F3F4F2F7333272093C60190E00895C9
:100890008FEF9FEF089590E080E0089581309105FB
:1008A000F9F01CF4892B39F008958230910521F17B
:1008B000039769F1089560E082E00E94ED0060E036
:1008C00083E00E94ED004FEF60E080E00E948D0029
:1008D00080918D0290918E02892B19F10C948601E2
:1008E00061E082E00E94ED0060E083E00E94ED00A4
:1008F00040E060E08FEFEACF60E082E00E94ED0030
:1009000061E083E00E94ED0040E06FEFF3CF61E033
:1009100082E00E94ED0061E083E00E94ED004FEF75
:10092000F4CF0895FC0180819181009711F00C941F
:1009300018110895FC0180819181009711F00C94A9
:100940007E0D60E070E0CB010895FB010190002076
:10095000E9F73197AF01461B570BDC01ED91FC9194
:100960000280F381E02D09948F929F92AF92BF9203
:100970000F931F93CF93DF93CDB7DEB7A1970FB639
:10098000F894DEBF0FBECDBF19A2423008F44AE092
:100990008E010F5D1F4F842E912CB12CA12CA5012F
:1009A00094010E945410E62FB901CA01EA3004F5FF
:1009B000E05DD801EE938D01232B242B252B79F7B5
:1009C00090E080E0109729F0BD0187EE91E00E9451
:1009D000A504A1960FB6F894DEBF0FBECDBFDF9180
:1009E000CF911F910F91BF90AF909F908F900895DE
:1009F000E95CDFCFCF92DF92EF92FF92CF93DF934C
:100A000097FF1BC06B017C016DE287EE91E00E94B5
:100A10003203EC0166277727CB016C197D098E091B
:100A20009F094AE00E94B4048C0F9D1FDF91CF9173
:100A3000FF90EF90DF90CF9008954AE0DF91CF9143
:100A4000FF90EF90DF90CF900C94B404FB014481B1
:100A50005581FC01248135812417350778F0808188
:100A60009181009759F0FB016081718161157105D9
:100A700029F00E94771221E0892B09F020E0822FD3
:100A800008950F931F93CF93DF93EC018881998191
:100A9000009759F02A813B812617370730F081E013
:100AA000DF91CF911F910F9108958B016F5F7F4F61
:100AB0000E94A111009759F0998388831B830A83B0
:100AC0002C813D81232B59F7FC011082E8CF80E077
:100AD000E7CFEF92FF920F931F93CF93DF93EC0139
:100AE0007B018A01BA010E94410528813981811167
:100AF00014C02115310519F0C9010E94181119827D
:100B000018821D821C821B821A82CE01DF91CF9136
:100B10001F910F91FF90EF9008951D830C83B701F3
:100B2000C9010E947012F1CFFC0111821082138260
:100B3000128215821482FB0101900020E9F731979F
:100B4000AF01461B570B0C946905AF92BF92CF9231
:100B5000DF92EF92FF920F931F93CF93DF93EC01FD
:100B60006B015A0179012417350720F48B2D5901A7
:100B7000E42EF82E6BE571E0CE010E949405D601BB
:100B800014960D911C91A016B10628F5E016F106F9
:100B900008F48701D601ED91FC911197E00FF11F48
:100BA000F08010826D917C916A0D7B1D611571053D
:100BB000F1F0FB0101900020E9F73197AF01461BEE
:100BC000570BCE010E946905F60180819181080FC3
:100BD000191FD801FC92CE01DF91CF911F910F9187
:100BE000FF90EF90DF90CF90BF90AF9008958881F5
:100BF0009981009711F00E941811198218821D82A4
:100C00001C821B821A82E0CF1F920F920FB60F92A6
:100C100011242F933F938F939F93AF93BF93809112
:100C2000E3019091E401A091E501B091E6013091DA
:100C3000DE0123E0230F2D3758F50196A11DB11DCC
:100C40002093DE018093E3019093E401A093E501FA
:100C5000B093E6018091DF019091E001A091E10164
:100C6000B091E2010196A11DB11D8093DF01909327
:100C7000E001A093E101B093E201BF91AF919F9198
:100C80008F913F912F910F900FBE0F901F9018954D
:100C900026E8230F0296A11DB11DD2CF1F920F92FD
:100CA0000FB60F9211242F933F934F935F936F933F
:100CB0007F938F939F93AF93BF93EF93FF9387EEB1
:100CC00091E00E941003FF91EF91BF91AF919F912E
:100CD0008F917F916F915F914F913F912F910F90E5
:100CE0000FBE0F901F9018951F920F920FB60F9284
:100CF00011242F938F939F93EF93FF93E091F7012C
:100D0000F091F8018081E091FD01F091FE0182FDFA
:100D10001BC09081809100028F5F8F732091010230
:100D2000821741F0E0910002F0E0E951FE4F958F0B
:100D300080930002FF91EF919F918F912F910F90DF
:100D40000FBE0F901F9018958081F4CF1F920F92C5
:100D50000FB60F9211242F933F934F935F936F938E
:100D60007F938F939F93AF93BF93EF93FF93E09104
:100D7000C801F091C901309749F0A685B7858585EE
:100D8000968D91FF14C09C918923A1F4FF91EF915E
:100D9000BF91AF919F918F917F916F915F914F9193
:100DA0003F912F910F900FBE0F901F9018959C911F
:100DB000892361F7A389B4899C91858980958923CA
:100DC0008C93868997890197F1F7608D718DA6853F
:100DD000B785558538E020E0CB010197F1F7822FE8
:100DE00090E095958795282F4C91452309F0206830
:100DF000315091F7868D81FD20958091C70190E05B
:100E000001968F7399273091C601381799F0A091F8
:100E1000C701B0E0AA57BE4F2C938093C701828DC3
:100E2000938D0197F1F7A389B4898C919589892BCA
:100E30008C93ACCF868D8160868FF1CF1092EA01C2
:100E40001092E90188EE93E0A0E0B0E08093EB011E
:100E50009093EC01A093ED01B093EE012EE131E00F
:100E60003093E8012093E70125EC30E03093F40162
:100E70002093F30124EC30E03093F6012093F50148
:100E800020EC30E03093F8012093F70121EC30E0C2
:100E90003093FA012093F90122EC30E03093FC0109
:100EA0002093FB0126EC30E03093FE012093FD01FE
:100EB000109200021092010210920202109203029C
:100EC00010929D0210929C0280939E0290939F022A
:100ED000A093A002B093A10280E391E090939B02C3
:100EE00080939A021092B1021092B0021092B30253
:100EF0001092B2021092B5021092B4021092B70290
:100F00001092B6026091B8026E7F6D7F6093B80256
:100F10006695617081E0682784E00E94ED0061E0E1
:100F200084E00E941B01E2EBF0E0E491E093AA026E
:100F3000EEE9F0E0E491F0E0EE0FFF1FE057FF4F25
:100F4000859194919093AC028093AB0260E085E030
:100F50000E941B018091B80281FD04C061E085E020
:100F60000E94ED0085E08093A602E3EBF0E0E491BF
:100F7000E093A702EFE9F0E0E491F0E0EE0FFF1F4D
:100F8000EA57FF4F859194919093A9028093A8020C
:100F90001092850210928C02109293021092940289
:100FA000109295021092960281E0809392028093B3
:100FB0008F021092900292E09093910280938402AB
:100FC00083E090E090938902809388020E947C10D5
:100FD00090938E0280938D02009789F123E0FC01AB
:100FE00011922A95E9F781E090E09093870280932F
:100FF00086028BE090E090938B0280938A0280912E
:101000008502882341F061E08BE00E941B0160E0D3
:101010008BE00E94ED00E5EAF0E0E491F0E0EE0FF5
:10102000FF1FE057FF4F8591949190939802809312
:101030009702E9EBF0E0E491E093990208951092B1
:101040008902109288021092870210928602D1CFF4
:10105000CF93DF93CDB7DEB72E970FB6F894DEBFF0
:101060000FBECDBF789484B5826084BD84B58160A5
:1010700084BD85B5826085BD85B5816085BD809163
:101080006E00816080936E001092810080918100DB
:1010900082608093810080918100816080938100D3
:1010A000809180008160809380008091B100846095
:1010B0008093B1008091B00081608093B0008091F6
:1010C0007A00846080937A0080917A0082608093B5
:1010D0007A0080917A00816080937A0080917A0012
:1010E000806880937A001092C100E091F701F0913E
:1010F000F80182E08083E091F301F091F401108225
:10110000E091F501F091F60180E180831092FF01FA
:10111000E091FB01F091FC0186E08083E091F90110
:10112000F091FA01808180618083E091F901F09172
:10113000FA01808188608083E091F901F091FA01E1
:10114000808180688083E091F901F091FA018081CB
:101150008F7D80831092B5021092B4021092B30278
:101160001092B2021092B1021092B0028DE991E099
:101170009093B7028093B6029091A602963108F040
:1011800047C02DEB30E03093B1022093B0022BE941
:1011900031E03093B3022093B2022CE231E030937D
:1011A000B5022093B4022091680084E0983048F0A2
:1011B00031E09E3008F430E081E001C0880F3A95BC
:1011C000EAF7822B809368002DE630E0983050F0EB
:1011D0002BE630E09E3030F02CE630E0963110F017
:1011E00030E020E03093AE022093AD02292F30E0B2
:1011F000983008F078C081E001C0880F9A95EAF72E
:101200008093AF028091B6029091B7020197F1F7F7
:101210008091B4029091B502892B49F1E091C80107
:10122000F091C90182E0EA39F80709F1309739F005
:10123000A389B4899C918589809589238C93809119
:10124000B8028E7F8093B8021092C7011092C60137
:101250008AE992E09093C9018093C801E091AD02C0
:10126000F091AE0280819091AF02892B808361E082
:1012700082E00E941B0161E083E00E941B018091DB
:101280008A0290918B0297FD08C061E00E941B01C9
:1012900060E080918A020E94ED0081E080938502E7
:1012A00060918C02653191F120918D0230918E0216
:1012B000615031F170E08FEF94E10E944010F9012C
:1012C0004091880250918902CF01821B930B8417B1
:1012D0009507C8F44081469FC001479F900D112497
:1012E00090833196EDCF9E3040F42850310981E053
:1012F00001C0880F2A95EAF783CF2E503109F7CF26
:1013000070E060E0DCCF85E180938C0240E06FEF1D
:1013100080E00E948D0080918D0290918E02892B39
:1013200011F00E94860160E086E00E941B0160E0EF
:1013300087E00E941B0160E088E00E941B0160E0E2
:1013400089E00E941B018091CC019091CD010E9407
:101350004E046AE1262E61E0362E87EE91E00E946F
:10136000F002892B09F468C06BE571E0CE010796A5
:101370000E9494050E94A20297FD1EC08A3091052A
:10138000D9F089831A820B851C850F5F1F4FB80126
:10139000CE0107960E944105882361F32F8138858D
:1013A0008B859C85BE016F5F7F4F820F931F0E94CC
:1013B00070121C870B87DECFAF80B884A114B104F4
:1013C00039F00B851C8575010115110509F0D5C093
:1013D00062E771E0CE0101960E949405BE016F5F45
:1013E0007F4FCE0107960E942605182FCE01019649
:1013F0000E949204112309F4F6C02B853C8545E038
:1014000050E0BE01695F7F4FCE0101960E94A505A5
:10141000CE0101960E949A046B017093CD016093F6
:10142000CC01CE0101960E949204C6010E944E0496
:10143000CE0107960E94920402E111E0E2EDF1E094
:10144000FE87ED877F01F80180810E5F1F4F0E94AC
:101450004C01BC01990F880B990B0E94CA0D2AE020
:1014600038E240EA5BE30E94290E20E030E048ECDD
:1014700052E40E94290E0E940010F70161937193BB
:101480007F0120163106F9F600E011E0F12CE12C85
:10149000F80181918F01882359F1F701EE0FFF1FA9
:1014A000E65FFE4F208131813327F901EE58FF4F6F
:1014B0008491F901E255FF4FC490F901E656FF4FC0
:1014C000D490DD2079F081110E94C400ED2DF0E070
:1014D000EE0FFF1FEA57FF4FA591B491EC91CE227A
:1014E00081E009F480E0F701E253FE4F81708083D0
:1014F000FFEFEF1AFF0A84E0E816F10409F0C8CF05
:1015000084E10E944C018C0185E10E944C01BC01E8
:10151000990F880B990B0E94CA0D2AE038E240EA25
:101520005BE30E94290E4B015C01B801110F880B8F
:10153000990B0E94CA0D2AE038E240EA5BE30E9460
:10154000290E20E030E040E250E40E94361020E016
:1015500030E040E250E418160CF033C1C501B4018C
:101560000E943610E1E0F0E018160CF01EC2F09276
:10157000CB01E092CA0134C1760167019FEFC91A1D
:10158000D90AF7018081082E000C990B0E94BA0D30
:10159000892B91F7015011090A0D1B1DF80180815B
:1015A000082E000C990B0E94BA0D892B31F00E15F4
:1015B0001F0518F001501109F1CF0F5F1F4FA8014F
:1015C0004E195F095C874B87AE14BF0420F4B70146
:1015D000C5010E945E12EF81F8858B859C85E80F1E
:1015E000F91F1082F5CE6EE371E0CE0101960E94E4
:1015F0009405BE016F5F7F4FCE0107960E942605BE
:10160000182FCE0101960E949204112309F455C0AF
:1016100025E030E044E050E0BE01695F7F4FCE013D
:1016200001960E94A505CE0101960E949A046B01C5
:10163000CE0101960E9492042B853C8546E050E045
:10164000BE01695F7F4FCE0101960E94A505F4E0BF
:10165000CF16D104D8F48D819E81892BB9F00981F0
:101660001A8163E471E0C8010E946712892B99F422
:10167000F601E050FF4F81E08083F601EE0FFF1F7F
:10168000E65FFE4F60E080810E941B01CE01019663
:101690000E949204CDCE66E471E0C8010E946712F8
:1016A000892BA1F7F601E050FF4F1082F601EE0FF3
:1016B000FF1FE65FFE4F61E0E6CF6AE471E0CE0116
:1016C00001960E949405BE016F5F7F4FCE01079681
:1016D0000E942605182FCE0101960E949204112324
:1016E00009F440C028E030E047E050E0BE01695F07
:1016F0007F4FCE0101960E94A505CE0101960E9462
:101700009A044B01CE0101960E9492042B853C85E0
:1017100049E050E0BE01695F7F4FCE0101960E9413
:10172000A505CE0101960E949A046B01CE01019697
:101730000E94920494E08916910408F079CEF40195
:10174000E050FF4F8081811173CE61E0CD2809F414
:1017500060E0F401EE0FFF1FE65FFE4F80810E9404
:10176000ED0066CE62E571E0CE0101960E9494051F
:10177000BE016F5F7F4FCE0107960E942605182F8E
:10178000CE0101960E949204112309F451CE2B85BB
:101790003C8546E050E0BE01695F7F4FCE01019677
:1017A0000E94A5054D815E8169817A818AE992E076
:1017B0000E94520269E571E08AE992E00E94A50464
:1017C00065CFC501B4010E943610E3E0F0E01816C1
:1017D0000CF0EBC082E090E09093CB018093CA01C3
:1017E0002FB7F8948091E3019091E401A091E50175
:1017F000B091E6012FBF4091DA015091DB01609179
:10180000DC017091DD01841B950BA60BB70B8436B0
:101810009105A105B10508F4BBC02FB7F8948091DC
:10182000E3019091E401A091E501B091E6012FBFA1
:101830008093DA019093DB01A093DC01B093DD018A
:101840006CE571E087EE91E00E94A50410E000E0F5
:10185000ED85FE8561917191FE87ED87072E000C65
:10186000880B990B0E94CA0D20E030E048EC52E44E
:101870000E948E0F6B017C014B015C01AC019B014E
:101880000E943B106FE571E081111BC026013701FA
:10189000E89477F82FEF3FEF4FE75FE7C301B2011E
:1018A0000E943B10811186C02FEF3FEF4FE75FE7AB
:1018B000C301B2010E94C30D18160CF07BC063E691
:1018C00071E087EE91E00E94A5040330110531F02C
:1018D0006BE671E087EE91E00E94A5040F5F1F4F59
:1018E0000430110509F0B4CF6DE671E087EE91E0A8
:1018F0000E94A5048EECE82E81E0F82E10E000E0B6
:10190000F70161917F0170E090E080E00E94FA04AD
:101910000330110531F06BE671E087EE91E00E9433
:10192000A5040F5F1F4F0430110551F761E771E007
:1019300087EE91E00E94A5046091CC017091CD01E9
:10194000072E000C880B990B0E94FA0468E771E0DF
:1019500087EE91E00E94A5046AE270E080E090E0EA
:101960000E94FA046FE771E087EE91E00E94A504FF
:101970006091CA017091CB01072E000C880B990B66
:101980000E94FA0469E571E087EE91E00E94A504E7
:1019900080E090E0892B09F4E0CC0E94FC028823CF
:1019A00009F4DBCC0E940000D8CCF093CB01E0938B
:1019B000CA0116CF2FEF3FEF4FE75FE4C701B60133
:1019C0000E94361018161CF467E671E07ACF2FEFEC
:1019D0003FEF4FE75FECC701B6010E94C30D87FDE3
:1019E000F3CF20E030E0A901C701B6010E94C30D8A
:1019F00087FF0BC06DE287EE91E00E943203460143
:101A00005701B7FAB094B7F8B0942AE037ED43EA3B
:101A10005BE3C501B4010E94220F4B015C010E94EF
:101A200007106B017C010E94C80D9B01AC01C50130
:101A3000B4010E94210F4B015C014AE0C701B601CD
:101A40000E94B4046EE287EE91E00E94320320E02F
:101A500030E040E251E4C501B4010E94290E4B017F
:101A60005C010E9407106B01F12CE12C4AE0C701D8
:101A7000B6010E94B404C701B6010E94C80D9B01C3
:101A8000AC01C501B4010E94210F20E030E040E22A
:101A900051E40E94290E0E94071090E080E04AE085
:101AA0000E94B40412CF80918D0290918E020E9408
:101AB000181180918A0290918B0297FD03C060E01B
:101AC0000E941B0180E391E090939B0280939A0215
:101AD0008091C8019091C9018A59924071F4E091B6
:101AE000AD02F091AE0290818091AF028095892382
:101AF00080831092C9011092C80108951F93FC01C0
:101B000099278827BC01E89411911032E9F3193024
:101B100010F01E30C8F31B3251F01D3249F46894A6
:101B200006C00E94A50D610F711D811D911D1191AF
:101B300010531A30B0F33EF49095809570956195EE
:101B40007F4F8F4F9F4F1F910895592F482F372F49
:101B5000262F660F771F881F991F660F771F881F14
:101B6000991F620F731F841F951F660F771F881FB1
:101B7000991F089591110C94960E803219F0895096
:101B80008550C8F708950E94050E08F481E0089575
:101B9000E89409C097FB3EF4909580957095619507
:101BA0007F4F8F4F9F4F9923A9F0F92F96E9BB27BD
:101BB0009395F695879577956795B795F111F8CF39
:101BC000FAF4BB0F11F460FF1BC06F5F7F4F8F4FA4
:101BD0009F4F16C0882311F096E911C0772321F09A
:101BE0009EE8872F762F05C0662371F096E8862F32
:101BF00070E060E02AF09A95660F771F881FDAF789
:101C0000880F9695879597F90895990F0008550FB5
:101C1000AA0BE0E8FEEF16161706E807F907C0F072
:101C200012161306E407F50798F0621B730B840B7A
:101C3000950B39F40A2661F0232B242B252B21F454
:101C400008950A2609F4A140A6958FEF811D811DF4
:101C500008950E943C0E0C94B00E0E94A20E38F023
:101C60000E94A90E20F0952311F00C94990E0C946B
:101C70009F0E11240C94E40E0E94C10E70F3959FE8
:101C8000C1F3950F50E0551F629FF001729FBB2773
:101C9000F00DB11D639FAA27F00DB11DAA1F649F0F
:101CA0006627B00DA11D661F829F2227B00DA11DC2
:101CB000621F739FB00DA11D621F839FA00D611D48
:101CC000221F749F3327A00D611D231F849F600D69
:101CD000211D822F762F6A2F11249F5750409AF092
:101CE000F1F088234AF0EE0FFF1FBB1F661F771F1E
:101CF000881F91505040A9F79E3F510580F00C94E9
:101D0000990E0C94E40E5F3FE4F3983ED4F386956D
:101D100077956795B795F795E7959F5FC1F7FE2B88
:101D2000880F911D9695879597F90895992788278B
:101D3000089597F99F6780E870E060E008959FEF4D
:101D400080EC089500240A94161617061806090652
:101D5000089500240A941216130614060506089521
:101D6000092E0394000C11F4882352F0BB0F40F4A9
:101D7000BF2B11F460FF04C06F5F7F4F8F4F9F4FE9
:101D8000089557FD9058440F551F59F05F3F71F06B
:101D90004795880F97FB991F61F09F3F79F08795D2
:101DA0000895121613061406551FF2CF4695F1DF5B
:101DB00008C0161617061806991FF1CF86957105EB
:101DC000610508940895E894BB2766277727CB011F
:101DD00097F908952F923F924F925F926F927F9260
:101DE0008F929F92AF92BF92CF92DF92EF92FF922B
:101DF0000F931F93CF93DF93CDB7DEB7CA1BDB0BD7
:101E00000FB6F894DEBF0FBECDBF09942A8839887B
:101E100048885F846E847D848C849B84AA84B98482
:101E2000C884DF80EE80FD800C811B81AA81B9818E
:101E3000CE0FD11D0FB6F894DEBF0FBECDBFED01A2
:101E400008955058BB27AA270E94390F0C94B00E52
:101E50000E94A20E38F00E94A90E20F039F49F3F94
:101E600019F426F40C949F0E0EF4E095E7FB0C9405
:101E7000990EE92F0E94C10E58F3BA176207730733
:101E80008407950720F079F4A6F50C94E30E0EF480
:101E9000E0950B2EBA2FA02D0B01B90190010C017A
:101EA000CA01A0011124FF27591B99F0593F50F492
:101EB000503E68F11A16F040A22F232F342F4427EA
:101EC000585FF3CF469537952795A795F0405395E2
:101ED000C9F77EF41F16BA0B620B730B840BBAF0B2
:101EE0009150A1F0FF0FBB1F661F771F881FC2F71D
:101EF0000EC0BA0F621F731F841F48F48795779531
:101F00006795B795F7959E3F08F0B0CF9395880FEA
:101F100008F09927EE0F9795879508950E94A20FD4
:101F20000C94B00E0E94A90E58F00E94A20E40F030
:101F300029F45F3F29F00C94990E51110C94E40E92
:101F40000C949F0E0E94C10E68F39923B1F35523A0
:101F500091F3951B550BBB27AA27621773078407BC
:101F600038F09F5F5F4F220F331F441FAA1FA9F352
:101F700035D00E2E3AF0E0E832D091505040E69540
:101F8000001CCAF72BD0FE2F29D0660F771F881FA1
:101F9000BB1F261737074807AB07B0E809F0BB0B94
:101FA000802DBF01FF2793585F4F3AF09E3F5105A8
:101FB00078F00C94990E0C94E40E5F3FE4F3983E95
:101FC000D4F3869577956795B795F7959F5FC9F791
:101FD000880F911D9695879597F90895E1E0660F12
:101FE000771F881FBB1F621773078407BA0720F08B
:101FF000621B730B840BBA0BEE1F88F7E0950895F4
:102000000E9407106894B1110C94E40E08950E9488
:10201000C90E88F09F5798F0B92F9927B751B0F0A3
:10202000E1F0660F771F881F991F1AF0BA95C9F75C
:1020300014C0B13091F00E94E30EB1E008950C9409
:10204000E30E672F782F8827B85F39F0B93FCCF3BC
:10205000869577956795B395D9F73EF490958095D9
:10206000709561957F4F8F4F9F4F08950E94050E89
:1020700008F48FEF08950E94050E880B990B0895C0
:10208000AA1BBB1B51E107C0AA1FBB1FA617B7079E
:1020900010F0A61BB70B881F991F5A95A9F78095BA
:1020A0009095BC01CD010895A1E21A2EAA1BBB1B7D
:1020B000FD010DC0AA1FBB1FEE1FFF1FA217B30714
:1020C000E407F50720F0A21BB30BE40BF50B661F2A
:1020D000771F881F991F1A9469F7609570958095EE
:1020E00090959B01AC01BD01CF010895EE0FFF1F3C
:1020F0000590F491E02D09940F931F93CF93DF93F4
:102100008230910510F482E090E0E091BB02F09102
:10211000BC0230E020E0B0E0A0E0309799F4211557
:10212000310509F44AC0281B390B24303105D8F594
:102130008A819B816115710589F1FB0193838283FB
:10214000FE0111C040815181028113814817590756
:10215000E0F04817590799F4109761F012960C9324
:10216000129713961C933296CF01DF91CF911F9156
:102170000F9108950093BB021093BC02F4CF211578
:10218000310551F04217530738F0A901DB019A01DC
:10219000BD01DF01F801C1CFEF01F9CF9093BC027F
:1021A0008093BB02CDCFFE01E20FF31F8193919389
:1021B0002250310939832883D7CF2091B902309139
:1021C000BA02232B41F4209106013091070130938C
:1021D000BA022093B9022091040130910501211522
:1021E000310541F42DB73EB74091080150910901E6
:1021F000241B350BE091B902F091BA02E217F30704
:10220000A0F42E1B3F0B2817390778F0AC014E5F66
:102210005F4F2417350748F04E0F5F1F5093BA02E7
:102220004093B902819391939FCFF0E0E0E09CCF7F
:10223000CF93DF930097E9F0FC013297138212826B
:10224000A091BB02B091BC02ED0130E020E01097FC
:10225000A1F420813181820F931F2091B902309126
:10226000BA022817390709F061C0F093BA02E09367
:10227000B902DF91CF910895EA01CE17DF07E8F5A3
:102280004A815B819E0141155105B1F7E901FB834C
:10229000EA8349915991C40FD51FEC17FD0761F4EA
:1022A000808191810296840F951FE901998388832B
:1022B000828193819B838A83F0E0E0E012968D9186
:1022C0009C9113970097B9F52D913C911197CD01F1
:1022D0000296820F931F2091B9023091BA022817FB
:1022E000390739F6309751F51092BC021092BB02B3
:1022F000B093BA02A093B902BCCFD383C28340810A
:102300005181840F951FC817D90761F44E5F5F4F45
:1023100088819981480F591F518340838A819B810D
:10232000938382832115310509F0B0CFF093BC026D
:10233000E093BB029ECFFD01DC01C0CF138212826D
:10234000D7CFB0E0A0E0E7EAF1E10C94EC0E8C010D
:10235000009751F4CB010E947C108C01C801CDB7CD
:10236000DEB7E0E10C94080FFC01E60FF71F9C01BB
:1023700022503109E217F30708F49DC0D901CD912D
:10238000DC911197C617D70798F0C530D10530F307
:10239000CE0104978617970708F3C61BD70B229721
:1023A000C193D1936D937C93CF010E941811D6CF26
:1023B0005B01AC1ABD0A4C018C0E9D1EA091BB02A4
:1023C000B091BC02512C412CF12CE12C109731F52D
:1023D0008091B9029091BA028815990509F05CC004
:1023E0004616570608F058C08091040190910501E7
:1023F000009741F48DB79EB74091080150910901B3
:10240000841B950BE817F90708F055C0F093BA0242
:10241000E093B902F90171836083A0CF8D919C9103
:10242000119712966C90129713967C901397A8159B
:10243000B90559F56C0142E0C40ED11CCA14DB0485
:1024400020F1AC014A195B09DA011296159780F068
:102450006282738251834083D9016D937C93E1142E
:10246000F10471F0D7011396FC93EE93129776CF97
:1024700022968C0F9D1FF90191838083F301EFCF8A
:10248000F093BC02E093BB0269CF4816590608F4EA
:102490002C017D01D3019ACFCB010E947C107C01DD
:1024A000009749F0AE01B8010E945E12C8010E9477
:1024B0001811870153CF10E000E050CFFB01DC0181
:1024C00002C001900D9241505040D8F70895FB0191
:1024D000DC018D91019080190110D9F3990B0895B9
:1024E000FB01DC0101900D920020E1F70895FB0152
:1024F000DC014150504030F08D910190801919F469
:102500000020B9F7881B990B089510E0C2E6D0E0CF
:1025100004C0FE010E9476102196C336D107C9F788
:04252000F894FFCF5D
:10252400010101010000BD0280000600070008004F
:1025340009000E000F00100011000000000032031B
:1025440052027F027F03F0028E02E20200000000CA
:10255400B80352024B04B70314042A049F034449EA
:102564004F3A00494E004F55540044575249544580
:102574003A0052533438353A000D0A00413A006E9D
:10258400616E00696E66006F7666002C007C443ACA
:10259400007C4D4F44453A007C414444523A007C0F
:0625A4004143433A000030
:00000001FF
