:020000040000FA
:100000000C9463000C945F070C9438070C94F5076C
:100010000C94F5070C94F5070C94DE070C948B00F8
:100020000C948B000C948B000C948B000C948B0024
:100030000C948B000C948B000C948B000C948B0014
:100040000C94EE060C948B000C94AC070C94860771
:100050000C948B000C948B000C948B000C948B00F4
:100060000C948B000C948B000000000024002700EF
:100070002A0000000008000201000003040700003D
:1000800000000000000000000000230026002900FE
:1000900000000000250028002B00040404040404D0
:1000A0000404020202020202030303030303010227
:1000B00004081020408001020408102001020408F6
:1000C00010206D081F0F11241FBECFEFD8E0DEBF38
:1000D000CDBF22E0A6E9B1E001C01D92AF3CB2075E
:1000E000E1F711E0A0E0B1E0E0EFF8E202C0059036
:1000F0000D92A639B107D9F710E0C2E6D0E004C0EE
:100100002197FE010E944212C136D107C9F70E9411
:1001100077090C946B140C94000020919802309194
:100120009902232B81F190919E02992361F0899F7E
:1001300090011124832F969FB0011124672F949F63
:10014000A0011124452FE091A40220919F0230913B
:10015000A0029091A102E91721F0E20FF32FF11D07
:100160001082E091A102E20FF32FF11D8083E09154
:10017000A202E20FF32FF11D60838091A302280FEA
:10018000311DF90140830895833081F028F48130D6
:1001900099F08230A9F008958730A9F08830C9F02D
:1001A0008430B1F4809180008F7D03C08091800005
:1001B0008F7780938000089584B58F7784BD0895EC
:1001C00084B58F7DFBCF8091B0008F778093B00096
:1001D00008958091B0008F7DF9CFCF93DF93282FC2
:1001E00030E0F901EE58FF4F8491F901E255FF4FDD
:1001F000D491F901E656FF4FC491CC23A1F08111AF
:100200000E94C400EC2FF0E0EE0FFF1FEA57FF4FF3
:10021000A591B491EC91ED2381E090E009F480E0A8
:10022000DF91CF91089580E090E0FACF1F93CF93B4
:10023000DF93282F30E0F901EE58FF4F8491F90148
:10024000E255FF4FD491F901E656FF4FC491CC23FC
:10025000A9F0162F81110E94C400EC2FF0E0EE0FE0
:10026000FF1FE057FF4FA591B4918FB7F894EC9121
:10027000111108C0D095DE23DC938FBFDF91CF91A1
:100280001F910895DE2BF8CFCF93DF9390E0FC0110
:10029000E255FF4F249186569F4FFC01849188239D
:1002A000C9F090E0880F991FFC01E859FF4FA59114
:1002B000B491FC01E057FF4FC591D49161110DC07D
:1002C0009FB7F8948C91209582238C938881282362
:1002D00028839FBFDF91CF910895623051F49FB77B
:1002E000F8943C91822F809583238C93E8812E2B68
:1002F000EFCF8FB7F894EC912E2B2C938FBFEACFD2
:100300008E3008F08E508770806480937C008091DE
:100310007A00806480937A0080917A0086FDFCCF19
:10032000809178009091790008953FB7F89480917A
:10033000F1019091F201A091F301B091F40126B581
:10034000A89B05C02F3F19F00196A11DB11D3FBF0D
:10035000BA2FA92F982F8827BC01CD01620F711DDC
:10036000811D911D42E0660F771F881F991F4A95D6
:10037000D1F708950F931F93CF93DF93CDB7DEB7D7
:1003800029970FB6F894DEBF0FBECDBF0E9495012E
:100390000091A5021091A6022091A7023091A80217
:1003A000601771078207930740F46093A50270936A
:1003B000A6028093A7029093A8020091A502109133
:1003C000A6022091A7023091A802601B710B820B3C
:1003D000930B6C32714081059105C0F2F8948091C5
:1003E0009A0290919B029A838983E0919F02F091F7
:1003F000A002DF0111968081898790919602E09199
:10040000A902F091AA028091AB02992309F445C098
:100410009081982B98879081809589238F838F81F5
:100420008C8388E08B8358856F8149853B812C8143
:1004300089819A81508347FD252F3A952083262F65
:1004400039F0441F00C000006083000000C0F2CFFC
:1004500038E04D9160830000019761F7F093AA02A4
:10046000E093A90249873B832C839A8389837894FC
:100470000E9495016093A5027093A6028093A70243
:100480009093A80229960FB6F894DEBF0FBECDBF99
:10049000DF91CF911F910F9108959081982B9887AC
:1004A0009081809589238F838F818E8388E08D83CF
:1004B00058856F8149853D812E8189819A8150833C
:1004C00047FD252F00C000C0208300C000C000C031
:1004D00000C000C060830000262F3A9541F0441F01
:1004E000000000C000C000C000C000C0E8CF38E07D
:1004F0004D9100C0608300C0019709F7F093AA02F4
:10050000E093A90249873D832E83AFCF8F929F92BC
:10051000AF92BF92CF92DF92EF92FF924B015C01BC
:100520000E9495016B017C010E9495016C197D0967
:100530008E099F09683E734081059105A8F321E06B
:10054000821A9108A108B10888EEC80E83E0D81E6F
:10055000E11CF11C81149104A104B10429F7FF905E
:10056000EF90DF90CF90BF90AF909F908F900895C5
:1005700081E08093EF0108950895AF92BF92CF92EA
:10058000DF92EF92FF920F931F93CF93DF936C0153
:100590007B018B01040F151FEB015E01AE18BF0834
:1005A000C017D10759F06991D601ED91FC910190E6
:1005B000F081E02DC6010995892B79F7C501DF91FE
:1005C000CF911F910F91FF90EF90DF90CF90BF9050
:1005D000AF900895FC01538D448D252F30E0842F7A
:1005E00090E0821B930B541710F0CF96089501975B
:1005F0000895FC01918D828D981761F0A28DAE0F48
:10060000BF2FB11D5D968C91928D9F5F9F73928FCE
:1006100090E008958FEF9FEF08952FB7F8948091A1
:10062000F5019091F601A091F701B091F8012FBF6B
:100630008093010290930202A0930302B0930402FC
:1006400089EF91E00E94F90297FF26C02FB7F89436
:100650008091F5019091F601A091F701B091F80118
:100660002FBF4091010250910202609103027091EC
:100670000402841B950BA60BB70B4091FD01509112
:10068000FE016091FF017091000284179507A60793
:10069000B707B0F28FEF9FEF0895FC01918D828D27
:1006A000981731F0828DE80FF11D858D90E0089547
:1006B0008FEF9FEF0895FC01918D228D892F90E09F
:1006C000805C9F4F821B91098F739927089589EF52
:1006D00091E00E945B0321E0892B09F420E0822F46
:1006E000089580E090E0892B29F00E946703811132
:1006F0000C9400000895FC01A48DA80FB92FB11D22
:10070000A35ABF4F2C91848D90E001968F73992747
:10071000848FA689B7892C93A089B1898C91837025
:1007200080648C93938D848D981306C00288F3891E
:10073000E02D80818F7D80830895EF92FF920F934B
:100740001F93CF93DF93EC0181E0888F9B8D8C8D7D
:1007500098131AC0E889F989808185FF15C09FB771
:10076000F894EE89FF896083E889F9898081837034
:10077000806480839FBF81E090E0DF91CF911F91E3
:100780000F91FF90EF900895F62E0B8D10E00F5F04
:100790001F4F0F731127E02E8C8D8E110CC00FB6DA
:1007A00007FCFACFE889F989808185FFF5CFCE0172
:1007B0000E947B03F1CFEB8DEC0FFD2FF11DE35A6F
:1007C000FF4FF0829FB7F8940B8FEA89FB898081F5
:1007D0008062CFCFCF93DF93EC01888D8823B9F06F
:1007E000AA89BB89E889F9898C9185FD03C080813C
:1007F00086FD0DC00FB607FCF7CF8C9185FFF2CFB9
:10080000808185FFEDCFCE010E947B03E9CFDF9190
:10081000CF9108954115510529F4EAE7F0E0808170
:100820008F7780836A307105B9F0CB01880F991FEB
:10083000880F991F807267706860682B88E10FB617
:10084000F894A895809360000FBE60936000E0E686
:10085000F0E0808180648083232BD9F483B7817F8B
:10086000846083BFF89483B7816083BF85B7806657
:1008700085BF8F7D85BF7894889583B78E7F83BF32
:100880007894452B29F4EAE7F0E080818068808342
:10089000089583B7817F846083BFF89483B78160B4
:1008A00083BF7894889583B78E7F83BF7894E9CF90
:1008B0002091D8013091D9012817390771F490910E
:1008C000D6018091D701981741F0E091D601F0E070
:1008D000EA56FE4F808190E008958FEF9FEF0895D4
:1008E0000895EF92FF920F931F93CF93DF93DC0154
:1008F0005C96ED90FC905D97E114F10479F481E051
:1009000090E013969C938E93129790E080E0DF9195
:10091000CF911F910F91FF90EF9008955196ED9117
:10092000FC91529750968C915097982F90950FB7B5
:100930005E962C915E97122F127021FD6095F894AF
:100940002081112319F1282B2083E7012197F1F74A
:1009500028E0462F50E0308160FF1AC0382B3083EA
:10096000E7012197F1F7BA0175956795215089F74D
:10097000112381F08081892380830FBF5C968D9144
:100980009C910197F1F781E090E0C1CF2923DCCF62
:100990003923E5CF9081892BEFCF2091D801309179
:1009A000D9012817390761F48091D7012091D60128
:1009B00090E0805C9F4F821B91098F739927089567
:1009C00090E080E008952091D8013091D901281756
:1009D0003907B9F49091D6018091D701981789F021
:1009E000E091D601F0E0EA56FE4F80812091D601D9
:1009F00030E02F5F3F4F2F7333272093D60190E0D5
:100A000008958FEF9FEF089590E080E00895813082
:100A10009105F9F01CF4892B39F008958230910585
:100A200021F1039769F1089560E082E00E941601C8
:100A300060E083E00E9416014FEF60E080E00E94DA
:100A40008D0080919F029091A002892B19F10C9446
:100A5000BA0161E082E00E94160160E083E00E943A
:100A6000160140E060E08FEFEACF60E082E00E9494
:100A7000160161E083E00E94160140E06FEFF3CFC2
:100A800061E082E00E94160161E083E00E941601AD
:100A90004FEFF4CF0895FC0180819181009711F010
:100AA0000C94E4120895CF93DF93FC0124813581E7
:100AB0006217730788F49B01C081D1816AE370E0FB
:100AC000CE01820F931F0E944214009729F08C1BC5
:100AD0009D0BDF91CF9108958FEF9FEFFACFFC012F
:100AE00080819181009711F00C944A0F60E070E0D2
:100AF000CB010895FB0101900020E9F73197AF0188
:100B0000461B570BDC01ED91FC910280F381E02D37
:100B100009948F929F92AF92BF920F931F93CF939E
:100B2000DF93CDB7DEB7A1970FB6F894DEBF0FBE47
:100B3000CDBF19A2423008F44AE08E010F5D1F4F6D
:100B4000842E912CB12CA12CA50194010E9420127D
:100B5000E62FB901CA01EA3004F5E05DD801EE9351
:100B60008D01232B242B252B79F790E080E0109723
:100B700029F0BD0189EF91E00E947A05A1960FB698
:100B8000F894DEBF0FBECDBFDF91CF911F910F91C3
:100B9000BF90AF909F908F900895E95CDFCFCF9288
:100BA000DF92EF92FF92CF93DF9397FF1BC06B0111
:100BB0007C016DE289EF91E00E949D03EC016627C4
:100BC0007727CB016C197D098E099F094AE00E94A5
:100BD00089058C0F9D1FDF91CF91FF90EF90DF90E3
:100BE000CF9008954AE0DF91CF91FF90EF90DF9092
:100BF000CF900C948905FB0144815581FC0124812F
:100C000035812417350778F080819181009759F05C
:100C1000FB01608171816115710529F00E945D14ED
:100C200021E0892B09F020E0822F0895FC01248126
:100C30003581232B39F421E0FB018081882349F0A1
:100C400020E007C0808191810E944D1421E0892B12
:100C5000B9F7822F08950F931F93CF93DF93EC0181
:100C600088819981009759F02A813B81261737079F
:100C700030F081E0DF91CF911F910F9108958B01AA
:100C80006F5F7F4F0E946D13009759F0998388839F
:100C90001B830A832C813D81232B59F7FC01108291
:100CA000E8CF80E0E7CFEF92FF920F931F93CF93AF
:100CB000DF93EC017B018A01BA010E942B06288197
:100CC0003981811114C02115310519F0C9010E9423
:100CD000E412198218821D821C821B821A82CE01A4
:100CE000DF91CF911F910F91FF90EF9008951D8399
:100CF0000C83B701C9010E945614F1CFFC01118287
:100D000010821382128215821482FB01019000204E
:100D1000E9F73197AF01461B570B0C945306AF927E
:100D2000BF92CF92DF92EF92FF920F931F93CF93D8
:100D3000DF93EC016B015A0179012417350720F488
:100D40008B2D5901E42EF82E6CE671E0CE010E9445
:100D50007E06D60114960D911C91A016B10628F5B9
:100D6000E016F10608F48701D601ED91FC91119788
:100D7000E00FF11FF08010826D917C916A0D7B1D58
:100D800061157105F1F0FB0101900020E9F7319741
:100D9000AF01461B570BCE010E945306F60180811E
:100DA0009181080F191FD801FC92CE01DF91CF91DC
:100DB0001F910F91FF90EF90DF90CF90BF90AF9079
:100DC000089588819981009711F00E94E412198298
:100DD00018821D821C821B821A82E0CF1F920F9202
:100DE0000FB60F9211242F933F938F939F93AF933E
:100DF000BF938091F5019091F601A091F701B09118
:100E0000F8013091F00123E0230F2D3758F50196BA
:100E1000A11DB11D2093F0018093F5019093F6017F
:100E2000A093F701B093F8018091F1019091F20144
:100E3000A091F301B091F4010196A11DB11D809321
:100E4000F1019093F201A093F301B093F401BF91EB
:100E5000AF919F918F913F912F910F900FBE0F9067
:100E60001F90189526E8230F0296A11DB11DD2CF21
:100E70001F920F920FB60F9211242F933F934F930F
:100E80005F936F937F938F939F93AF93BF93EF93F2
:100E9000FF93E0910201F09103010995FF91EF9119
:100EA000BF91AF919F918F917F916F915F914F9182
:100EB0003F912F910F900FBE0F901F9018951F928A
:100EC0000F920FB60F9211242F933F934F935F937E
:100ED0006F937F938F939F93AF93BF93EF93FF9302
:100EE000E0910001F09101010995FF91EF91BF910F
:100EF000AF919F918F917F916F915F914F913F91B2
:100F00002F910F900FBE0F901F9018951F920F9268
:100F10000FB60F9211242F933F934F935F936F93CC
:100F20007F938F939F93AF93BF93EF93FF9389EF3B
:100F300091E00E947B03FF91EF91BF91AF919F9150
:100F40008F917F916F915F914F913F912F910F9072
:100F50000FBE0F901F9018951F920F920FB60F9211
:100F600011242F938F939F93EF93FF93E0910902A6
:100F7000F0910A028081E0910F02F091100282FD4F
:100F80001BC09081809112028F5F8F73209113029A
:100F9000821741F0E0911202F0E0E750FE4F958F8A
:100FA00080931202FF91EF919F918F912F910F905B
:100FB0000FBE0F901F9018958081F4CF1F920F9253
:100FC0000FB60F9211248F930FB6F894A8958091C5
:100FD0006000886180936000109260000FBE8F9166
:100FE0000F900FBE0F901F9018951F920F920FB683
:100FF0000F9211242F933F934F935F936F937F939F
:101000008F939F93AF93BF93EF93FF93E091D8019A
:10101000F091D901309749F0A685B7858585968DE1
:1010200091FF14C09C918923A1F4FF91EF91BF918E
:10103000AF919F918F917F916F915F914F913F9170
:101040002F910F900FBE0F901F9018959C918923A0
:1010500061F7A389B4899C918589809589238C93B4
:10106000868997890197F1F7608D718DA685B7857F
:10107000558538E020E0CB010197F1F7822F90E011
:1010800095958795282F4C91452309F0206831507C
:1010900091F7868D81FD20958091D70190E0019692
:1010A0008F7399273091D601381799F0A091D70105
:1010B000B0E0AA56BE4F2C938093D701828D938DBA
:1010C0000197F1F7A389B4898C919589892B8C9329
:1010D000ACCF868D8160868FF1CF1092FC0110928B
:1010E000FB0188EE93E0A0E0B0E08093FD019093D7
:1010F000FE01A093FF01B093000222E231E03093A1
:10110000FA012093F90125EC30E030930602209398
:10111000050224EC30E0309308022093070220EC13
:1011200030E030930A022093090221EC30E0309342
:101130000C0220930B0222EC30E030930E0220933D
:101140000D0226EC30E03093100220930F02109233
:1011500012021092130210921402109215021092B1
:10116000AF021092AE028093B0029093B102A093AE
:10117000B202B093B30284E391E09093AD02809306
:10118000AC021092C3021092C2021092C5021092D9
:10119000C4021092C7021092C6021092C9021092A5
:1011A000C8026091CA026E7F6D7F6093CA02669525
:1011B000617081E0682784E00E94160161E084E0AC
:1011C0000E944401E2EBF0E0E491E093BC02EEE91E
:1011D000F0E0E491F0E0EE0FFF1FE057FF4F859144
:1011E00094919093BE028093BD0260E085E00E94DE
:1011F00044018091CA0281FD04C061E085E00E9443
:10120000160185E08093B802E3EBF0E0E491E0930F
:10121000B902EFE9F0E0E491F0E0EE0FFF1FEA57CA
:10122000FF4F859194919093BB028093BA021092E4
:10123000970210929E021092A5021092A60210929E
:10124000A7021092A80281E08093A4028093A102D9
:101250001092A20292E09093A3028093960283E000
:1012600090E090939B0280939A020E944812909380
:10127000A00280939F02009789F123E0FC01119264
:101280002A95E9F781E090E0909399028093980283
:101290008BE090E090939D0280939C028091970256
:1012A000882341F061E08BE00E94440160E08BE024
:1012B0000E941601E5EAF0E0E491F0E0EE0FFF1F76
:1012C000E057FF4F859194919093AA028093A902D1
:1012D000E9EBF0E0E491E093AB02089510929B02F9
:1012E00010929A021092990210929802D1CFCF9345
:1012F000DF93CDB7DEB72E970FB6F894DEBF0FBEE3
:10130000CDBF789484B5826084BD84B5816084BD8E
:1013100085B5826085BD85B5816085BD80916E0093
:10132000816080936E0010928100809181008260C4
:101330008093810080918100816080938100809101
:1013400080008160809380008091B10084608093F0
:10135000B1008091B00081608093B00080917A00EC
:10136000846080937A0080917A00826080937A0012
:1013700080917A00816080937A0080917A00806801
:1013800080937A001092C100E0910902F0910A0264
:1013900082E08083E0910502F09106021082E091E4
:1013A0000702F091080280E1808310921102E0911F
:1013B0000D02F0910E0286E08083E0910B02F09125
:1013C0000C02808180618083E0910B02F0910C021D
:1013D000808188608083E0910B02F0910C02808113
:1013E00080688083E0910B02F0910C0280818F7DF8
:1013F00080831092C7021092C6021092C50210920A
:10140000C4021092C3021092C2028DE991E090933F
:10141000C9028093C8029091B802963108F047C083
:101420002DEB30E03093C3022093C2022BE931E070
:101430003093C5022093C4022CE231E03093C702FE
:101440002093C6022091680084E0983048F031E093
:101450009E3008F430E081E001C0880F3A95EAF749
:10146000822B809368002DE630E0983050F02BE618
:1014700030E09E3030F02CE630E0963110F030E075
:1014800020E03093C0022093BF02292F30E0983033
:1014900008F07CC081E001C0880F9A95EAF780933C
:1014A000C1028091C8029091C9020197F1F7809121
:1014B000C6029091C702892B49F1E091D801F091C1
:1014C000D90182E0EC3AF80709F1309739F0A389A5
:1014D000B4899C918589809589238C938091CA02D7
:1014E0008E7F8093CA021092D7011092D6018CEAA7
:1014F00092E09093D9018093D801E091BF02F091DE
:10150000C00280819091C102892B808361E082E0DA
:101510000E94440161E083E00E94440162E08AE0AD
:101520000E94440180919C0290919D0297FD08C009
:1015300061E00E94440160E080919C020E941601DB
:1015400081E08093970260919E02623091F1209138
:101550009F023091A002615031F170E08FEF91E075
:101560000E940C12F90140919A0250919B02CF0106
:10157000821B930B84179507C8F44081469FC001D6
:10158000479F900D112490833196EDCF9E3040F40B
:101590002850310981E001C0880F2A95EAF77FCFF2
:1015A0002E503109F7CF70E060E0DCCF82E080930D
:1015B0009E028091EC019091ED010E94070560E090
:1015C00086E00E94440160E087E00E94440160E000
:1015D00088E00E94440160E089E00E94440170E0DC
:1015E000272E70E0372E8AE00E94ED00892BB9F596
:1015F0001092EF0162E370E080E090E00E948602CA
:101600008AE00E94ED00892B51F540919A02509199
:101610009B0270E060E080919F029091A0020E9486
:101620003B1480919F029091A002892B11F00E949F
:10163000BA0130E020E050E040E06AE070E08EEE79
:1016400091E00E940A0464E670E080E090E00E946D
:1016500086028091EC019091ED010E94070589EFCF
:1016600091E00E945B03892B09F468C06CE671E08D
:10167000CE0107960E947E060E940D0397FD1EC0B4
:101680008A309105D9F089831A820B851C850F5FFA
:101690001F4FB801CE0107960E942B06882361F3E5
:1016A0002F8138858B859C85BE016F5F7F4F820FB0
:1016B000931F0E9456141C870B87DECF8F8098845F
:1016C0008114910439F00B851C85740101151105F5
:1016D00009F09FC163E871E0CE0101960E947E0689
:1016E000BE016F5F7F4FCE0107960E94FB05182F4A
:1016F000CE0101960E944B05112309F4C0C12B8530
:101700003C8545E050E0BE01695F7F4FCE01019608
:101710000E948F06CE0101960E946F056B017093A7
:10172000ED016093EC01CE0101960E944B05C601CC
:101730000E940705CE0107960E944B0506E111E0C5
:1017400080EE91E09E878D877C01F80180810E5F9D
:101750001F4F0E948001BC01990F880B990B0E94BA
:10176000960F2AE038E240EA5BE30E94F50F20E0A2
:1017700030E048EC52E40E94F50F0E94CC11F701D2
:10178000619371937F01F1E00E311F07F1F604E0E0
:1017900011E0F12CE12CF80181918F01882381F077
:1017A000F701EE0FFF1FE25FFE4F80810E94ED0008
:1017B000F701E452FE4F21E0892B09F420E0208359
:1017C000FFEFEF1AFF0A84E0E816F10421F784E145
:1017D0000E9480018C0185E10E948001BC01990F6B
:1017E000880B990B0E94960F2AE038E240EA5BE3EF
:1017F0000E94F50F2B013C01B801110F880B990BCA
:101800000E94960F2AE038E240EA5BE30E94F50F5F
:1018100020E030E040E250E40E94021220E030E09C
:1018200040E250E418160CF47FC2C301B2010E94DA
:101830000212E1E0F0E018160CF07EC282E090E0C7
:101840009093DB018093DA012FB7F8948091F50132
:101850009091F601A091F701B091F8012FBF40914E
:10186000E8015091E9016091EA017091EB01841B5C
:10187000950BA60BB70B84369105A105B10508F4AD
:10188000BBC02FB7F8948091F5019091F601A0911B
:10189000F701B091F8012FBF8093E8019093E9011F
:1018A000A093EA01B093EB016DE671E089EF91E05E
:1018B0000E947A0510E000E0ED85FE85619171914E
:1018C000FE87ED87072E000C880B990B0E94960F60
:1018D00020E030E048EC52E40E945A116B017C0198
:1018E0002B013C01AC019B010E94071260E771E0F3
:1018F00081111BC046015701E894B7F82FEF3FEF65
:101900004FE75FE7C501B4010E94071281111EC2B3
:101910002FEF3FEF4FE75FE7C501B4010E948F0F44
:1019200018160CF013C264E771E089EF91E00E9491
:101930007A050330110531F06CE771E089EF91E031
:101940000E947A050F5F1F4F0430110509F0B4CFD4
:101950006EE771E089EF91E00E947A058CEDE82E48
:1019600081E0F82E10E000E0F70161917F0170E066
:1019700090E080E00E94CF050330110531F06CE764
:1019800071E089EF91E00E947A050F5F1F4F0430EC
:10199000110551F762E871E089EF91E00E947A0544
:1019A0006091EC017091ED01072E000C880B990BF2
:1019B0000E94CF0569E871E089EF91E00E947A0505
:1019C0006AE270E080E090E00E94CF0560E971E09B
:1019D00089EF91E00E947A056091DA017091DB0154
:1019E000072E000C880B990B0E94CF056AE671E068
:1019F00089EF91E00E947A052114310409F4F3CDB6
:101A00000E946703882309F4EECD0E940000E7CD11
:101A1000760167019FEFC91AD90AF7018081082E64
:101A2000000C990B0E94860F892B91F70150110928
:101A3000080D191DF8018081082E000C990B0E94D9
:101A4000860F892B31F00E151F0518F00150110972
:101A5000F1CF0F5F1F4FA8014E195F095C874B87BD
:101A60008E149F0420F4B701C4010E943214EF8148
:101A7000F8858B859C85E80FF91F10822BCE62E4D8
:101A800071E0CE0101960E947E06BE016F5F7F4F1E
:101A9000CE0107960E94FB05182FCE0101960E94E9
:101AA0004B05112309F4A8C070E060E0CE01079651
:101AB0000E9453056C017C01FFEFEF1AFF0AB7018A
:101AC000CE0107960E9453058C01D7FC33CE97FDBB
:101AD00031CE9C01A701BE01695F7F4FCE01019607
:101AE0000E948F06CE0101960E946F056B01CE0108
:101AF00001960E944B052B853C85A8014F5F5F4FE7
:101B0000BE01695F7F4FCE0101960E948F0684E07F
:101B1000C816D10448F509811A810115110571F023
:101B2000F80181918F01882349F0082E000C990B50
:101B30000E942A14F80131978083F2CF67E471E0A4
:101B4000CE0101960E941606882399F0F601EC5FFB
:101B5000FE4F81E08083F601EE0FFF1FE25FFE4F34
:101B600060E080810E944401CE0101960E944B05F5
:101B7000E1CD6AE471E0CE0101960E941606882349
:101B800059F0F601EC5FFE4F1082F601EE0FFF1FD9
:101B9000E25FFE4F61E0E5CF6EE471E0CE010196B9
:101BA0000E941606882361F0F601EC5FFE4F91E07B
:101BB0009083F601EE0FFF1FE25FFE4F62E0D1CF90
:101BC00065E571E0CE0101960E941606882361F258
:101BD000F601EC5FFE4F81E08083F601EE0FFF1F00
:101BE000E25FFE4F108160E0812F0E94440160E0BF
:101BF000812F0E941601B8CF6EE571E0CE010196EB
:101C00000E947E06BE016F5F7F4FCE0107960E9445
:101C1000FB05182FCE0101960E944B05112309F4F4
:101C200054C070E060E0CE0107960E9453056C013D
:101C30007C019FEFE91AF90AB701CE0107960E94CD
:101C400053058C01D7FC76CD97FD74CD9C01A7017F
:101C5000BE01695F7F4FCE0101960E948F06CE01C3
:101C600001960E946F056B01CE0101960E944B0503
:101C70002B853C85A8014F5F5F4FBE01695F7F4F99
:101C8000CE0101960E948F06CE0101960E946F053B
:101C90002B01CE0101960E944B05E4E0CE16D10443
:101CA00008F048CDF601EC5FFE4F8081811142CDF6
:101CB00061E0452809F460E0F601EE0FFF1FE25FE6
:101CC000FE4F80810E94160135CD63E671E0CE01A2
:101CD00001960E947E06BE016F5F7F4FCE01079680
:101CE0000E94FB05182FCE0101960E944B0511237F
:101CF00009F420CD2B853C8546E050E0BE01695FAC
:101D00007F4FCE0101960E948F064D815E816981D1
:101D10007A818CEA92E00E94BD026AE671E08CEA68
:101D200092E00E947A0520CFC301B2010E94021204
:101D300018163CF0E3E0F0E0F093DB01E093DA0109
:101D400083CDF092DB01E092DA017ECD2FEF3FEF01
:101D50004FE75FE4C701B6010E94021218161CF497
:101D600068E771E0E2CD2FEF3FEF4FE75FECC7018F
:101D7000B6010E948F0F87FDF3CF20E030E0A9016C
:101D8000C701B6010E948F0F87FF0BC06DE289EF7C
:101D900091E00E949D032601370177FA709477F84D
:101DA00070942AE037ED43EA5BE3C301B2010E947D
:101DB000EE102B013C010E94D3116B017C010E94AB
:101DC000940F9B01AC01C301B2010E94ED102B01E5
:101DD0003C014AE0C701B6010E9489056EE289EF25
:101DE00091E00E949D0320E030E040E251E4C30115
:101DF000B2010E94F50F2B013C010E94D3116B012F
:101E0000F12CE12C4AE0C701B6010E948905C70107
:101E1000B6010E94940F9B01AC01C301B2010E9464
:101E2000ED1020E030E040E251E40E94F50F0E9406
:101E3000D31190E080E04AE00E9489057ACD80913C
:101E40009F029091A0020E94E41280919C029091C6
:101E50009D0297FD03C060E00E94440184E391E08D
:101E60009093AD028093AC028091D8019091D901FA
:101E70008C5A924071F4E091BF02F091C0029081BF
:101E80008091C1028095892380831092D90110929C
:101E9000D80108951F93FC0199278827BC01E89475
:101EA00011911032E9F3193010F01E30C8F31B32D3
:101EB00051F01D3249F4689406C00E94710F610F01
:101EC000711D811D911D119110531A30B0F33EF414
:101ED00090958095709561957F4F8F4F9F4F1F9183
:101EE0000895592F482F372F262F660F771F881FE9
:101EF000991F660F771F881F991F620F731F841F1A
:101F0000951F660F771F881F991F089591110C94D4
:101F10006210803219F089508550C8F708950E94E8
:101F2000D10F08F481E00895E89409C097FB3EF4CE
:101F300090958095709561957F4F8F4F9F4F992316
:101F4000A9F0F92F96E9BB279395F6958795779594
:101F50006795B795F111F8CFFAF4BB0F11F460FF54
:101F60001BC06F5F7F4F8F4F9F4F16C0882311F0AC
:101F700096E911C0772321F09EE8872F762F05C0C0
:101F8000662371F096E8862F70E060E02AF09A955B
:101F9000660F771F881FDAF7880F9695879597F950
:101FA0000895990F0008550FAA0BE0E8FEEF1616EA
:101FB0001706E807F907C0F012161306E407F5073D
:101FC00098F0621B730B840B950B39F40A2661F0B1
:101FD000232B242B252B21F408950A2609F4A14054
:101FE000A6958FEF811D811D08950E9408100C9405
:101FF0007C100E946E1038F00E94751020F095231E
:1020000011F00C9465100C946B1011240C94B0100A
:102010000E948D1070F3959FC1F3950F50E0551FEE
:10202000629FF001729FBB27F00DB11D639FAA272D
:10203000F00DB11DAA1F649F6627B00DA11D661F7C
:10204000829F2227B00DA11D621F739FB00DA11D9D
:10205000621F839FA00D611D221F749F3327A00D57
:10206000611D231F849F600D211D822F762F6A2FF3
:1020700011249F5750409AF0F1F088234AF0EE0F58
:10208000FF1FBB1F661F771F881F91505040A9F785
:102090009E3F510580F00C9465100C94B0105F3F8A
:1020A000E4F3983ED4F3869577956795B795F795C1
:1020B000E7959F5FC1F7FE2B880F911D9695879539
:1020C00097F9089599278827089597F99F6780E8D9
:1020D00070E060E008959FEF80EC089500240A947A
:1020E0001616170618060906089500240A941216F3
:1020F0001306140605060895092E0394000C11F426
:10210000882352F0BB0F40F4BF2B11F460FF04C0D2
:102110006F5F7F4F8F4F9F4F089557FD9058440F2B
:10212000551F59F05F3F71F04795880F97FB991F36
:1021300061F09F3F79F087950895121613061406F3
:10214000551FF2CF4695F1DF08C016161706180680
:10215000991FF1CF86957105610508940895E8945B
:10216000BB2766277727CB0197F908952F923F92D7
:102170004F925F926F927F928F929F92AF92BF9297
:10218000CF92DF92EF92FF920F931F93CF93DF9343
:10219000CDB7DEB7CA1BDB0B0FB6F894DEBF0FBEA0
:1021A000CDBF09942A88398848885F846E847D84ED
:1021B0008C849B84AA84B984C884DF80EE80FD80EF
:1021C0000C811B81AA81B981CE0FD11D0FB6F89465
:1021D000DEBF0FBECDBFED0108955058BB27AA2723
:1021E0000E9405110C947C100E946E1038F00E9421
:1021F000751020F039F49F3F19F426F40C946B10FD
:102200000EF4E095E7FB0C946510E92F0E948D1009
:1022100058F3BA17620773078407950720F079F41B
:10222000A6F50C94AF100EF4E0950B2EBA2FA02D4E
:102230000B01B90190010C01CA01A0011124FF2773
:10224000591B99F0593F50F4503E68F11A16F0406E
:10225000A22F232F342F4427585FF3CF469537956D
:102260002795A795F0405395C9F77EF41F16BA0B32
:10227000620B730B840BBAF09150A1F0FF0FBB1FE0
:10228000661F771F881FC2F70EC0BA0F621F731F29
:10229000841F48F4879577956795B795F7959E3F86
:1022A00008F0B0CF9395880F08F09927EE0F979517
:1022B000879508950E946E110C947C100E947510F1
:1022C00058F00E946E1040F029F45F3F29F00C9402
:1022D000651051110C94B0100C946B100E948D106D
:1022E00068F39923B1F3552391F3951B550BBB2745
:1022F000AA2762177307840738F09F5F5F4F220F8A
:10230000331F441FAA1FA9F335D00E2E3AF0E0E880
:1023100032D091505040E695001CCAF72BD0FE2FCA
:1023200029D0660F771F881FBB1F2617370748075E
:10233000AB07B0E809F0BB0B802DBF01FF27935816
:102340005F4F3AF09E3F510578F00C9465100C9465
:10235000B0105F3FE4F3983ED4F386957795679588
:10236000B795F7959F5FC9F7880F911D969587954B
:1023700097F90895E1E0660F771F881FBB1F62176A
:1023800073078407BA0720F0621B730B840BBA0B28
:10239000EE1F88F7E09508950E94D3116894B1115B
:1023A0000C94B01008950E94951088F09F5798F0F3
:1023B000B92F9927B751B0F0E1F0660F771F881F4A
:1023C000991F1AF0BA95C9F714C0B13091F00E9464
:1023D000AF10B1E008950C94AF10672F782F8827C5
:1023E000B85F39F0B93FCCF3869577956795B3958B
:1023F000D9F73EF490958095709561957F4F8F4FFA
:102400009F4F08950E94D10F08F48FEF08950E9406
:10241000D10F880B990B0895AA1BBB1B51E107C074
:10242000AA1FBB1FA617B70710F0A61BB70B881F64
:10243000991F5A95A9F780959095BC01CD010895F3
:10244000A1E21A2EAA1BBB1BFD010DC0AA1FBB1FB8
:10245000EE1FFF1FA217B307E407F50720F0A21B2A
:10246000B30BE40BF50B661F771F881F991F1A9497
:1024700069F760957095809590959B01AC01BD01C1
:10248000CF010895EE0FFF1F0590F491E02D099400
:102490000F931F93CF93DF938230910510F482E066
:1024A00090E0E091CD02F091CE0230E020E0B0E08B
:1024B000A0E0309799F42115310509F44AC0281B92
:1024C000390B24303105D8F58A819B81611571055E
:1024D00089F1FB0193838283FE0111C04081518108
:1024E0000281138148175907E0F04817590799F4FA
:1024F000109761F012960C93129713961C933296D4
:10250000CF01DF91CF911F910F9108950093CD02DC
:102510001093CE02F4CF2115310551F04217530725
:1025200038F0A901DB019A01BD01DF01F801C1CF3B
:10253000EF01F9CF9093CE028093CD02CDCFFE0173
:10254000E20FF31F8193919322503109398328833D
:10255000D7CF2091CB023091CC02232B41F4209194
:102560000A0130910B013093CC022093CB022091D1
:102570000801309109012115310541F42DB73EB70D
:1025800040910C0150910D01241B350BE091CB02C1
:10259000F091CC02E217F307A0F42E1B3F0B281793
:1025A000390778F0AC014E5F5F4F2417350748F0CC
:1025B0004E0F5F1F5093CC024093CB0281939193B7
:1025C0009FCFF0E0E0E09CCFCF93DF930097E9F05E
:1025D000FC01329713821282A091CD02B091CE02FB
:1025E000ED0130E020E01097A1F420813181820FCD
:1025F000931F2091CB023091CC022817390709F0A4
:1026000061C0F093CC02E093CB02DF91CF910895AB
:10261000EA01CE17DF07E8F54A815B819E0141158B
:102620005105B1F7E901FB83EA8349915991C40F40
:10263000D51FEC17FD0761F4808191810296840F0C
:10264000951FE90199838883828193819B838A8383
:10265000F0E0E0E012968D919C9113970097B9F508
:102660002D913C911197CD010296820F931F2091DD
:10267000CB023091CC022817390739F6309751F543
:102680001092CE021092CD02B093CC02A093CB0256
:10269000BCCFD383C28340815181840F951FC8175B
:1026A000D90761F44E5F5F4F88819981480F591FA8
:1026B000518340838A819B819383828321153105D5
:1026C00009F0B0CFF093CE02E093CD029ECFFD0192
:1026D000DC01C0CF13821282D7CFB0E0A0E0E3E7E5
:1026E000F3E10C94B8108C01009751F4CB010E94D7
:1026F00048128C01C801CDB7DEB7E0E10C94D410CC
:10270000FC01E60FF71F9C0122503109E217F30785
:1027100008F49DC0D901CD91DC911197C617D70758
:1027200098F0C530D10530F3CE010497861797078E
:1027300008F3C61BD70B2297C193D1936D937C935B
:10274000CF010E94E412D6CF5B01AC1ABD0A4C0146
:102750008C0E9D1EA091CD02B091CE02512C412C29
:10276000F12CE12C109731F58091CB029091CC02A5
:102770008815990509F05CC04616570608F058C040
:102780008091080190910901009741F48DB79EB79F
:1027900040910C0150910D01841B950BE817F9072E
:1027A00008F055C0F093CC02E093CB02F90171839D
:1027B0006083A0CF8D919C91119712966C90129787
:1027C00013967C901397A815B90559F56C0142E052
:1027D000C40ED11CCA14DB0420F1AC014A195B09F8
:1027E000DA011296159780F06282738251834083DA
:1027F000D9016D937C93E114F10471F0D701139624
:10280000FC93EE93129776CF22968C0F9D1FF901C1
:1028100091838083F301EFCFF093CE02E093CD025A
:1028200069CF4816590608F42C017D01D3019ACFCF
:10283000CB010E9448127C01009749F0AE01B8011B
:102840000E943214C8010E94E412870153CF10E0A5
:1028500000E050CF9111089581548A5108F4805EB0
:10286000855A0895FB01DC0102C001900D92415090
:102870005040D8F70895DC0101C06D93415050409D
:10288000E0F70895FC018191861721F08823D9F79C
:10289000992708953197CF010895FB01DC018D91AF
:1028A000019080190110D9F3990B0895FB01DC0107
:1028B00001900D920020E1F70895FB01DC014150E9
:1028C000504030F08D910190801919F40020B9F733
:1028D000881B990B089510E0C2E6D0E004C0FE0109
:1028E0000E9442122196C336D107C9F7F894FFCF50
:1028F000BC02BC02010101010000CF028000060001
:102900000700080009000E000F0010001100000071
:1029100000009D03BD02EA02EA035B03F9024D03D6
:10292000000000007104BD0204057004CD04E3043E
:10293000580444494F3A00696E006F757400707511
:102940006C6C75700070756C6C646F776E005345BD
:10295000543A0052533438353A000D0A00413A00D7
:102960006E616E00696E66006F7666002C007C44B6
:102970003A007C4D4F44453A007C414444523A0071
:062980007C4143433A00D4
:107E0000112484B714BE81FFF0D085E080938100F7
:107E100082E08093C00088E18093C10086E0809377
:107E2000C20080E18093C4008EE0C9D0259A86E02C
:107E300020E33CEF91E0309385002093840096BBD3
:107E4000B09BFECF1D9AA8958150A9F7CC24DD24C4
:107E500088248394B5E0AB2EA1E19A2EF3E0BF2EE7
:107E6000A2D0813461F49FD0082FAFD0023811F036
:107E7000013811F484E001C083E08DD089C08234E0
:107E800011F484E103C0853419F485E0A6D080C0E4
:107E9000853579F488D0E82EFF2485D0082F10E0AE
:107EA000102F00270E291F29000F111F8ED06801E7
:107EB0006FC0863521F484E090D080E0DECF843638
:107EC00009F040C070D06FD0082F6DD080E0C81688
:107ED00080E7D80618F4F601B7BEE895C0E0D1E017
:107EE00062D089930C17E1F7F0E0CF16F0E7DF06D8
:107EF00018F0F601B7BEE89568D007B600FCFDCFD4
:107F0000A601A0E0B1E02C9130E011968C91119780
:107F100090E0982F8827822B932B1296FA010C0160
:107F200087BEE89511244E5F5F4FF1E0A038BF0790
:107F300051F7F601A7BEE89507B600FCFDCF97BE46
:107F4000E89526C08437B1F42ED02DD0F82E2BD052
:107F50003CD0F601EF2C8F010F5F1F4F84911BD097
:107F6000EA94F801C1F70894C11CD11CFA94CF0C13
:107F7000D11C0EC0853739F428D08EE10CD085E9AC
:107F80000AD08FE07ACF813511F488E018D01DD067
:107F900080E101D065CF982F8091C00085FFFCCF94
:107FA0009093C60008958091C00087FFFCCF809118
:107FB000C00084FD01C0A8958091C6000895E0E648
:107FC000F0E098E1908380830895EDDF803219F02E
:107FD00088E0F5DFFFCF84E1DECF1F93182FE3DFCA
:107FE0001150E9F7F2DF1F91089580E0E8DFEE27F6
:047FF000FF270994CA
:027FFE00040479
:00000001FF
