:020000040000FA
:100000000C9463000C948B000C948B000C94A6064B
:100010000C94A6060C94A6060C948B000C948B00F2
:100020000C948B000C948B000C948B000C948B0024
:100030000C948B000C948B000C948B000C948B0014
:100040000C9404060C948B000C9474060C944E06CD
:100050000C948B000C948B000C948B000C948B00F4
:100060000C948B000C948B000000000024002700EF
:100070002A0000000008000201000003040700003D
:1000800000000000000000000000230026002900FE
:1000900000000000250028002B00040404040404D0
:1000A0000404020202020202030303030303010227
:1000B00004081020408001020408102001020408F6
:1000C00010201E077F0D11241FBECFEFD8E0DEBF2A
:1000D000CDBF22E0A6E8B1E001C01D92AD3BB20762
:1000E000E1F711E0A0E0B1E0ECE7F5E202C0059035
:1000F0000D92A638B107D9F710E0C2E6D0E004C0EF
:100100002197FE010E94A210C136D107C9F70E94B3
:1001100028080C94B1120C940000209186023091B2
:100120008702232B81F190918C02992361F0989F93
:1001300090011124832F969FB0011124672F949F63
:10014000A0011124452FE091920220918D0230915F
:100150008E0290918F02E91721F0E20FF32FF11D2B
:100160004083E0918F02E20FF32FF11D1082E091A6
:100170009002E20FF32FF11D808380919102280FEE
:10018000311DF90160830895833081F028F48130B6
:1001900099F08230A9F008958730A9F08830C9F02D
:1001A0008430B1F4809180008F7D03C08091800005
:1001B0008F7780938000089584B58F7784BD0895EC
:1001C00084B58F7DFBCF8091B0008F778093B00096
:1001D00008958091B0008F7DF9CF1F93CF93DF9367
:1001E000282F30E0F901EE58FF4F8491F901E255D4
:1001F000FF4FD491F901E656FF4FC491CC23A9F0EB
:10020000162F81110E94C400EC2FF0E0EE0FFF1FAB
:10021000E057FF4FA591B4918FB7F894EC9111116D
:1002200008C0D095DE23DC938FBFDF91CF911F9163
:100230000895DE2BF8CFCF93DF9390E0FC01E255D9
:10024000FF4F249186569F4FFC0184918823D1F063
:1002500090E0880F991FFC01E859FF4FA591B491D8
:10026000FC01E057FF4FC591D49161110EC09FB7BB
:10027000F8948C91E22FE0958E238C932881E223D1
:10028000E8839FBFDF91CF9108958FB7F894EC91E9
:10029000E22BEC938FBFF6CF8E3008F08E50877034
:1002A000806480937C0080917A00806480937A00DF
:1002B00080917A0086FDFCCF809178009091790042
:1002C00008953FB7F8948091DF019091E001A091EB
:1002D000E101B091E20126B5A89B05C02F3F19F0BE
:1002E0000196A11DB11D3FBFBA2FA92F982F8827B6
:1002F000BC01CD01620F711D811D911D42E0660F91
:10030000771F881F991F4A95D1F708950F931F9360
:10031000CF93DF93CDB7DEB729970FB6F894DEBF42
:100320000FBECDBF0E946101009193021091940213
:10033000209195023091960260177107820793070A
:1003400040F460939302709394028093950290938B
:10035000960200919302109194022091950230919F
:100360009602601B710B820B930B6C3271408105FE
:100370009105C0F2F89480918802909189029A8345
:100380008983E0918D02F0918E02DF0111968081C8
:10039000898790918402E0919702F0919802809170
:1003A0009902992309F445C09081982B98879081F0
:1003B000809589238F838F818C8388E08B835885F8
:1003C0006F8149853B812C8189819A81508347FDCA
:1003D000252F3A952083262F39F0441F00C00000B6
:1003E0006083000000C0F2CF38E04D9160830000D0
:1003F000019761F7F0939802E093970249873B8356
:100400002C839A83898378940E946101609393027C
:1004100070939402809395029093960229960FB65A
:10042000F894DEBF0FBECDBFDF91CF911F910F912A
:1004300008959081982B98879081809589238F8348
:100440008F818E8388E08D8358856F8149853D81BA
:100450002E8189819A81508347FD252F00C000C0DD
:10046000208300C000C000C000C000C06083000046
:10047000262F3A9541F0441F000000C000C000C084
:1004800000C000C0E8CF38E04D9100C0608300C0DC
:10049000019709F7F0939802E093970249873D830B
:1004A0002E83AFCFAF92BF92CF92DF92EF92FF92A7
:1004B0000F931F93CF93DF936C017B018B01040F8C
:1004C000151FEB015E01AE18BF08C017D10759F028
:1004D0006991D601ED91FC910190F081E02DC6016A
:1004E0000995892B79F7C501DF91CF911F910F9164
:1004F000FF90EF90DF90CF90BF90AF900895FC01F8
:10050000538D448D252F30E0842F90E0821B930B78
:10051000541710F0CF96089501970895FC01918D1E
:10052000828D981761F0A28DAE0FBF2FB11D5D9621
:100530008C91928D9F5F9F73928F90E008958FEFC3
:100540009FEF08952FB7F8948091E3019091E40113
:10055000A091E501B091E6012FBF8093EF01909348
:10056000F001A093F101B093F20187EE91E00E94B7
:100570008E0297FF26C02FB7F8948091E3019091E7
:10058000E401A091E501B091E6012FBF4091EF0198
:100590005091F0016091F1017091F201841B950B73
:1005A000A60BB70B4091EB015091EC016091ED016E
:1005B0007091EE0184179507A607B707B0F28FEF89
:1005C0009FEF0895FC01918D828D981731F0828DF7
:1005D000E80FF11D858D90E008958FEF9FEF08954E
:1005E000FC01918D228D892F90E0805C9F4F821BB2
:1005F00091098F739927089587EE91E00E94F00288
:1006000021E0892B09F420E0822F089580E090E01A
:10061000892B29F00E94FC0281110C94000008959E
:10062000FC01A48DA80FB92FB11DA35ABF4F2C9167
:10063000848D90E001968F739927848FA689B7895E
:100640002C93A089B1898C91837080648C93938D55
:10065000848D981306C00288F389E02D80818F7DF8
:1006600080830895EF92FF920F931F93CF93DF93B0
:10067000EC0181E0888F9B8D8C8D98131AC0E889DE
:10068000F989808185FF15C09FB7F894EE89FF89AD
:100690006083E889F98980818370806480839FBF4B
:1006A00081E090E0DF91CF911F910F91FF90EF904B
:1006B0000895F62E0B8D10E00F5F1F4F0F7311275B
:1006C000E02E8C8D8E110CC00FB607FCFACFE88996
:1006D000F989808185FFF5CFCE010E941003F1CF0B
:1006E000EB8DEC0FFD2FF11DE35AFF4FF0829FB70A
:1006F000F8940B8FEA89FB8980818062CFCFCF93FA
:10070000DF93EC01888D8823B9F0AA89BB89E88939
:10071000F9898C9185FD03C0808186FD0DC00FB6DF
:1007200007FCF7CF8C9185FFF2CF808185FFEDCF5D
:10073000CE010E941003E9CFDF91CF91089520915F
:10074000C8013091C9012817390771F49091C60189
:100750008091C701981741F0E091C601F0E0EA5797
:10076000FE4F808190E008958FEF9FEF08950895E8
:10077000EF92FF920F931F93CF93DF93DC015C9670
:10078000ED90FC905D97E114F10479F481E090E044
:1007900013969C938E93129790E080E0DF91CF9117
:1007A0001F910F91FF90EF9008955196ED91FC915C
:1007B000529750968C915097982F90950FB75E96C0
:1007C0002C915E97122F127021FD6095F894208174
:1007D000112319F1282B2083E7012197F1F728E055
:1007E000462F50E0308160FF1AC0382B3083E7017C
:1007F0002197F1F7BA0175956795215089F7112373
:1008000081F08081892380830FBF5C968D919C91BC
:100810000197F1F781E090E0C1CF2923DCCF3923A4
:10082000E5CF9081892BEFCF2091C8013091C9018C
:100830002817390761F48091C7012091C60190E023
:10084000805C9F4F821B91098F739927089590E0D8
:1008500080E008952091C8013091C9012817390717
:10086000B9F49091C6018091C701981789F0E09181
:10087000C601F0E0EA57FE4F80812091C60130E0CA
:100880002F5F3F4F2F7333272093C60190E00895C9
:100890008FEF9FEF089590E080E0089581309105FB
:1008A000F9F01CF4892B39F008958230910521F17B
:1008B000039769F1089560E082E00E94ED0060E036
:1008C00083E00E94ED004FEF60E080E00E948D0029
:1008D00080918D0290918E02892B19F10C948601E2
:1008E00061E082E00E94ED0060E083E00E94ED00A4
:1008F00040E060E08FEFEACF60E082E00E94ED0030
:1009000061E083E00E94ED0040E06FEFF3CF61E033
:1009100082E00E94ED0061E083E00E94ED004FEF75
:10092000F4CF0895FC0180819181009711F00C941F
:1009300044110895FC0180819181009711F00C947D
:10094000AA0D60E070E0CB010895FB01019000204A
:10095000E9F73197AF01461B570BDC01ED91FC9194
:100960000280F381E02D09948F929F92AF92BF9203
:100970000F931F93CF93DF93CDB7DEB7A1970FB639
:10098000F894DEBF0FBECDBF19A2423008F44AE092
:100990008E010F5D1F4F842E912CB12CA12CA5012F
:1009A00094010E948010E62FB901CA01EA3004F5D3
:1009B000E05DD801EE938D01232B242B252B79F7B5
:1009C00090E080E0109729F0BD0187EE91E00E9451
:1009D000A504A1960FB6F894DEBF0FBECDBFDF9180
:1009E000CF911F910F91BF90AF909F908F900895DE
:1009F000E95CDFCFCF92DF92EF92FF92CF93DF934C
:100A000097FF1BC06B017C016DE287EE91E00E94B5
:100A10003203EC0166277727CB016C197D098E091B
:100A20009F094AE00E94B4048C0F9D1FDF91CF9173
:100A3000FF90EF90DF90CF9008954AE0DF91CF9143
:100A4000FF90EF90DF90CF900C94B404FB014481B1
:100A50005581FC01248135812417350778F0808188
:100A60009181009759F0FB016081718161157105D9
:100A700029F00E94A31221E0892B09F020E0822FA7
:100A800008950F931F93CF93DF93EC018881998191
:100A9000009759F02A813B812617370730F081E013
:100AA000DF91CF911F910F9108958B016F5F7F4F61
:100AB0000E94CD11009759F0998388831B830A8384
:100AC0002C813D81232B59F7FC011082E8CF80E077
:100AD000E7CFEF92FF920F931F93CF93DF93EC0139
:100AE0007B018A01BA010E94410528813981811167
:100AF00014C02115310519F0C9010E944411198251
:100B000018821D821C821B821A82CE01DF91CF9136
:100B10001F910F91FF90EF9008951D830C83B701F3
:100B2000C9010E949C12F1CFFC0111821082138234
:100B3000128215821482FB0101900020E9F731979F
:100B4000AF01461B570B0C946905AF92BF92CF9231
:100B5000DF92EF92FF920F931F93CF93DF93EC01FD
:100B60006B015A0179012417350720F48B2D5901A7
:100B7000E42EF82E6BE571E0CE010E949405D601BB
:100B800014960D911C91A016B10628F5E016F106F9
:100B900008F48701D601ED91FC911197E00FF11F48
:100BA000F08010826D917C916A0D7B1D611571053D
:100BB000F1F0FB0101900020E9F73197AF01461BEE
:100BC000570BCE010E946905F60180819181080FC3
:100BD000191FD801FC92CE01DF91CF911F910F9187
:100BE000FF90EF90DF90CF90BF90AF9008958881F5
:100BF0009981009711F00E944411198218821D8278
:100C00001C821B821A82E0CF1F920F920FB60F92A6
:100C100011242F933F938F939F93AF93BF93809112
:100C2000E3019091E401A091E501B091E6013091DA
:100C3000DE0123E0230F2D3758F50196A11DB11DCC
:100C40002093DE018093E3019093E401A093E501FA
:100C5000B093E6018091DF019091E001A091E10164
:100C6000B091E2010196A11DB11D8093DF01909327
:100C7000E001A093E101B093E201BF91AF919F9198
:100C80008F913F912F910F900FBE0F901F9018954D
:100C900026E8230F0296A11DB11DD2CF1F920F92FD
:100CA0000FB60F9211242F933F934F935F936F933F
:100CB0007F938F939F93AF93BF93EF93FF9387EEB1
:100CC00091E00E941003FF91EF91BF91AF919F912E
:100CD0008F917F916F915F914F913F912F910F90E5
:100CE0000FBE0F901F9018951F920F920FB60F9284
:100CF00011242F938F939F93EF93FF93E091F7012C
:100D0000F091F8018081E091FD01F091FE0182FDFA
:100D10001BC09081809100028F5F8F732091010230
:100D2000821741F0E0910002F0E0E951FE4F958F0B
:100D300080930002FF91EF919F918F912F910F90DF
:100D40000FBE0F901F9018958081F4CF1F920F92C5
:100D50000FB60F9211242F933F934F935F936F938E
:100D60007F938F939F93AF93BF93EF93FF93E09104
:100D7000C801F091C901309749F0A685B7858585EE
:100D8000968D91FF14C09C918923A1F4FF91EF915E
:100D9000BF91AF919F918F917F916F915F914F9193
:100DA0003F912F910F900FBE0F901F9018959C911F
:100DB000892361F7A389B4899C91858980958923CA
:100DC0008C93868997890197F1F7608D718DA6853F
:100DD000B785558538E020E0CB010197F1F7822FE8
:100DE00090E095958795282F4C91452309F0206830
:100DF000315091F7868D81FD20958091C70190E05B
:100E000001968F7399273091C601381799F0A091F8
:100E1000C701B0E0AA57BE4F2C938093C701828DC3
:100E2000938D0197F1F7A389B4898C919589892BCA
:100E30008C93ACCF868D8160868FF1CF1092EA01C2
:100E40001092E90188EE93E0A0E0B0E08093EB011E
:100E50009093EC01A093ED01B093EE012EE131E00F
:100E60003093E8012093E70125EC30E03093F40162
:100E70002093F30124EC30E03093F6012093F50148
:100E800020EC30E03093F8012093F70121EC30E0C2
:100E90003093FA012093F90122EC30E03093FC0109
:100EA0002093FB0126EC30E03093FE012093FD01FE
:100EB000109200021092010210920202109203029C
:100EC00010929D0210929C0280939E0290939F022A
:100ED000A093A002B093A10280E391E090939B02C3
:100EE00080939A021092B1021092B0021092B30253
:100EF0001092B2021092B5021092B4021092B70290
:100F00001092B6026091B8026E7F6D7F6093B80256
:100F10006695617081E0682784E00E94ED0061E0E1
:100F200084E00E941B01E2EBF0E0E491E093AA026E
:100F3000EEE9F0E0E491F0E0EE0FFF1FE057FF4F25
:100F4000859194919093AC028093AB0260E085E030
:100F50000E941B018091B80281FD04C061E085E020
:100F60000E94ED0085E08093A602E3EBF0E0E491BF
:100F7000E093A702EFE9F0E0E491F0E0EE0FFF1F4D
:100F8000EA57FF4F859194919093A9028093A8020C
:100F90001092850210928C02109293021092940289
:100FA000109295021092960281E0809392028093B3
:100FB0008F021092900292E09093910280938402AB
:100FC00083E090E090938902809388020E94A810A9
:100FD00090938E0280938D02009789F123E0FC01AB
:100FE00011922A95E9F781E090E09093870280932F
:100FF00086028BE090E090938B0280938A0280912E
:101000008502882341F061E08BE00E941B0160E0D3
:101010008BE00E94ED00E5EAF0E0E491F0E0EE0FF5
:10102000FF1FE057FF4F8591949190939802809312
:101030009702E9EBF0E0E491E093990208951092B1
:101040008902109288021092870210928602D1CFF4
:10105000CF93DF93CDB7DEB72E970FB6F894DEBFF0
:101060000FBECDBF789484B5826084BD84B58160A5
:1010700084BD85B5826085BD85B5816085BD809163
:101080006E00816080936E001092810080918100DB
:1010900082608093810080918100816080938100D3
:1010A000809180008160809380008091B100846095
:1010B0008093B1008091B00081608093B0008091F6
:1010C0007A00846080937A0080917A0082608093B5
:1010D0007A0080917A00816080937A0080917A0012
:1010E000806880937A001092C100E091F701F0913E
:1010F000F80182E08083E091F301F091F401108225
:10110000E091F501F091F60180E180831092FF01FA
:10111000E091FB01F091FC0186E08083E091F90110
:10112000F091FA01808180618083E091F901F09172
:10113000FA01808188608083E091F901F091FA01E1
:10114000808180688083E091F901F091FA018081CB
:101150008F7D80831092B5021092B4021092B30278
:101160001092B2021092B1021092B0028DE991E099
:101170009093B7028093B6029091A602963108F040
:1011800047C02DEB30E03093B1022093B0022BE941
:1011900031E03093B3022093B2022CE231E030937D
:1011A000B5022093B4022091680084E0983048F0A2
:1011B00031E09E3008F430E081E001C0880F3A95BC
:1011C000EAF7822B809368002DE630E0983050F0EB
:1011D0002BE630E09E3030F02CE630E0963110F017
:1011E00030E020E03093AE022093AD02292F30E0B2
:1011F000983008F078C081E001C0880F9A95EAF72E
:101200008093AF028091B6029091B7020197F1F7F7
:101210008091B4029091B502892B49F1E091C80107
:10122000F091C90122E0EA39F20709F1309739F06B
:10123000A389B4899C918589809589238C93809119
:10124000B8028E7F8093B8021092C7011092C60137
:101250008AE992E09093C9018093C801E091AD02C0
:10126000F091AE0280819091AF02892B808361E082
:1012700082E00E941B0161E083E00E941B018091DB
:101280008A0290918B0297FD08C061E00E941B01C9
:1012900060E080918A020E94ED0081E080938502E7
:1012A00060918C0220918D0230918E02653171F136
:1012B000615031F170E08FEF94E10E946C10F90100
:1012C0004091880250918902CF01821B930B8417B1
:1012D0009507C8F44081469FC001479F900D112497
:1012E00090833196EDCF9E3040F42850310981E053
:1012F00001C0880F2A95EAF783CF2E503109F7CF26
:1013000070E060E0DCCF85E180938C028091860202
:1013100090918702892B51F180918C022FEF8823C5
:1013200029F0EFEF8E9FC0011124292FE091920246
:1013300080918D0290918E0230918F02E31721F0FF
:10134000E80FF92FF11D1082E0918F02E80FF92FBD
:10135000F11D1082E0919002E80FF92FF11D20831A
:1013600020919102820F911DFC01108280918D02CB
:1013700090918E02892B11F00E94860160E086E038
:101380000E941B0160E087E00E941B0160E088E092
:101390000E941B0160E089E00E941B018091CC014A
:1013A0009091CD010E944E046AE1262E61E0362E16
:1013B00087EE91E00E94F002892B09F468C06BE58A
:1013C00071E0CE0107960E9494050E94A20297FD4B
:1013D0001EC08A309105D9F089831A820B851C853D
:1013E0000F5F1F4FB801CE0107960E944105882369
:1013F00061F32F8138858B859C85BE016F5F7F4FA0
:10140000820F931F0E949C121C870B87DECFAF8038
:10141000B884A114B10439F00B851C857501011540
:10142000110509F0D5C062E771E0CE0101960E9476
:101430009405BE016F5F7F4FCE0107960E9426057F
:10144000182FCE0101960E949204112309F4F6C0D0
:101450002B853C8545E050E0BE01695F7F4FCE01A2
:1014600001960E94A505CE0101960E949A046B0187
:101470007093CD016093CC01CE0101960E9492043D
:10148000C6010E944E04CE0107960E94920402E11A
:1014900011E0E2EDF1E0FE87ED877F01F801808148
:1014A0000E5F1F4F0E944C01BC01990F880B990BD6
:1014B0000E94F60D2AE038E240EA5BE30E94550EF6
:1014C00020E030E048EC52E40E94550E0E942C10BF
:1014D000F701619371937F0120163106F9F600E060
:1014E00011E0F12CE12CF80181918F01882359F151
:1014F000F701EE0FFF1FE65FFE4F2081318133279A
:10150000F901EE58FF4F8491F901E255FF4FC49065
:10151000F901E656FF4FD490DD2079F081110E9449
:10152000C400ED2DF0E0EE0FFF1FEA57FF4FA5912D
:10153000B491EC91CE2281E009F480E0F701E2530E
:10154000FE4F81708083FFEFEF1AFF0A24E0E2165E
:10155000F10409F0C8CF84E10E944C018C0185E1BF
:101560000E944C01BC01990F880B990B0E94F60D4B
:101570002AE038E240EA5BE30E94550E4B015C0131
:10158000B801110F880B990B0E94F60D2AE038E282
:1015900040EA5BE30E94550E20E030E040E250E478
:1015A0000E94621020E030E040E250E418160CF097
:1015B00033C1C501B4010E94621018160CF421C297
:1015C00081E090E09093CB018093CA0132C1760113
:1015D0006701FFEFCF1ADF0AF7018081082E000CA8
:1015E000990B0E94E60D892B91F7015011090A0D04
:1015F0001B1DF8018081082E000C990B0E94E60D3E
:10160000892B31F00E151F0518F001501109F1CF8B
:101610000F5F1F4FA8014E195F095C874B87AE14FF
:10162000BF0420F4B701C5010E948A12EF81F8853A
:101630008B859C85E80FF91F1082F5CE6EE371E073
:10164000CE0101960E949405BE016F5F7F4FCE01CF
:1016500007960E942605182FCE0101960E9492043B
:10166000112309F455C025E030E044E050E0BE010C
:10167000695F7F4FCE0101960E94A505CE010196BC
:101680000E949A046B01CE0101960E9492042B8560
:101690003C8546E050E0BE01695F7F4FCE01019678
:1016A0000E94A505F4E0CF16D104D8F48D819E8167
:1016B000892BB9F009811A8163E471E0C8010E94A5
:1016C0009312892B99F4F601E050FF4F21E020831B
:1016D000F601EE0FFF1FE65FFE4F60E080810E9483
:1016E0001B01CE0101960E949204CDCE66E471E00A
:1016F000C8010E949312892BA1F7F601E050FF4F19
:101700001082F601EE0FFF1FE65FFE4F61E0E6CFAD
:101710006AE471E0CE0101960E949405BE016F5FFC
:101720007F4FCE0107960E942605182FCE01019605
:101730000E949204112309F440C028E030E047E001
:1017400050E0BE01695F7F4FCE0101960E94A50562
:10175000CE0101960E949A044B01CE0101960E948F
:1017600092042B853C8549E050E0BE01695F7F4FC4
:10177000CE0101960E94A505CE0101960E949A0411
:101780006B01CE0101960E94920484E088169104B8
:1017900008F079CEF401E050FF4F8081811173CEC3
:1017A00061E0CD2809F460E0F401EE0FFF1FE65F71
:1017B000FE4F80810E94ED0066CE62E571E0CE01B1
:1017C00001960E949405BE016F5F7F4FCE01079680
:1017D0000E942605182FCE0101960E949204112323
:1017E00009F451CE2B853C8546E050E0BE01695F8F
:1017F0007F4FCE0101960E94A5054D815E816981D2
:101800007A818AE992E00E94520269E571E08AE9F0
:1018100092E00E94A50465CFC501B4010E94621048
:1018200018160CF0EBC0E2E0F0E0F093CB01E0938F
:10183000CA012FB7F8948091E3019091E401A0913F
:10184000E501B091E6012FBF4091DA015091DB0133
:101850006091DC017091DD01841B950BA60BB70B29
:1018600084369105A105B10508F4BBC02FB7F894E3
:101870008091E3019091E401A091E501B091E6012E
:101880002FBF8093DA019093DB01A093DC01B0932A
:10189000DD016CE571E087EE91E00E94A50410E0A7
:1018A00000E0ED85FE8561917191FE87ED87072E41
:1018B000000C880B990B0E94F60D20E030E048ECFC
:1018C00052E40E94BA0F6B017C014B015C01AC0138
:1018D0009B010E9467106FE571E081111BC026011A
:1018E0003701E89477F82FEF3FEF4FE75FE7C30149
:1018F000B2010E946710811189C02FEF3FEF4FE7BF
:101900005FE7C301B2010E94EF0D18160CF07EC014
:1019100063E671E087EE91E00E94A50403301105B3
:1019200031F06BE671E087EE91E00E94A5040F5F55
:101930001F4F0430110509F0B4CF6DE671E087EE5A
:1019400091E00E94A5048EECE82E81E0F82E10E0D4
:1019500000E0F70161917F0170E090E080E00E947B
:10196000FA040330110531F06BE671E087EE91E087
:101970000E94A5040F5F1F4F0430110551F761E766
:1019800071E087EE91E00E94A5046091CC01709116
:10199000CD01072E000C880B990B0E94FA0468E712
:1019A00071E087EE91E00E94A5046AE270E080E0B9
:1019B00090E00E94FA046FE771E087EE91E00E94E8
:1019C000A5046091CA017091CB01072E000C880B11
:1019D000990B0E94FA0469E571E087EE91E00E949C
:1019E000A50480E090E0892B09F4E2CC0E94FC027F
:1019F000882309F4DDCC0E940000DACC83E090E07B
:101A0000E1CDF092CB01E092CA0113CF2FEF3FEF6F
:101A10004FE75FE4C701B6010E94621018161CF47C
:101A200067E671E077CF2FEF3FEF4FE75FECC7013D
:101A3000B6010E94EF0D87FDF3CF20E030E0A90151
:101A4000C701B6010E94EF0D87FF0BC06DE287EE64
:101A500091E00E94320346015701B7FAB094B7F8FB
:101A6000B0942AE037ED43EA5BE3C501B4010E947C
:101A70004E0F4B015C010E9433106B017C010E94F0
:101A8000F40D9B01AC01C501B4010E944D0F4B0147
:101A90005C014AE0C701B6010E94B4046EE287EE21
:101AA00091E00E94320320E030E040E251E4C501C1
:101AB000B4010E94550E4B015C010E9433106B0172
:101AC000F12CE12C4AE0C701B6010E94B404C70121
:101AD000B6010E94F40D9B01AC01C501B4010E9446
:101AE0004D0F20E030E040E251E40E94550E0E948C
:101AF000331090E080E04AE00E94B4040FCF809160
:101B00008D0290918E020E94441180918A029091E0
:101B10008B0297FD03C060E00E941B0180E391E00F
:101B200090939B0280939A028091C8019091C90181
:101B30008A59924071F4E091AD02F091AE02908129
:101B40008091AF028095892380831092C901109201
:101B5000C80108951F93FC0199278827BC01E894C8
:101B600011911032E9F3193010F01E30C8F31B3216
:101B700051F01D3249F4689406C00E94D10D610FE6
:101B8000711D811D911D119110531A30B0F33EF457
:101B900090958095709561957F4F8F4F9F4F1F91C6
:101BA0000895592F482F372F262F660F771F881F2C
:101BB000991F660F771F881F991F620F731F841F5D
:101BC000951F660F771F881F991F089591110C9418
:101BD000C20E803219F089508550C8F708950E94CE
:101BE000310E08F481E00895E89409C097FB3EF4B3
:101BF00090958095709561957F4F8F4F9F4F99235A
:101C0000A9F0F92F96E9BB279395F69587957795D7
:101C10006795B795F111F8CFFAF4BB0F11F460FF97
:101C20001BC06F5F7F4F8F4F9F4F16C0882311F0EF
:101C300096E911C0772321F09EE8872F762F05C003
:101C4000662371F096E8862F70E060E02AF09A959E
:101C5000660F771F881FDAF7880F9695879597F993
:101C60000895990F0008550FAA0BE0E8FEEF16162D
:101C70001706E807F907C0F012161306E407F50780
:101C800098F0621B730B840B950B39F40A2661F0F4
:101C9000232B242B252B21F408950A2609F4A14097
:101CA000A6958FEF811D811D08950E94680E0C94EA
:101CB000DC0E0E94CE0E38F00E94D50E20F0952347
:101CC00011F00C94C50E0C94CB0E11240C94100F33
:101CD0000E94ED0E70F3959FC1F3950F50E0551FD4
:101CE000629FF001729FBB27F00DB11D639FAA2771
:101CF000F00DB11DAA1F649F6627B00DA11D661FC0
:101D0000829F2227B00DA11D621F739FB00DA11DE0
:101D1000621F839FA00D611D221F749F3327A00D9A
:101D2000611D231F849F600D211D822F762F6A2F36
:101D300011249F5750409AF0F1F088234AF0EE0F9B
:101D4000FF1FBB1F661F771F881F91505040A9F7C8
:101D50009E3F510580F00C94C50E0C94100F5F3F10
:101D6000E4F3983ED4F3869577956795B795F79504
:101D7000E7959F5FC1F7FE2B880F911D969587957C
:101D800097F9089599278827089597F99F6780E81C
:101D900070E060E008959FEF80EC089500240A94BD
:101DA0001616170618060906089500240A94121636
:101DB0001306140605060895092E0394000C11F469
:101DC000882352F0BB0F40F4BF2B11F460FF04C016
:101DD0006F5F7F4F8F4F9F4F089557FD9058440F6F
:101DE000551F59F05F3F71F04795880F97FB991F7A
:101DF00061F09F3F79F08795089512161306140637
:101E0000551FF2CF4695F1DF08C0161617061806C3
:101E1000991FF1CF86957105610508940895E8949E
:101E2000BB2766277727CB0197F908952F923F921A
:101E30004F925F926F927F928F929F92AF92BF92DA
:101E4000CF92DF92EF92FF920F931F93CF93DF9386
:101E5000CDB7DEB7CA1BDB0B0FB6F894DEBF0FBEE3
:101E6000CDBF09942A88398848885F846E847D8430
:101E70008C849B84AA84B984C884DF80EE80FD8032
:101E80000C811B81AA81B981CE0FD11D0FB6F894A8
:101E9000DEBF0FBECDBFED0108955058BB27AA2766
:101EA0000E94650F0C94DC0E0E94CE0E38F00E944A
:101EB000D50E20F039F49F3F19F426F40C94CB0E84
:101EC0000EF4E095E7FB0C94C50EE92F0E94ED0E91
:101ED00058F3BA17620773078407950720F079F45F
:101EE000A6F50C940F0F0EF4E0950B2EBA2FA02D33
:101EF0000B01B90190010C01CA01A0011124FF27B7
:101F0000591B99F0593F50F4503E68F11A16F040B1
:101F1000A22F232F342F4427585FF3CF46953795B0
:101F20002795A795F0405395C9F77EF41F16BA0B75
:101F3000620B730B840BBAF09150A1F0FF0FBB1F23
:101F4000661F771F881FC2F70EC0BA0F621F731F6C
:101F5000841F48F4879577956795B795F7959E3FC9
:101F600008F0B0CF9395880F08F09927EE0F97955A
:101F7000879508950E94CE0F0C94DC0E0E94D50E1A
:101F800058F00E94CE0E40F029F45F3F29F00C94E7
:101F9000C50E51110C94100F0C94CB0E0E94ED0E37
:101FA00068F39923B1F3552391F3951B550BBB2788
:101FB000AA2762177307840738F09F5F5F4F220FCD
:101FC000331F441FAA1FA9F335D00E2E3AF0E0E8C4
:101FD00032D091505040E695001CCAF72BD0FE2F0E
:101FE00029D0660F771F881FBB1F261737074807A2
:101FF000AB07B0E809F0BB0B802DBF01FF2793585A
:102000005F4F3AF09E3F510578F00C94C50E0C944A
:10201000100F5F3FE4F3983ED4F38695779567956C
:10202000B795F7959F5FC9F7880F911D969587958E
:1020300097F90895E1E0660F771F881FBB1F6217AD
:1020400073078407BA0720F0621B730B840BBA0B6B
:10205000EE1F88F7E09508950E9433106894B1113F
:102060000C94100F08950E94F50E88F09F5798F079
:10207000B92F9927B751B0F0E1F0660F771F881F8D
:10208000991F1AF0BA95C9F714C0B13091F00E94A7
:102090000F0FB1E008950C940F0F672F782F88274A
:1020A000B85F39F0B93FCCF3869577956795B395CE
:1020B000D9F73EF490958095709561957F4F8F4F3D
:1020C0009F4F08950E94310E08F48FEF08950E94EB
:1020D000310E880B990B0895AA1BBB1B51E107C059
:1020E000AA1FBB1FA617B70710F0A61BB70B881FA8
:1020F000991F5A95A9F780959095BC01CD01089537
:10210000A1E21A2EAA1BBB1BFD010DC0AA1FBB1FFB
:10211000EE1FFF1FA217B307E407F50720F0A21B6D
:10212000B30BE40BF50B661F771F881F991F1A94DA
:1021300069F760957095809590959B01AC01BD0104
:10214000CF010895EE0FFF1F0590F491E02D099443
:102150000F931F93CF93DF938230910510F482E0A9
:1021600090E0E091BB02F091BC0230E020E0B0E0F2
:10217000A0E0309799F42115310509F44AC0281BD5
:10218000390B24303105D8F58A819B8161157105A1
:1021900089F1FB0193838283FE0111C0408151814B
:1021A0000281138148175907E0F04817590799F43D
:1021B000109761F012960C93129713961C93329617
:1021C000CF01DF91CF911F910F9108950093BB0232
:1021D0001093BC02F4CF2115310551F0421753077B
:1021E00038F0A901DB019A01BD01DF01F801C1CF7F
:1021F000EF01F9CF9093BC028093BB02CDCFFE01DB
:10220000E20FF31F81939193225031093983288380
:10221000D7CF2091B9023091BA02232B41F42091FB
:102220000601309107013093BA022093B902209140
:102230000401309105012115310541F42DB73EB758
:102240004091080150910901241B350BE091B9021E
:10225000F091BA02E217F307A0F42E1B3F0B2817E8
:10226000390778F0AC014E5F5F4F2417350748F00F
:102270004E0F5F1F5093BA024093B902819391931E
:102280009FCFF0E0E0E09CCFCF93DF930097E9F0A1
:10229000FC01329713821282A091BB02B091BC0262
:1022A000ED0130E020E01097A1F420813181820F10
:1022B000931F2091B9023091BA022817390709F00B
:1022C00061C0F093BA02E093B902DF91CF91089513
:1022D000EA01CE17DF07E8F54A815B819E014115CF
:1022E0005105B1F7E901FB83EA8349915991C40F84
:1022F000D51FEC17FD0761F4808191810296840F50
:10230000951FE90199838883828193819B838A83C6
:10231000F0E0E0E012968D919C9113970097B9F54B
:102320002D913C911197CD010296820F931F209120
:10233000B9023091BA022817390739F6309751F5AA
:102340001092BC021092BB02B093BA02A093B902E1
:10235000BCCFD383C28340815181840F951FC8179E
:10236000D90761F44E5F5F4F88819981480F591FEB
:10237000518340838A819B81938382832115310518
:1023800009F0B0CFF093BC02E093BB029ECFFD01F9
:10239000DC01C0CF13821282D7CFB0E0A0E0E3ED22
:1023A000F1E10C94180F8C01009751F4CB010E94BD
:1023B000A8108C01C801CDB7DEB7E0E10C94340F52
:1023C000FC01E60FF71F9C0122503109E217F307C9
:1023D00008F49DC0D901CD91DC911197C617D7079C
:1023E00098F0C530D10530F3CE01049786179707D2
:1023F00008F3C61BD70B2297C193D1936D937C939F
:10240000CF010E944411D6CF5B01AC1ABD0A4C012A
:102410008C0E9D1EA091BB02B091BC02512C412C90
:10242000F12CE12C109731F58091B9029091BA020C
:102430008815990509F05CC04616570608F058C083
:102440008091040190910501009741F48DB79EB7EA
:102450004091080150910901841B950BE817F90779
:1024600008F055C0F093BA02E093B902F901718304
:102470006083A0CF8D919C91119712966C901297CA
:1024800013967C901397A815B90559F56C0142E095
:10249000C40ED11CCA14DB0420F1AC014A195B093B
:1024A000DA011296159780F062827382518340831D
:1024B000D9016D937C93E114F10471F0D701139667
:1024C000FC93EE93129776CF22968C0F9D1FF90105
:1024D00091838083F301EFCFF093BC02E093BB02C2
:1024E00069CF4816590608F42C017D01D3019ACF13
:1024F000CB010E94A8107C01009749F0AE01B80101
:102500000E948A12C8010E944411870153CF10E033
:1025100000E050CFFB01DC0102C001900D92415060
:102520005040D8F70895FB01DC018D91019080198E
:102530000110D9F3990B0895FB01DC0101900D9274
:102540000020E1F70895FB01DC014150504030F0DC
:102550008D910190801919F40020B9F7881B990B0F
:10256000089510E0C2E6D0E004C0FE010E94A2106F
:102570002196C336D107C9F7F894FFCF01010101B5
:102580000000BD02800006000700080009000E00E0
:102590000F001000110000000000320352027F0201
:1025A0007F03F0028E02E20200000000B803520234
:1025B0004B04B70314042A049F0344494F3A0049CB
:1025C0004E004F5554004457524954453A00525317
:1025D0003438353A000D0A00413A006E616E0069E8
:1025E0006E66006F7666002C007C443A007C4D4F8E
:1025F00044453A007C414444523A007C4143433ACA
:022600000000D8
:107E0000112484B714BE81FFF0D085E080938100F7
:107E100082E08093C00088E18093C10086E0809377
:107E2000C20080E18093C4008EE0C9D0259A86E02C
:107E300020E33CEF91E0309385002093840096BBD3
:107E4000B09BFECF1D9AA8958150A9F7CC24DD24C4
:107E500088248394B5E0AB2EA1E19A2EF3E0BF2EE7
:107E6000A2D0813461F49FD0082FAFD0023811F036
:107E7000013811F484E001C083E08DD089C08234E0
:107E800011F484E103C0853419F485E0A6D080C0E4
:107E9000853579F488D0E82EFF2485D0082F10E0AE
:107EA000102F00270E291F29000F111F8ED06801E7
:107EB0006FC0863521F484E090D080E0DECF843638
:107EC00009F040C070D06FD0082F6DD080E0C81688
:107ED00080E7D80618F4F601B7BEE895C0E0D1E017
:107EE00062D089930C17E1F7F0E0CF16F0E7DF06D8
:107EF00018F0F601B7BEE89568D007B600FCFDCFD4
:107F0000A601A0E0B1E02C9130E011968C91119780
:107F100090E0982F8827822B932B1296FA010C0160
:107F200087BEE89511244E5F5F4FF1E0A038BF0790
:107F300051F7F601A7BEE89507B600FCFDCF97BE46
:107F4000E89526C08437B1F42ED02DD0F82E2BD052
:107F50003CD0F601EF2C8F010F5F1F4F84911BD097
:107F6000EA94F801C1F70894C11CD11CFA94CF0C13
:107F7000D11C0EC0853739F428D08EE10CD085E9AC
:107F80000AD08FE07ACF813511F488E018D01DD067
:107F900080E101D065CF982F8091C00085FFFCCF94
:107FA0009093C60008958091C00087FFFCCF809118
:107FB000C00084FD01C0A8958091C6000895E0E648
:107FC000F0E098E1908380830895EDDF803219F02E
:107FD00088E0F5DFFFCF84E1DECF1F93182FE3DFCA
:107FE0001150E9F7F2DF1F91089580E0E8DFEE27F6
:047FF000FF270994CA
:027FFE00040479
:00000001FF
