:100000000C9463000C948B000C948B000C94B80639
:100010000C94B8060C94B8060C948B000C948B00CE
:100020000C948B000C948B000C948B000C948B0024
:100030000C948B000C948B000C948B000C948B0014
:100040000C9416060C948B000C9486060C94600697
:100050000C948B000C948B000C948B000C948B00F4
:100060000C948B000C948B000000000024002700EF
:100070002A0000000008000201000003040700003D
:1000800000000000000000000000230026002900FE
:1000900000000000250028002B00040404040404D0
:1000A0000404020202020202030303030303010227
:1000B00004081020408001020408102001020408F6
:1000C00010203007210D11241FBECFEFD8E0DEBF76
:1000D000CDBF22E0A0EAB1E001C01D92A13DB20770
:1000E000E1F711E0A0E0B1E0E0ECF4E202C005903D
:1000F0000D92A03AB107D9F710E0C2E6D0E004C0F3
:100100002197FE010E944410C136D107C9F70E9411
:100110003A080C9453120C9400008F929F92AF9265
:10012000BF92CF92DF92EF92FF9220919A0230918C
:100130009B02232B09F440C04C01AA24BB24C72EE8
:10014000D82EE92EFF24BC2DA62F2091A002482DE9
:10015000222391F0A22FB0E0A89DF001A99DF00DFF
:10016000B89DF00D11244F2F2C9D60011124BD2D41
:10017000269FC0011124A92FE091A6028091A1021F
:100180009091A2022091A302E21721F0E80FF92F2B
:10019000F11D1082E091A302E80FF92FF11D4083B9
:1001A000E091A402E80FF92FF11DB0832091A50280
:1001B000820F911DFC01A083FF90EF90DF90CF9004
:1001C000BF90AF909F908F900895833081F028F476
:1001D000813099F08230A9F008958730A9F08830F5
:1001E000C9F08430B1F4809180008F7D03C080918C
:1001F00080008F7780938000089584B58F7784BDC9
:10020000089584B58F7DFBCF8091B0008F77809368
:10021000B00008958091B0008F7DF9CF1F93CF93E8
:10022000DF93282F30E0F901EE58FF4F8491F90158
:10023000E255FF4FD491F901E656FF4FC491CC230C
:10024000A9F0162F81110E94E500EC2FF0E0EE0FCF
:10025000FF1FE057FF4FA591B4918FB7F894EC9131
:10026000111108C0D095DE23DC938FBFDF91CF91B1
:100270001F910895DE2BF8CFCF93DF9390E0FC0120
:10028000E255FF4F249186569F4FFC0184918823AD
:10029000D1F090E0880F991FFC01E859FF4FA5911C
:1002A000B491FC01E057FF4FC591D49161110EC08C
:1002B0009FB7F8948C91E22FE0958E238C93288140
:1002C000E223E8839FBFDF91CF9108958FB7F89421
:1002D000EC91E22BEC938FBFF6CF3FB7F89480916F
:1002E000F3019091F401A091F501B091F60126B5CA
:1002F000A89B05C02F3F19F00196A11DB11D3FBF5E
:10030000BA2FA92F982F8827BC01CD01620F711D2C
:10031000811D911D42E0660F771F881F991F4A9526
:10032000D1F708950F931F93CF93DF93CDB7DEB727
:1003300029970FB6F894DEBF0FBECDBF0E946D01A6
:100340000091A7021091A8022091A9023091AA025F
:10035000601771078207930740F46093A7027093B8
:10036000A8028093A9029093AA020091A70210917B
:10037000A8022091A9023091AA02601B710B820B86
:10038000930B6C32714081059105C0F2F894809115
:100390009C0290919D029A838983E091A102F09141
:1003A000A202DF0111968081898790919802E091E5
:1003B000AB02F091AC028091AD02992309F445C0E3
:1003C0009081982B98879081809589238F838F8146
:1003D0008C8388E08B8358856F8149853B812C8194
:1003E00089819A81508347FD252F3A952083262FB6
:1003F00039F0441F00C000006083000000C0F2CF4D
:1004000038E04D9160830000019761F7F093AC02F2
:10041000E093AB0249873B832C839A83898378944A
:100420000E946D016093A7027093A8028093A902B5
:100430009093AA0229960FB6F894DEBF0FBECDBFE7
:10044000DF91CF911F910F9108959081982B9887FC
:100450009081809589238F838F818E8388E08D831F
:1004600058856F8149853D812E8189819A8150838C
:1004700047FD252F00C000C0208300C000C000C081
:1004800000C000C060830000262F3A9541F0441F51
:10049000000000C000C000C000C000C0E8CF38E0CD
:1004A0004D9100C0608300C0019709F7F093AC0242
:1004B000E093AB0249873D832E83AFCFAF92BF92CB
:1004C000CF92DF92EF92FF920F931F93CF93DF9320
:1004D0006C017B018B01040F151FEB015E01AE184F
:1004E000BF08C017D10759F06991D601ED91FC9171
:1004F0000190F081E02DC6010995892B79F7C5019E
:10050000DF91CF911F910F91FF90EF90DF90CF90EF
:10051000BF90AF900895FC01538D448D252F30E09E
:10052000842F90E0821B930B541710F0CF96089500
:1005300001970895FC01918D828D981761F0A28D2D
:10054000AE0FBF2FB11D5D968C91928D9F5F9F73F3
:10055000928F90E008958FEF9FEF08952FB7F89452
:100560008091F7019091F801A091F901B091FA0101
:100570002FBF8093030290930402A0930502B093CF
:1005800006028BEF91E00E949A0297FF26C02FB7D8
:10059000F8948091F7019091F801A091F901B09140
:1005A000FA012FBF409103025091040260910502AD
:1005B00070910602841B950BA60BB70B4091FF01AF
:1005C0005091000260910102709102028417950718
:1005D000A607B707B0F28FEF9FEF0895FC01918D4A
:1005E000828D981731F0828DE80FF11D858D90E096
:1005F00008958FEF9FEF0895FC01918D228D892F33
:1006000090E0805C9F4F821B91098F73992708951A
:100610008BEF91E00E94FC0221E0892B09F420E09D
:10062000822F089580E090E0892B29F00E94080332
:1006300081110C9400000895FC01A48DA80FB92F1E
:10064000B11DA35ABF4F2C91848D90E001968F73FA
:100650009927848FA689B7892C93A089B1898C9119
:10066000837080648C93938D848D981306C0028868
:10067000F389E02D80818F7D80830895EF92FF9232
:100680000F931F93CF93DF93EC0181E0888F9B8DB5
:100690008C8D98131AC0E889F989808185FF15C06F
:1006A0009FB7F894EE89FF896083E889F989808192
:1006B0008370806480839FBF81E090E0DF91CF9161
:1006C0001F910F91FF90EF900895F62E0B8D10E083
:1006D0000F5F1F4F0F731127E02E8C8D8E110CC0F2
:1006E0000FB607FCFACFE889F989808185FFF5CF3D
:1006F000CE010E941C03F1CFEB8DEC0FFD2FF11DFD
:10070000E35AFF4FF0829FB7F8940B8FEA89FB8979
:1007100080818062CFCFCF93DF93EC01888D8823D7
:10072000B9F0AA89BB89E889F9898C9185FD03C054
:10073000808186FD0DC00FB607FCF7CF8C9185FF39
:10074000F2CF808185FFEDCFCE010E941C03E9CF5F
:10075000DF91CF9108952091E2013091E3012817B4
:10076000390771F49091E0018091E101981741F00F
:10077000E091E001F0E0E056FE4F808190E00895C6
:100780008FEF9FEF08950895EF92FF920F931F93BD
:10079000CF93DF93DC015C96ED90FC905D97E114C4
:1007A000F10479F481E090E013969C938E93129774
:1007B00090E080E0DF91CF911F910F91FF90EF903B
:1007C00008955196ED91FC91529750968C915097C7
:1007D000982F90950FB75E962C915E97122F1270FE
:1007E00021FD6095F8942081112319F1282B208395
:1007F000E7012197F1F728E0462F50E0308160FFB4
:100800001AC0382B3083E7012197F1F7BA017595AB
:100810006795215089F7112381F080818923808396
:100820000FBF5C968D919C910197F1F781E090E06C
:10083000C1CF2923DCCF3923E5CF9081892BEFCF9E
:100840002091E2013091E3012817390761F480918A
:10085000E1012091E00190E0805C9F4F821B9109B3
:100860008F739927089590E080E008952091E20128
:100870003091E30128173907B9F49091E001809194
:10088000E101981789F0E091E001F0E0E056FE4FB9
:1008900080812091E00130E02F5F3F4F2F7333279D
:1008A0002093E00190E008958FEF9FEF089590E08E
:1008B00080E0089581309105F9F01CF4892B39F01E
:1008C00008958230910529F1039781F1089560E040
:1008D00082E00E940E0160E083E00E940E0160E869
:1008E00070E0CB010E948D008091A1029091A20244
:1008F000892B49F10C94920161E082E00E940E0183
:1009000060E083E00E940E0160E070E08FEF90E015
:10091000E9CF60E082E00E940E0161E083E00E9486
:100920000E0160E07FEF8FEF90E0DCCF61E082E0CE
:100930000E940E0161E083E00E940E0160E07FEF03
:1009400080E090E0CFCF0895FC01808191810097F5
:1009500011F00C94E6100895FC01808191810097BC
:1009600011F00C944C0D60E070E0CB010895FB0198
:1009700001900020E9F73197AF01461B570BDC01CE
:10098000ED91FC910280F381E02D09948F929F926A
:10099000AF92BF920F931F93CF93DF93CDB7DEB784
:1009A000A1970FB6F894DEBF0FBECDBF19A242309B
:1009B00008F44AE08E010F5D1F4F842E912CB12C5C
:1009C000A12CA50194010E942210E62FB901CA01B1
:1009D000EA3004F5E05DD801EE938D01232B242B42
:1009E000252B79F790E080E0109729F0BD018BEF7F
:1009F00091E00E94B704A1960FB6F894DEBF0FBE37
:100A0000CDBFDF91CF911F910F91BF90AF909F907D
:100A10008F900895E95CDFCFCF92DF92EF92FF9243
:100A2000CF93DF9397FF1BC06B017C016DE28BEFCF
:100A300091E00E943E03EC0166277727CB016C19F9
:100A40007D098E099F094AE00E94C6048C0F9D1FF4
:100A5000DF91CF91FF90EF90DF90CF9008954AE023
:100A6000DF91CF91FF90EF90DF90CF900C94C60470
:100A7000FB0144815581FC01248135812417350710
:100A800078F080819181009759F0FB01608171813C
:100A90006115710529F00E94451221E0892B09F0AA
:100AA00020E0822F08950F931F93CF93DF93EC01E3
:100AB00088819981009759F02A813B812617370751
:100AC00030F081E0DF91CF911F910F9108958B015C
:100AD0006F5F7F4F0E946F11009759F09983888351
:100AE0001B830A832C813D81232B59F7FC01108243
:100AF000E8CF80E0E7CFEF92FF920F931F93CF9361
:100B0000DF93EC017B018A01BA010E945305288121
:100B10003981811114C02115310519F0C9010E94D4
:100B2000E610198218821D821C821B821A82CE0155
:100B3000DF91CF911F910F91FF90EF9008951D834A
:100B40000C83B701C9010E943E12F1CFFC01118252
:100B500010821382128215821482FB010190002000
:100B6000E9F73197AF01461B570B0C947B05AF9209
:100B7000BF92CF92DF92EF92FF920F931F93CF938A
:100B8000DF93EC016B015A0179012417350720F43A
:100B90008B2D5901E42EF82E61E671E0CE010E9402
:100BA000A605D60114960D911C91A016B10628F544
:100BB000E016F10608F48701D601ED91FC9111973A
:100BC000E00FF11FF08010826D917C916A0D7B1D0A
:100BD00061157105F1F0FB0101900020E9F73197F3
:100BE000AF01461B570BCE010E947B05F6018081A9
:100BF0009181080F191FD801FC92CE01DF91CF918E
:100C00001F910F91FF90EF90DF90CF90BF90AF902A
:100C1000089588819981009711F00E94E610198249
:100C200018821D821C821B821A82E0CF1F920F92B3
:100C30000FB60F9211242F933F938F939F93AF93EF
:100C4000BF938091F7019091F801A091F901B091C3
:100C5000FA013091F20123E0230F2D3758F5019668
:100C6000A11DB11D2093F2018093F7019093F8012B
:100C7000A093F901B093FA018091F3019091F401EE
:100C8000A091F501B091F6010196A11DB11D8093CF
:100C9000F3019093F401A093F501B093F601BF9195
:100CA000AF919F918F913F912F910F900FBE0F9019
:100CB0001F90189526E8230F0296A11DB11DD2CFD3
:100CC0001F920F920FB60F9211242F933F934F93C1
:100CD0005F936F937F938F939F93AF93BF93EF93A4
:100CE000FF938BEF91E00E941C03FF91EF91BF9166
:100CF000AF919F918F917F916F915F914F913F91B4
:100D00002F910F900FBE0F901F9018951F920F926A
:100D10000FB60F9211242F938F939F93EF93FF930E
:100D2000E0910B02F0910C028081E0911102F091B0
:100D3000120282FD1BC09081809114028F5F8F731D
:100D400020911502821741F0E0911402F0E0E55085
:100D5000FE4F958F80931402FF91EF919F918F9199
:100D60002F910F900FBE0F901F9018958081F4CF98
:100D70001F920F920FB60F9211242F933F934F9310
:100D80005F936F937F938F939F93AF93BF93EF93F3
:100D9000FF93E091E201F091E301309749F0A685DD
:100DA000B7858585968D91FF14C09C918923A1F408
:100DB000FF91EF91BF91AF919F918F917F916F9133
:100DC0005F914F913F912F910F900FBE0F901F9009
:100DD00018959C91892361F7A389B4899C91858991
:100DE000809589238C93868997890197F1F7608D87
:100DF000718DA685B785558538E020E0CB01019738
:100E0000F1F7822F90E095958795282F4C914523F7
:100E100009F02068315091F7868D81FD20958091F1
:100E2000E10190E001968F7399273091E001381726
:100E300099F0A091E101B0E0A056BE4F2C938093B1
:100E4000E101828D938D0197F1F7A389B4898C918B
:100E50009589892B8C93ACCF868D8160868FF1CF5D
:100E60001092FE011092FD0188EE93E0A0E0B0E048
:100E70008093FF0190930002A0930102B0930202BD
:100E80002EE131E03093FC012093FB0125EC30E0B2
:100E9000309308022093070224EC30E030930A02DA
:100EA0002093090220EC30E030930C0220930B02D7
:100EB00021EC30E030930E0220930D0222EC30E062
:100EC0003093100220930F0226EC30E03093120290
:100ED0002093110210921402109215021092160221
:100EE000109217021092B1021092B0028093B202D7
:100EF0009093B302A093B402B093B50280E391E063
:100F00009093AF028093AE021092C5021092C40279
:100F10001092C7021092C6021092C9021092C80223
:100F20001092CB021092CA026091CC026E7F6D7F4C
:100F30006093CC026695617081E0682784E00E942E
:100F40000E0161E084E00E943C01E2EBF0E0E491FC
:100F5000E093BE02EEE9F0E0E491F0E0EE0FFF1F57
:100F6000E057FF4F859194919093C0028093BF0208
:100F700060E085E00E943C018091CC0281FD04C0CC
:100F800061E085E00E940E0185E08093BA02E3EB08
:100F9000F0E0E491E093BB02EFE9F0E0E491F0E0EF
:100FA000EE0FFF1FEA57FF4F859194919093BD027A
:100FB0008093BC02109299021092A0021092A70294
:100FC0001092A8021092A9021092AA0281E08093C6
:100FD000A6028093A3021092A40292E09093A5022D
:100FE0008093980283E090E090939D0280939C020E
:100FF0000E944A109093A2028093A102009789F167
:1010000023E0FC0111922A95E9F781E090E09093AA
:101010009B0280939A028BE090E090939F028093D2
:101020009E0280919902882341F061E08BE00E944A
:101030003C0160E08BE00E940E01E5EAF0E0E49103
:10104000F0E0EE0FFF1FE057FF4F859194919093D2
:10105000AC028093AB02E9EBF0E0E491E093AD02E7
:10106000089510929D0210929C0210929B02109281
:101070009A02D1CFCF93DF93CDB7DEB72C970FB6BF
:10108000F894DEBF0FBECDBF789484B5826084BD76
:1010900084B5816084BD85B5826085BD85B581607C
:1010A00085BD80916E00816080936E0010928100FA
:1010B00080918100826080938100809181008160B5
:1010C0008093810080918000816080938000809176
:1010D000B10084608093B1008091B0008160809302
:1010E000B00080917A00846080937A0080917A00C9
:1010F000826080937A0080917A00816080937A0088
:1011000080917A00806880937A001092C1000E94DA
:101110006D014B015C0178EEC72E73E0D72EE12CF8
:10112000F12C0E946D01681979098A099B09683EB2
:10113000734081059105A8F321E0C21AD108E108A6
:10114000F10888EE880E83E0981EA11CB11CC11422
:10115000D104E104F10429F7E0910B02F0910C02B3
:1011600082E08083E0910702F09108021082E09112
:101170000902F0910A0280E1808310921302E0914B
:101180000F02F091100286E08083E0910D02F09151
:101190000E02808180618083E0910D02F0910E0249
:1011A000808188608083E0910D02F0910E02808141
:1011B00080688083E0910D02F0910E0280818F7D26
:1011C00080831092C9021092C8021092C702109236
:1011D000C6021092C5021092C4028DE991E090936C
:1011E000CB028093CA029091BA02963108F047C0B0
:1011F0002DEB30E03093C5022093C4022BE931E09F
:101200003093C7022093C6022CE231E03093C9022A
:101210002093C8022091680084E0983048F031E0C3
:101220009E3008F430E081E001C0880F3A95EAF77B
:10123000822B809368002DE630E0983050F02BE64A
:1012400030E09E3030F02CE630E0963110F030E0A7
:1012500020E03093C2022093C102292F30E0983061
:1012600008F078C081E001C0880F9A95EAF7809372
:10127000C3028091CA029091CB020197F1F780914D
:10128000C8029091C902892B49F1E091E201F091E5
:10129000E30122E0EE3AF20709F1309739F0A38931
:1012A000B4899C918589809589238C938091CC0207
:1012B0008E7F8093CC021092E1011092E0018EEAC1
:1012C00092E09093E3018093E201E091C102F091FA
:1012D000C20280819091C302892B808361E082E009
:1012E0000E943C0161E083E00E943C0180919E02EB
:1012F00090919F0297FD08C061E00E943C0160E070
:1013000080919E020E940E0181E08093990260917B
:10131000A002633091F12091A1023091A2026150AC
:1013200031F170E08FEF92E00E940E10F9014091D0
:101330009C0250919D02CF01821B930B841795074D
:10134000C8F44081469FC001479F900D11249083AF
:101350003196EDCF9E3040F42850310981E001C034
:10136000880F2A95EAF783CF2E503109F7CF70E026
:1013700060E0DCCF83E08093A00260E07FEF80E05C
:1013800090E00E948D008091A1029091A202892B91
:1013900011F00E94920160E086E00E943C0160E052
:1013A00087E00E943C0160E088E00E943C0160E030
:1013B00089E00E943C018091E4019091E5010E9446
:1013C0005A048BEF91E00E94FC02892B09F468C05B
:1013D00061E671E0CE0107960E94A6050E94AE026A
:1013E00097FD1EC08A309105D9F089831A820B853A
:1013F0001C850F5F1F4FB801CE0107960E94530551
:10140000882361F32F8138858B859C85BE016F5FB2
:101410007F4F820F931F0E943E121C870B87DECFE7
:10142000CF80D884C114D10439F00B851C85760196
:101430000115110509F050C16EE371E0CE0101966E
:101440000E94A605BE016F5F7F4FCE0107960E94E6
:101450003805182FCE0101960E94A404112309F427
:1014600071C12B853C8545E050E0BE01695F7F4F2F
:10147000CE0101960E94B705CE0101960E94AC04F0
:101480006B017093E5016093E401CE0101960E9427
:10149000A404C6010E945A04CE0107960E94A40427
:1014A00002E111E03AEE232E31E0332E7101F80112
:1014B00080810E5F1F4F8E3008F08E5087708064E1
:1014C00080937C0080917A00806480937A00809180
:1014D0007A0086FDFCCF6091780070917900072E2C
:1014E000000C880B990B0E94980D2AE038E240EA24
:1014F0005BE30E94F70D20E030E048EC52E40E94EC
:10150000F70D0E94CE0FF701619371937F018AE17D
:1015100091E08017910759F600E011E0F12CE12CE1
:10152000F80181918F01882359F1F701EE0FFF1F18
:10153000E65FFE4F208131813327F901EE58FF4FDE
:101540008491F901E255FF4FD490F901E656FF4F1F
:10155000C490CC2079F081110E94E500EC2DF0E0E0
:10156000EE0FFF1FEA57FF4FA591B491EC91DE22D9
:1015700081E009F480E0F701EA51FE4F8170808339
:10158000FFEFEF1AFF0A24E0E216F10409F0C8CFDA
:101590006CE771E08BEF91E00E94B70410E000E08F
:1015A000F101619171911F01072E000C880B990BBD
:1015B0000E94980D20E030E048EC52E40E945C0F5D
:1015C0006B017C014B015C01AC019B010E94091085
:1015D0006FE771E081111BC026013701E89477F8AD
:1015E0002FEF3FEF4FE75FE7C301B2010E94091001
:1015F0008111AEC12FEF3FEF4FE75FE7C301B201AB
:101600000E94910D18160CF0A3C163E871E08BEFF6
:1016100091E00E94B7040330110531F06BE871E0EE
:101620008BEF91E00E94B7040F5F1F4F043011054C
:1016300009F0B6CF6DE871E08BEF91E00E94B7043E
:1016400086EEE82E81E0F82E10E000E0F7016191CF
:101650007F0170E090E080E00E940C0503301105EE
:1016600031F06BE871E08BEF91E00E94B7040F5FFF
:101670001F4F0430110551F761E971E08BEF91E0E4
:101680000E94B7046091E4017091E501072E000CFF
:10169000880B990B0E940C0568E971E08BEF91E0D3
:1016A0000E94B7046AE270E080E090E00E940C05BE
:1016B0006FE571E08BEF91E00E94B70480E090E06D
:1016C000892B09F47ECE0E940803882309F479CE81
:1016D0000E94000076CE750157018FEFA81AB80A54
:1016E000F7018081082E000C990B0E94880D892B30
:1016F00091F7015011090C0D1D1DF8018081082E74
:10170000000C990B0E94880D892B31F00E151F05D6
:1017100018F001501109F1CF0F5F1F4FA8014E19AA
:101720005F095C874B87CE14DF0420F4B701C60144
:101730000E942C12EF81F8858B859C85E80FF91F9C
:1017400010827ACE64E471E0CE0101960E94A60573
:10175000BE016F5F7F4FCE0107960E943805182F9C
:10176000CE0101960E94A404112309F455C025E07E
:1017700030E044E050E0BE01695F7F4FCE0101964A
:101780000E94B705CE0101960E94AC046B01CE0108
:1017900001960E94A4042B853C8546E050E0BE01E2
:1017A000695F7F4FCE0101960E94B705F4E0CF1626
:1017B000D104D8F48D819E81892BB9F009811A81D9
:1017C00069E471E0C8010E943512892B99F4F60191
:1017D000E050FF4F21E02083F601EE0FFF1FE65F90
:1017E000FE4F60E080810E943C01CE0101960E9484
:1017F000A40452CE6CE471E0C8010E943512892B1A
:10180000A1F7F601E050FF4F1082F601EE0FFF1F27
:10181000E65FFE4F61E0E6CF60E571E0CE01019644
:101820000E94A605BE016F5F7F4FCE0107960E9402
:101830003805182FCE0101960E94A404112309F443
:1018400040C028E030E047E050E0BE01695F7F4FD4
:10185000CE0101960E94B705CE0101960E94AC040C
:101860006B01CE0101960E94A4042B853C8549E0C2
:1018700050E0BE01695F7F4FCE0101960E94B7051F
:10188000CE0101960E94AC044B01CE0101960E944C
:10189000A40484E0C816D10408F0FECDF601E0509F
:1018A000FF4F80818111F8CD61E0892809F460E063
:1018B000F601EE0FFF1FE65FFE4F80810E940E01D2
:1018C000EBCD68E571E0CE0101960E94A605BE0150
:1018D0006F5F7F4FCE0107960E943805182FCE010B
:1018E00001960E94A4042B853C851123C1F046E09B
:1018F00050E0BE01695F7F4FCE0101960E94B7059F
:101900004D815E8169817A818EEA92E00E945E0259
:101910006FE571E08EEA92E00E94B70466CF232B58
:1019200009F4BACD62E671E08F8198850E94351284
:10193000892B09F0B1CD6EE671E08BEF91E00E944A
:10194000B7046FE571E08BEF91E00E94B704A4CD7E
:101950002FEF3FEF4FE75FE4C701B6010E9404108D
:1019600018161CF467E871E052CE2FEF3FEF4FE7F7
:101970005FECC701B6010E94910D87FDF3CF20E017
:1019800030E0A901C701B6010E94910D87FF0BC08D
:101990006DE28BEF91E00E943E0346015701B7FADA
:1019A000B094B7F8B0942AE037ED43EA5BE3C501A1
:1019B000B4010E94F00E4B015C010E94D50F6B0137
:1019C0007C010E94960D9B01AC01C501B4010E94EF
:1019D000EF0E4B015C014AE0C701B6010E94C6044C
:1019E0006EE28BEF91E00E943E0320E030E040E2A7
:1019F00051E4C501B4010E94F70D4B015C010E9446
:101A0000D50F6B01F12CE12C4AE0C701B6010E9411
:101A1000C604C701B6010E94960D9B01AC01C50129
:101A2000B4010E94EF0E20E030E040E251E40E9459
:101A3000F70D0E94D50F90E080E04AE00E94C604B6
:101A4000EACD8091A1029091A2020E94E6108091BD
:101A50009E0290919F0297FD03C060E00E943C01AE
:101A600080E391E09093AF028093AE028091E20117
:101A70009091E3018E5A924071F4E091C102F0918D
:101A8000C20290818091C302809589238083109245
:101A9000E3011092E20108951F93FC019927882722
:101AA000BC01E89411911032E9F3193010F01E30A6
:101AB000C8F31B3251F01D3249F4689406C00E94ED
:101AC000730D610F711D811D911D119110531A30FD
:101AD000B0F33EF490958095709561957F4F8F4F50
:101AE0009F4F1F910895592F482F372F262F660F8C
:101AF000771F881F991F660F771F881F991F620F16
:101B0000731F841F951F660F771F881F991F0895E5
:101B100091110C94640E803219F089508550C8F7E9
:101B200008950E94D30D08F481E00895E89409C057
:101B300097FB3EF490958095709561957F4F8F4F00
:101B40009F4F9923A9F0F92F96E9BB279395F69516
:101B5000879577956795B795F111F8CFFAF4BB0F94
:101B600011F460FF1BC06F5F7F4F8F4F9F4F16C0F8
:101B7000882311F096E911C0772321F09EE8872F82
:101B8000762F05C0662371F096E8862F70E060E03E
:101B90002AF09A95660F771F881FDAF7880F9695B7
:101BA000879597F90895990F0008550FAA0BE0E85B
:101BB000FEEF16161706E807F907C0F0121613060F
:101BC000E407F50798F0621B730B840B950B39F44F
:101BD0000A2661F0232B242B252B21F408950A26B5
:101BE00009F4A140A6958FEF811D811D08950E94E3
:101BF0000A0E0C947E0E0E94700E38F00E94770E32
:101C000020F0952311F00C94670E0C946D0E1124A6
:101C10000C94B20E0E948F0E70F3959FC1F3950F36
:101C200050E0551F629FF001729FBB27F00DB11D60
:101C3000639FAA27F00DB11DAA1F649F6627B00DF0
:101C4000A11D661F829F2227B00DA11D621F739FD9
:101C5000B00DA11D621F839FA00D611D221F749FE7
:101C60003327A00D611D231F849F600D211D822F2E
:101C7000762F6A2F11249F5750409AF0F1F0882355
:101C80004AF0EE0FFF1FBB1F661F771F881F915082
:101C90005040A9F79E3F510580F00C94670E0C94BC
:101CA000B20E5F3FE4F3983ED4F38695779567953F
:101CB000B795F795E7959F5FC1F7FE2B880F911DAC
:101CC0009695879597F9089599278827089597F904
:101CD0009F6780E870E060E008959FEF80EC0895D2
:101CE00000240A94161617061806090608950024FB
:101CF0000A9412161306140605060895092E039475
:101D0000000C11F4882352F0BB0F40F4BF2B11F4E8
:101D100060FF04C06F5F7F4F8F4F9F4F089557FD47
:101D20009058440F551F59F05F3F71F04795880F49
:101D300097FB991F61F09F3F79F0879508951216E0
:101D400013061406551FF2CF4695F1DF08C016168C
:101D500017061806991FF1CF86957105610508943D
:101D60000895E894BB2766277727CB0197F9089554
:101D70002F923F924F925F926F927F928F929F929B
:101D8000AF92BF92CF92DF92EF92FF920F931F9389
:101D9000CF93DF93CDB7DEB7CA1BDB0B0FB6F8943A
:101DA000DEBF0FBECDBF09942A88398848885F847A
:101DB0006E847D848C849B84AA84B984C884DF80EB
:101DC000EE80FD800C811B81AA81B981CE0FD11DCF
:101DD0000FB6F894DEBF0FBECDBFED010895505889
:101DE000BB27AA270E94070F0C947E0E0E94700E3C
:101DF00038F00E94770E20F039F49F3F19F426F452
:101E00000C946D0E0EF4E095E7FB0C94670EE92F31
:101E10000E948F0E58F3BA1762077307840795075D
:101E200020F079F4A6F50C94B10E0EF4E0950B2E8B
:101E3000BA2FA02D0B01B90190010C01CA01A0011C
:101E40001124FF27591B99F0593F50F4503E68F177
:101E50001A16F040A22F232F342F4427585FF3CFB8
:101E6000469537952795A795F0405395C9F77EF489
:101E70001F16BA0B620B730B840BBAF09150A1F0D2
:101E8000FF0FBB1F661F771F881FC2F70EC0BA0F58
:101E9000621F731F841F48F4879577956795B795E0
:101EA000F7959E3F08F0B0CF9395880F08F09927DB
:101EB000EE0F9795879508950E94700F0C947E0EF3
:101EC0000E94770E58F00E94700E40F029F45F3F98
:101ED00029F00C94670E51110C94B20E0C946D0EF7
:101EE0000E948F0E68F39923B1F3552391F3951B4C
:101EF000550BBB27AA2762177307840738F09F5F2B
:101F00005F4F220F331F441FAA1FA9F335D00E2E97
:101F10003AF0E0E832D091505040E695001CCAF704
:101F20002BD0FE2F29D0660F771F881FBB1F2617C7
:101F300037074807AB07B0E809F0BB0B802DBF019E
:101F4000FF2793585F4F3AF09E3F510578F00C946D
:101F5000670E0C94B20E5F3FE4F3983ED4F386957F
:101F600077956795B795F7959F5FC9F7880F911D8E
:101F70009695879597F90895E1E0660F771F881F7A
:101F8000BB1F621773078407BA0720F0621B730B2D
:101F9000840BBA0BEE1F88F7E09508950E94D50FC9
:101FA0006894B1110C94B20E08950E94970E88F0B7
:101FB0009F5798F0B92F9927B751B0F0E1F0660F0D
:101FC000771F881F991F1AF0BA95C9F714C0B1304E
:101FD00091F00E94B10EB1E008950C94B10E672FFC
:101FE000782F8827B85F39F0B93FCCF3869577957D
:101FF0006795B395D9F73EF4909580957095619566
:102000007F4F8F4F9F4F08950E94D30D08F48FEF9D
:1020100008950E94D30D880B990B0895AA1BBB1B32
:1020200051E107C0AA1FBB1FA617B70710F0A61BD8
:10203000B70B881F991F5A95A9F780959095BC01F9
:10204000CD010895A1E21A2EAA1BBB1BFD010DC0F4
:10205000AA1FBB1FEE1FFF1FA217B307E407F50758
:1020600020F0A21BB30BE40BF50B661F771F881F34
:10207000991F1A9469F760957095809590959B01CA
:10208000AC01BD01CF010895EE0FFF1F0590F49143
:10209000E02D09940F931F93CF93DF938230910526
:1020A00010F482E090E0E091CF02F091D00230E0B5
:1020B00020E0B0E0A0E0309799F42115310509F453
:1020C0004AC0281B390B24303105D8F58A819B8101
:1020D0006115710589F1FB0193838283FE0111C0B3
:1020E000408151810281138148175907E0F0481758
:1020F000590799F4109761F012960C931297139662
:102100001C933296CF01DF91CF911F910F910895CB
:102110000093CF021093D002F4CF2115310551F076
:102120004217530738F0A901DB019A01BD01DF0115
:10213000F801C1CFEF01F9CF9093D0028093CF0285
:10214000CDCFFE01E20FF31F81939193225031090D
:1021500039832883D7CF2091CD023091CE02232B13
:1021600041F420910601309107013093CE02209373
:10217000CD0220910401309105012115310541F472
:102180002DB73EB74091080150910901241B350B32
:10219000E091CD02F091CE02E217F307A0F42E1BDE
:1021A0003F0B2817390778F0AC014E5F5F4F2417BB
:1021B000350748F04E0F5F1F5093CE024093CD027B
:1021C000819391939FCFF0E0E0E09CCFCF93DF939A
:1021D0000097E9F0FC01329713821282A091CF029E
:1021E000B091D002ED0130E020E01097A1F4208101
:1021F0003181820F931F2091CD023091CE0228179A
:10220000390709F061C0F093CE02E093CD02DF916F
:10221000CF910895EA01CE17DF07E8F54A815B8187
:102220009E0141155105B1F7E901FB83EA8349910C
:102230005991C40FD51FEC17FD0761F4808191817E
:102240000296840F951FE901998388838281938187
:102250009B838A83F0E0E0E012968D919C91139726
:102260000097B9F52D913C911197CD010296820FFF
:10227000931F2091CD023091CE022817390739F6ED
:10228000309751F51092D0021092CF02B093CE0247
:10229000A093CD02BCCFD383C28340815181840FF0
:1022A000951FC817D90761F44E5F5F4F88819981E8
:1022B000480F591F518340838A819B819383828376
:1022C0002115310509F0B0CFF093D002E093CF0291
:1022D0009ECFFD01DC01C0CF13821282D7CFB0E0C8
:1022E000A0E0E5E7F1E10C94BA0E8C01009751F4FF
:1022F000CB010E944A108C01C801CDB7DEB7E0E1E6
:102300000C94D60EFC01E60FF71F9C0122503109F8
:10231000E217F30708F49DC0D901CD91DC91119724
:10232000C617D70798F0C530D10530F3CE01049712
:102330008617970708F3C61BD70B2297C193D19333
:102340006D937C93CF010E94E610D6CF5B01AC1A4F
:10235000BD0A4C018C0E9D1EA091CF02B091D002FF
:10236000512C412CF12CE12C109731F58091CD02AC
:102370009091CE028815990509F05CC04616570663
:1023800008F058C08091040190910501009741F434
:102390008DB79EB74091080150910901841B950BA0
:1023A000E817F90708F055C0F093CE02E093CD028C
:1023B000F90171836083A0CF8D919C911197129642
:1023C0006C90129713967C901397A815B90559F540
:1023D0006C0142E0C40ED11CCA14DB0420F1AC0134
:1023E0004A195B09DA011296159780F062827382AE
:1023F00051834083D9016D937C93E114F10471F012
:10240000D7011396FC93EE93129776CF22968C0FFA
:102410009D1FF90191838083F301EFCFF093D002E8
:10242000E093CF0269CF4816590608F42C017D01CC
:10243000D3019ACFCB010E944A107C01009749F04A
:10244000AE01B8010E942C12C8010E94E61087015B
:1024500053CF10E000E050CFFB01DC0102C001903F
:102460000D9241505040D8F70895FB01DC018D9149
:10247000019080190110D9F3990B0895FB01DC013B
:1024800001900D920020E1F70895FB01DC0141501D
:10249000504030F08D910190801919F40020B9F767
:1024A000881B990B089510E0C2E6D0E004C0FE013D
:1024B0000E9444102196C336D107C9F7F894FFCF84
:1024C000010101010000D1028000060007000800A0
:1024D00009000E000F0010001100000000003E0374
:1024E0005E028B028B03FC029A02EE0200000000E7
:1024F000C4035E025704C30320043604AB034D4FEC
:1025000044453A0044494F3A00494E004F55540063
:102510004457524954453A0052533438353A000D25
:102520000A004745545F56455253494F4E005645A1
:102530005253494F4E3A312E322E3300413A006EFB
:10254000616E00696E66006F7666002C007C443A0E
:10255000007C6D6F64653A007C414444523A00004F
:00000001FF
