:100000000C9463000C948B000C948B000C94CB0626
:100010000C94CB060C94CB060C948B000C948B00A8
:100020000C948B000C948B000C948B000C948B0024
:100030000C948B000C948B000C948B000C948B0014
:100040000C9429060C948B000C9499060C9473065E
:100050000C948B000C948B000C948B000C948B00F4
:100060000C948B000C948B000000000024002700EF
:100070002A0000000008000201000003040700003D
:1000800000000000000000000000230026002900FE
:1000900000000000250028002B00040404040404D0
:1000A0000404020202020202030303030303010227
:1000B00004081020408001020408102001020408F6
:1000C000102043078E0D11241FBECFEFD8E0DEBFF6
:1000D000CDBF22E0AEE9B1E001C01D92A73DB2075D
:1000E000E1F711E0A0E0B1E0EAE9F5E202C0059035
:1000F0000D92AE39B107D9F710E0C2E6D0E004C0E6
:100100002197FE010E94B110C136D107C9F70E94A4
:100110004D080C94C0120C9400008F929F92AF92E5
:10012000BF92CF92DF92EF92FF922091A002309186
:10013000A102232B09F440C04C01AA24BB24C72EE2
:10014000D82EE92EFF24BC2DA62F2091A602482DE3
:10015000222391F0A22FB0E0A89DF001A99DF00DFF
:10016000B89DF00D11244F2F2C9D60011124BD2D41
:10017000269FC0011124A92FE091AC028091A70213
:100180009091A8022091A902E21721F0E80FF92F1F
:10019000F11D1082E091A902E80FF92FF11D4083B3
:1001A000E091AA02E80FF92FF11DB0832091AB0274
:1001B000820F911DFC01A083FF90EF90DF90CF9004
:1001C000BF90AF909F908F900895833081F028F476
:1001D000813099F08230A9F008958730A9F08830F5
:1001E000C9F08430B1F4809180008F7D03C080918C
:1001F00080008F7780938000089584B58F7784BDC9
:10020000089584B58F7DFBCF8091B0008F77809368
:10021000B00008958091B0008F7DF9CF1F93CF93E8
:10022000DF93282F30E0F901EE58FF4F8491F90158
:10023000E255FF4FD491F901E656FF4FC491CC230C
:10024000A9F0162F81110E94E500EC2FF0E0EE0FCF
:10025000FF1FE057FF4FA591B4918FB7F894EC9131
:10026000111108C0D095DE23DC938FBFDF91CF91B1
:100270001F910895DE2BF8CFCF93DF9390E0FC0120
:10028000E255FF4F249186569F4FFC0184918823AD
:10029000D1F090E0880F991FFC01E859FF4FA5911C
:1002A000B491FC01E057FF4FC591D49161110EC08C
:1002B0009FB7F8948C91E22FE0958E238C93288140
:1002C000E223E8839FBFDF91CF9108958FB7F89421
:1002D000EC91E22BEC938FBFF6CF3FB7F89480916F
:1002E000FD019091FE01A091FF01B091000226B5A1
:1002F000A89B05C02F3F19F00196A11DB11D3FBF5E
:10030000BA2FA92F982F8827BC01CD01620F711D2C
:10031000811D911D42E0660F771F881F991F4A9526
:10032000D1F708950F931F93CF93DF93CDB7DEB727
:1003300029970FB6F894DEBF0FBECDBF8091A702FC
:100340009091A802892B09F47CC00E946D01009154
:10035000AD021091AE022091AF023091B002601751
:1003600071078207930740F46093AD027093AE0269
:100370008093AF029093B0020091AD021091AE0253
:100380002091AF023091B002601B710B820B930B76
:100390006C32714081059105C0F2F8948091A202FF
:1003A0009091A3029A838983E091A702F091A80219
:1003B000DF0111968081898790919E02E091B102C0
:1003C000F091B2028091B302992309F445C0908163
:1003D000982B98879081809589238F838F818C8338
:1003E00088E08B8358856F8149853B812C81898189
:1003F0009A81508347FD252F3A952083262F39F087
:10040000441F00C000006083000000C0F2CF38E04D
:100410004D9160830000019761F7F093B202E09381
:10042000B10249873B832C839A83898378940E9405
:100430006D016093AD027093AE028093AF02909312
:10044000B00229960FB6F894DEBF0FBECDBFDF9184
:10045000CF911F910F9108959081982B988790814B
:10046000809589238F838F818E8388E08D83588543
:100470006F8149853D812E8189819A81508347FD15
:10048000252F00C000C0208300C000C000C000C0F5
:1004900000C060830000262F3A9541F0441F000001
:1004A00000C000C000C000C000C0E8CF38E04D91DF
:1004B00000C0608300C0019709F7F093B202E09397
:1004C000B10249873D832E83AFCF2FB7F894609157
:1004D000F9017091FA018091FB019091FC012FBF0D
:1004E0000895AF92BF92CF92DF92EF92FF920F9357
:1004F0001F93CF93DF936C017B018B01040F151FBA
:10050000EB015E01AE18BF08C017D10759F0699121
:10051000D601ED91FC910190F081E02DC601099585
:10052000892B79F7C501DF91CF911F910F91FF9032
:10053000EF90DF90CF90BF90AF900895FC01538D66
:10054000448D252F30E0842F90E0821B930B5417AD
:1005500010F0CF96089501970895FC01918D828D3A
:10056000981761F0A28DAE0FBF2FB11D5D968C91D3
:10057000928D9F5F9F73928F90E008958FEF9FEF12
:1005800008950F931F930E94650260930902709370
:100590000A0280930B0290930C0281E092E00E9489
:1005A000AD0297FF1DC00E946502009109021091E3
:1005B0000A0220910B0230910C02601B710B820B1E
:1005C000930B0091050210910602209107023091D1
:1005D00008026017710782079307F8F28FEF9FEF09
:1005E0001F910F910895FC01918D828D981731F024
:1005F000828DE80FF11D858D90E008958FEF9FEFBC
:100600000895FC01918D228D892F90E0805C9F4F91
:10061000821B91098F739927089581E092E00E94CF
:10062000010321E0892B09F420E0822F089580E066
:1006300090E0892B29F00E940D0381110C94000099
:100640000895FC01A48DA80FB92FB11DA35ABF4F67
:100650002C91848D90E001968F739927848FA689C1
:10066000B7892C93A089B1898C91837080648C9315
:10067000938D848D981306C00288F389E02D8081C4
:100680008F7D80830895EF92FF920F931F93CF93F6
:10069000DF93EC0181E0888F9B8D8C8D98131AC0BD
:1006A000E889F989808185FF15C09FB7F894EE89A4
:1006B000FF896083E889F989808183708064808301
:1006C0009FBF81E090E0DF91CF911F910F91FF904C
:1006D000EF900895F62E0B8D10E00F5F1F4F0F73F4
:1006E0001127E02E8C8D8E110CC00FB607FCFACFAF
:1006F000E889F989808185FFF5CFCE010E94210329
:10070000F1CFEB8DEC0FFD2FF11DE35AFF4FF0827F
:100710009FB7F8940B8FEA89FB8980818062CFCFE5
:10072000CF93DF93EC01888D8823B9F0AA89BB8928
:10073000E889F9898C9185FD03C0808186FD0DC013
:100740000FB607FCF7CF8C9185FFF2CF808185FF34
:10075000EDCFCE010E942103E9CFDF91CF91089523
:100760002091E0013091E1012817390771F490914F
:10077000DE018091DF01981741F0E091DE01F0E0A9
:10078000E256FE4F808190E008958FEF9FEF08952D
:100790000895EF92FF920F931F93CF93DF93DC01A5
:1007A0005C96ED90FC905D97E114F10479F481E0A2
:1007B00090E013969C938E93129790E080E0DF91E7
:1007C000CF911F910F91FF90EF9008955196ED9169
:1007D000FC91529750968C915097982F90950FB707
:1007E0005E962C915E97122F127021FD6095F89401
:1007F0002081112319F1282B2083E7012197F1F79C
:1008000028E0462F50E0308160FF1AC0382B30833B
:10081000E7012197F1F7BA0175956795215089F79E
:10082000112381F08081892380830FBF5C968D9195
:100830009C910197F1F781E090E0C1CF2923DCCFB3
:100840003923E5CF9081892BEFCF2091E0013091C2
:10085000E1012817390761F48091DF012091DE0161
:1008600090E0805C9F4F821B91098F7399270895B8
:1008700090E080E008952091E0013091E101281797
:100880003907B9F49091DE018091DF01981789F062
:10089000E091DE01F0E0E256FE4F80812091DE0122
:1008A00030E02F5F3F4F2F7333272093DE0190E01E
:1008B00008958FEF9FEF089590E080E008958130D4
:1008C0009105C9F01CF4892B39F008958230910507
:1008D000F9F0039751F1089560E082E00E940E0163
:1008E00060E083E00E940E0160E870E0CB010E94AE
:1008F0008D000C94920161E082E00E940E0160E0A4
:1009000083E00E940E0160E070E08FEF90E0EFCF97
:1009100060E082E00E940E0161E083E00E940E012F
:1009200060E07FEF8FEF90E0E2CF61E082E00E9435
:100930000E0161E083E00E940E0160E07FEF80E045
:1009400090E0D5CFFC0180819181009711F00C944B
:1009500053110895FC0180819181009711F00C944E
:10096000B90D60E070E0CB010895FB01019000201B
:10097000E9F73197AF01461B570BDC01ED91FC9174
:100980000280F381E02D09948F929F92AF92BF92E3
:100990000F931F93CF93DF93CDB7DEB7A1970FB619
:1009A000F894DEBF0FBECDBF19A2423008F44AE072
:1009B0008E010F5D1F4F842E912CB12CA12CA5010F
:1009C00094010E948F10E62FB901CA01EA3004F5A4
:1009D000E05DD801EE938D01232B242B252B79F795
:1009E00090E080E0109729F0BD0181E092E00E9444
:1009F000B504A1960FB6F894DEBF0FBECDBFDF9150
:100A0000CF911F910F91BF90AF909F908F900895BD
:100A1000E95CDFCFCF92DF92EF92FF92CF93DF932B
:100A200097FF1BC06B017C016DE281E092E00E94A8
:100A30004303EC0166277727CB016C197D098E09EA
:100A40009F094AE00E94C4048C0F9D1FDF91CF9143
:100A5000FF90EF90DF90CF9008954AE0DF91CF9123
:100A6000FF90EF90DF90CF900C94C404FB01448181
:100A70005581FC01248135812417350778F0808168
:100A80009181009759F0FB016081718161157105B9
:100A900029F00E94B21221E0892B09F020E0822F78
:100AA0000895FC0124813581232B39F421E0FB01D9
:100AB0008081882349F020E007C0808191810E94D5
:100AC000A21221E0892BB9F7822F08950F931F936B
:100AD000CF93DF93EC0188819981009759F02A81A7
:100AE0003B812617370730F081E0DF91CF911F91CE
:100AF0000F9108958B016F5F7F4F0E94DC1100976B
:100B000059F0998388831B830A832C813D81232B91
:100B100059F7FC011082E8CF80E0E7CFEF92FF9217
:100B20000F931F93CF93DF93EC017B018A01BA01EE
:100B30000E94660528813981811114C02115310573
:100B400019F0C9010E945311198218821D821C825A
:100B50001B821A82CE01DF91CF911F910F91FF90DE
:100B6000EF9008951D830C83B701C9010E94AB1259
:100B7000F1CFFC011182108213821282158214823D
:100B8000FB0101900020E9F73197AF01461B570B9D
:100B90000C948E05AF92BF92CF92DF92EF92FF92AC
:100BA0000F931F93CF93DF93EC016B015A017901EF
:100BB0002417350720F48B2D5901E42EF82E60E61A
:100BC00071E0CE010E94B905D60114960D911C91D9
:100BD000A016B10628F5E016F10608F48701D60143
:100BE000ED91FC911197E00FF11FF08010826D9153
:100BF0007C916A0D7B1D61157105F1F0FB0101907F
:100C00000020E9F73197AF01461B570BCE010E9438
:100C10008E05F60180819181080F191FD801FC9281
:100C2000CE01DF91CF911F910F91FF90EF90DF9058
:100C3000CF90BF90AF90089588819981009711F06F
:100C40000E945311198218821D821C821B821A82F3
:100C5000E0CF1F920F920FB60F9211242F933F9364
:100C60008F939F93AF93BF938091F9019091FA0175
:100C7000A091FB01B091FC013091F80123E0230F1A
:100C80002D3758F50196A11DB11D2093F8018093D1
:100C9000F9019093FA01A093FB01B093FC018091BC
:100CA000FD019091FE01A091FF01B091000201961B
:100CB000A11DB11D8093FD019093FE01A093FF0142
:100CC000B0930002BF91AF919F918F913F912F916F
:100CD0000F900FBE0F901F90189526E8230F0296D5
:100CE000A11DB11DD2CF1F920F920FB60F921124EA
:100CF0002F933F934F935F936F937F938F939F9324
:100D0000AF93BF93EF93FF9381E092E00E942103A2
:100D1000FF91EF91BF91AF919F918F917F916F91D3
:100D20005F914F913F912F910F900FBE0F901F90A9
:100D300018951F920F920FB60F9211242F938F9335
:100D40009F93EF93FF93E0911102F0911202808143
:100D5000E0911702F091180282FD1BC090818091F2
:100D60001A028F5F8F7320911B02821741F0E0916E
:100D70001A02F0E0EF5FFD4F958F80931A02FF910A
:100D8000EF919F918F912F910F900FBE0F901F9019
:100D900018958081F4CF1F920F920FB60F921124F5
:100DA0002F933F934F935F936F937F938F939F9373
:100DB000AF93BF93EF93FF93E091E001F091E101D6
:100DC000309749F0A685B7858585968D91FF14C02B
:100DD0009C918923A1F4FF91EF91BF91AF919F91D5
:100DE0008F917F916F915F914F913F912F910F90D4
:100DF0000FBE0F901F9018959C91892361F7A389CE
:100E0000B4899C918589809589238C93868997895B
:100E10000197F1F7608D718DA685B785558538E00E
:100E200020E0CB010197F1F7822F90E0959587950F
:100E3000282F4C91452309F02068315091F7868D79
:100E400081FD20958091DF0190E001968F739927B5
:100E50003091DE01381799F0A091DF01B0E0A25681
:100E6000BE4F2C938093DF01828D938D0197F1F714
:100E7000A389B4898C919589892B8C93ACCF868D6D
:100E80008160868FF1CF109204021092030288EEE7
:100E900093E0A0E0B0E08093050290930602A09357
:100EA0000702B09308022EE131E030930202209352
:100EB000010225EC30E030930E0220930D0224EC69
:100EC00030E03093100220930F0220EC30E030939A
:100ED00012022093110221EC30E03093140220938F
:100EE000130222EC30E0309316022093150226EC18
:100EF00030E0309318022093170210921A021092D9
:100F00001B0210921C0210921D021092B702109246
:100F1000B6028093B8029093B902A093BA02B0933C
:100F2000BB0280E391E09093B5028093B4021092EB
:100F3000CB021092CA021092CD021092CC021092F3
:100F4000CF021092CE021092D1021092D002609184
:100F5000D2026E7F6D7F6093D2026695617081E0F0
:100F6000682784E00E940E0161E084E00E943C0159
:100F7000E2EBF0E0E491E093C402EEE9F0E0E4910A
:100F8000F0E0EE0FFF1FE057FF4F85919491909393
:100F9000C6028093C50260E085E00E943C0180911A
:100FA000D20281FD04C061E085E00E940E0185E06F
:100FB0008093C002E3EBF0E0E491E093C102EFE93B
:100FC000F0E0E491F0E0EE0FFF1FEA57FF4F85914C
:100FD00094919093C3028093C20210929F02109248
:100FE000A6021092AD021092AE021092AF021092C1
:100FF000B00281E08093AC028093A9021092AA0211
:1010000092E09093AB0280939E0283E090E09093F5
:10101000A3028093A2020E94B7109093A80280932B
:10102000A702009789F123E0FC0111922A95E9F7C4
:1010300081E090E09093A1028093A0028BE090E089
:101040009093A5028093A40280919F02882341F08F
:1010500061E08BE00E943C0160E08BE00E940E01A9
:10106000E5EAF0E0E491F0E0EE0FFF1FE057FF4FFC
:10107000859194919093B2028093B102E9EBF0E0F4
:10108000E491E093B30208951092A3021092A20299
:101090001092A1021092A002D1CFCF93DF93CDB7CF
:1010A000DEB72C970FB6F894DEBF0FBECDBF789495
:1010B00084B5826084BD84B5816084BD85B582605D
:1010C00085BD85B5816085BD80916E00816080930E
:1010D0006E00109281008091810082608093810077
:1010E0008091810081608093810080918000816087
:1010F000809380008091B10084608093B1008091E2
:10110000B00081608093B00080917A008460809309
:101110007A0080917A00826080937A0080917A00D0
:10112000816080937A0080917A00806880937A0051
:101130001092C1000E946D014B015C0178EEC72E38
:1011400073E0D72EE12CF12C0E946D01681979090A
:101150008A099B09683E734081059105A8F321E047
:10116000C21AD108E108F10888EE880E83E0981EC3
:10117000A11CB11CC114D104E104F10429F7E091D0
:101180001102F091120282E08083E0910D02F09151
:101190000E021082E0910F02F091100280E1808334
:1011A00010921902E0911502F091160286E08083F8
:1011B000E0911302F0911402808180618083E091BC
:1011C0001302F0911402808188608083E091130201
:1011D000F0911402808180688083E0911302F09185
:1011E000140280818F7D80831092CF021092CE02F4
:1011F0001092CD021092CC021092CB021092CA0231
:101200008DE991E09093D1028093D0029091C00239
:10121000963108F047C02DEB30E03093CB0220939D
:10122000CA022BE931E03093CD022093CC022CE2AC
:1012300031E03093CF022093CE022091680084E009
:10124000983048F031E09E3008F430E081E001C091
:10125000880F3A95EAF7822B809368002DE630E0FC
:10126000983050F02BE630E09E3030F02CE630E045
:10127000963110F030E020E03093C8022093C7028E
:10128000292F30E0983008F078C081E001C0880F45
:101290009A95EAF78093C9028091D0029091D10289
:1012A0000197F1F78091CE029091CF02892B49F1FD
:1012B000E091E001F091E10122E0E43BF20709F165
:1012C000309739F0A389B4899C91858980958923C9
:1012D0008C938091D2028E7F8093D2021092DF0194
:1012E0001092DE0184EB92E09093E1018093E001A3
:1012F000E091C702F091C80280819091C902892BC8
:10130000808361E082E00E943C0161E083E00E9412
:101310003C018091A4029091A50297FD08C061E074
:101320000E943C0160E08091A4020E940E0181E0D5
:1013300080939F026091A602613491F12091A702EF
:101340003091A802615031F170E08FEF90E40E947B
:101350007B10F9014091A2025091A302CF01821BA0
:10136000930B84179507C8F44081469FC001479F9F
:10137000900D112490833196EDCF9E3040F428508B
:10138000310981E001C0880F2A95EAF783CF2E50FA
:101390003109F7CF70E060E0DCCF81E48093A602F2
:1013A00060E07FEF80E090E00E948D000E9492015B
:1013B00060E086E00E943C0160E087E00E943C0122
:1013C00060E088E00E943C0160E089E00E943C010E
:1013D0008091E2019091E3010E945F040E94650206
:1013E0006093F4017093F5018093F6019093F701F7
:1013F00081E092E00E940103892B09F44BC060E672
:1014000071E0CE0107960E94B9050E94C10297FDC6
:101410001EC08A309105D9F089831A820B851C85FC
:101420000F5F1F4FB801CE0107960E946605882303
:1014300061F32F8138858B859C85BE016F5F7F4F5F
:10144000820F931F0E94AB121C870B87DECFCF80C9
:10145000D884C114D10439F00B851C85760101159F
:10146000110509F07DC16EE371E0CE0107960E947F
:101470005105882309F4AAC10E9465026093F40112
:101480007093F5018093F6019093F701CE010796D2
:101490000E94A20402E111E038EE232E31E0332E47
:1014A0007101F80180810E5F1F4F8E3008F08E5061
:1014B0008770806480937C0080917A008064809340
:1014C0007A0080917A0086FDFCCF6091780070915F
:1014D0007900072E000C880B990B0E94050E2AE05C
:1014E00038E240EA5BE30E94640E20E030E048EC22
:1014F00052E40E94640E0E943B10F70161937193C5
:101500007F018AE191E08017910759F600E011E030
:10151000F12CE12CF80181918F01882359F1F70119
:10152000EE0FFF1FE65FFE4F208131813327F90167
:10153000EE58FF4F8491F901E255FF4FD490F90125
:10154000E656FF4FC490CC2079F081110E94E5004F
:10155000EC2DF0E0EE0FFF1FEA57FF4FA591B4917D
:10156000EC91DE2281E009F480E0F701EC51FE4FBE
:1015700081708083FFEFEF1AFF0A24E0E216F10486
:1015800009F0C8CF0E9465020091F0011091F101AD
:101590002091F2013091F301601B710B820B930BD0
:1015A000643671058105910508F4A0C00E946502AA
:1015B0006093F0017093F1018093F2019093F30135
:1015C0006BE771E081E092E00E94B50410E000E07A
:1015D000F101619171911F01072E000C880B990B8D
:1015E0000E94050E20E030E048EC52E40E94C90F52
:1015F0006B017C014B015C01AC019B010E947610E8
:101600006EE771E081111BC026013701E89477F87D
:101610002FEF3FEF4FE75FE7C301B2010E94761063
:10162000811103C22FEF3FEF4FE75FE7C301B20124
:101630000E94FE0D18160CF0F8C162E871E081E01E
:1016400092E00E94B5040330110531F06AE871E0C0
:1016500081E092E00E94B5040F5F1F4F0430110536
:1016600009F0B6CF6CE871E081E092E00E94B50429
:1016700084EEE82E81E0F82E10E000E0F7016191A1
:101680007F0170E090E080E00E940A0503301105C0
:1016900031F06AE871E081E092E00E94B5040F5FEA
:1016A0001F4F0430110551F760E971E081E092E0CD
:1016B0000E94B5046091E2017091E301072E000CD5
:1016C000880B990B0E940A0567E971E081E092E0BE
:1016D0000E94B5046AE270E080E090E00E940A0592
:1016E0006EE571E081E092E00E94B5040E9465021F
:1016F0000091F4011091F5012091F6013091F7016C
:10170000601B710B820B930B693B7B40810591053C
:10171000C8F060E070E0CB010E948D000E94920151
:1017200083B7817F846083BF83B7816083BFF89470
:1017300085B7806685BF8F7D85BF7894889583B790
:101740008E7F83BF80E090E0892B09F451CE0E9408
:101750000D03882309F44CCE0E94000049CE750188
:1017600057018FEFA81AB80AF7018081082E000CE4
:10177000990B0E94F50D892B91F7015011090C0D61
:101780001D1DF8018081082E000C990B0E94F50D9B
:10179000892B31F00E151F0518F001501109F1CFFA
:1017A0000F5F1F4FA8014E195F095C874B87CE144E
:1017B000DF0420F4B701C6010E949912EF81F88579
:1017C0008B859C85E80FF91F10824DCE61E971E091
:1017D000CE0101960E94B905BE016F5F7F4FCE0119
:1017E00007960E943605182FCE0101960E94A2048A
:1017F0001123E1F02B853C8545E050E0BE01695F97
:101800007F4FCE0101960E94CA05CE0101960E942B
:10181000AA046B017093E3016093E201CE0101968B
:101820000E94A204C6010E945F0430CE63E471E00E
:10183000CE0101960E94B905BE016F5F7F4FCE01B8
:1018400007960E943605182FCE0101960E94A20429
:10185000112309F451C025E030E044E050E0BE011E
:10186000695F7F4FCE0101960E94CA05CE010196A5
:101870000E94AA046B01CE0101960E94A2042B854E
:101880003C8546E050E0BE01695F7F4FCE01019686
:101890000E94CA05F4E0CF16D104B0F468E471E008
:1018A000CE0101960E945105882399F0F601E0507F
:1018B000FF4F21E02083F601EE0FFF1FE65FFE4F92
:1018C00060E080810E943C01CE0101960E94A2044A
:1018D000DDCD6BE471E0CE0101960E9451058823B5
:1018E00099F3F601E050FF4F1082F601EE0FFF1F53
:1018F000E65FFE4F61E0E5CF6FE471E0CE01019657
:101900000E94B905BE016F5F7F4FCE0107960E940E
:101910003605182FCE0101960E94A204112309F466
:1019200040C028E030E047E050E0BE01695F7F4FF3
:10193000CE0101960E94CA05CE0101960E94AA041A
:101940006B01CE0101960E94A2042B853C8549E0E3
:1019500050E0BE01695F7F4FCE0101960E94CA052B
:10196000CE0101960E94AA044B01CE0101960E946D
:10197000A20484E0C816D10408F088CDF601E05036
:10198000FF4F8081811182CD61E0892809F460E0F8
:10199000F601EE0FFF1FE65FFE4F80810E940E01F1
:1019A00075CD67E571E0CE0101960E94B905BE01D3
:1019B0006F5F7F4FCE0107960E943605182FCE012C
:1019C00001960E94A2041123D1F02B853C8546E0AC
:1019D00050E0BE01695F7F4FCE0101960E94CA05AB
:1019E0004D815E8169817A8184EB92E00E9471026F
:1019F0006EE571E084EB92E00E94B50465CF61E68C
:101A000071E0CE0107960E945105882309F43ECD6E
:101A10006DE671E081E092E00E94B5046EE571E050
:101A200081E092E00E94B50431CD2FEF3FEF4FE708
:101A30005FE4C701B6010E94711018161CF466E835
:101A400071E0FDCD2FEF3FEF4FE75FECC701B6012F
:101A50000E94FE0D87FDF3CF20E030E0A901C70111
:101A6000B6010E94FE0D87FF0BC06DE281E092E09F
:101A70000E94430346015701B7FAB094B7F8B094F7
:101A80002AE037ED43EA5BE3C501B4010E945D0F34
:101A90004B015C010E9442106B017C010E94030E0D
:101AA0009B01AC01C501B4010E945C0F4B015C01BC
:101AB0004AE0C701B6010E94C4046EE281E092E0F0
:101AC0000E94430320E030E040E251E4C501B4014C
:101AD0000E94640E4B015C010E9442106B01F12CCC
:101AE000E12C4AE0C701B6010E94C404C701B60157
:101AF0000E94030E9B01AC01C501B4010E945C0F62
:101B000020E030E040E251E40E94640E0E94421066
:101B100090E080E04AE00E94C40495CD8091A70245
:101B20009091A8020E9453118091A4029091A50265
:101B300097FD03C060E00E943C0180E391E0909338
:101B4000B5028093B4028091E0019091E101845B41
:101B5000924071F4E091C702F091C80290818091A7
:101B6000C9028095892380831092E1011092E001DF
:101B700008951F93FC0199278827BC01E8941191CF
:101B80001032E9F3193010F01E30C8F31B3251F057
:101B90001D3249F4689406C00E94E00D610F711D6A
:101BA000811D911D119110531A30B0F33EF49095A0
:101BB0008095709561957F4F8F4F9F4F1F9108952E
:101BC000592F482F372F262F660F771F881F991FF1
:101BD000660F771F881F991F620F731F841F951F41
:101BE000660F771F881F991F089591110C94D10ECD
:101BF000803219F089508550C8F708950E94400E30
:101C000008F481E00895E89409C097FB3EF49095AC
:101C10008095709561957F4F8F4F9F4F9923A9F0C5
:101C2000F92F96E9BB279395F69587957795679554
:101C3000B795F111F8CFFAF4BB0F11F460FF1BC098
:101C40006F5F7F4F8F4F9F4F16C0882311F096E92B
:101C500011C0772321F09EE8872F762F05C06623D9
:101C600071F096E8862F70E060E02AF09A95660F92
:101C7000771F881FDAF7880F9695879597F908954B
:101C8000990F0008550FAA0BE0E8FEEF161617068D
:101C9000E807F907C0F012161306E407F50798F0F5
:101CA000621B730B840B950B39F40A2661F0232B0E
:101CB000242B252B21F408950A2609F4A140A6958A
:101CC0008FEF811D811D08950E94770E0C94EB0EFD
:101CD0000E94DD0E38F00E94E40E20F0952311F0F2
:101CE0000C94D40E0C94DA0E11240C941F0F0E9445
:101CF000FC0E70F3959FC1F3950F50E0551F629F46
:101D0000F001729FBB27F00DB11D639FAA27F00D54
:101D1000B11DAA1F649F6627B00DA11D661F829F7B
:101D20002227B00DA11D621F739FB00DA11D621F60
:101D3000839FA00D611D221F749F3327A00D611D7D
:101D4000231F849F600D211D822F762F6A2F11245F
:101D50009F5750409AF0F1F088234AF0EE0FFF1F92
:101D6000BB1F661F771F881F91505040A9F79E3FE9
:101D7000510580F00C94D40E0C941F0F5F3FE4F3D8
:101D8000983ED4F3869577956795B795F795E7953F
:101D90009F5FC1F7FE2B880F911D9695879597F948
:101DA000089599278827089597F99F6780E870E03C
:101DB00060E008959FEF80EC089500240A941616C1
:101DC000170618060906089500240A941216130629
:101DD000140605060895092E0394000C11F48823B7
:101DE00052F0BB0F40F4BF2B11F460FF04C06F5FD3
:101DF0007F4F8F4F9F4F089557FD9058440F551FA9
:101E000059F05F3F71F04795880F97FB991F61F07C
:101E10009F3F79F087950895121613061406551FF3
:101E2000F2CF4695F1DF08C0161617061806991F5F
:101E3000F1CF86957105610508940895E894BB2754
:101E400066277727CB0197F908952F923F924F92FB
:101E50005F926F927F928F929F92AF92BF92CF923A
:101E6000DF92EF92FF920F931F93CF93DF93CDB743
:101E7000DEB7CA1BDB0B0FB6F894DEBF0FBECDBFBB
:101E800009942A88398848885F846E847D848C848C
:101E90009B84AA84B984C884DF80EE80FD800C8195
:101EA0001B81AA81B981CE0FD11D0FB6F894DEBF78
:101EB0000FBECDBFED0108955058BB27AA270E9441
:101EC000740F0C94EB0E0E94DD0E38F00E94E40EAD
:101ED00020F039F49F3F19F426F40C94DA0E0EF436
:101EE000E095E7FB0C94D40EE92F0E94FC0E58F30A
:101EF000BA17620773078407950720F079F4A6F5EF
:101F00000C941E0F0EF4E0950B2EBA2FA02D0B0192
:101F1000B90190010C01CA01A0011124FF27591B2E
:101F200099F0593F50F4503E68F11A16F040A22F34
:101F3000232F342F4427585FF3CF469537952795A5
:101F4000A795F0405395C9F77EF41F16BA0B620BA4
:101F5000730B840BBAF09150A1F0FF0FBB1F661FEB
:101F6000771F881FC2F70EC0BA0F621F731F841F2E
:101F700048F4879577956795B795F7959E3F08F054
:101F8000B0CF9395880F08F09927EE0F9795879516
:101F900008950E94DD0F0C94EB0E0E94E40E58F0A1
:101FA0000E94DD0E40F029F45F3F29F00C94D40E1E
:101FB00051110C941F0F0C94DA0E0E94FC0E68F362
:101FC0009923B1F3552391F3951B550BBB27AA27F2
:101FD00062177307840738F09F5F5F4F220F331F2C
:101FE000441FAA1FA9F335D00E2E3AF0E0E832D0F4
:101FF00091505040E695001CCAF72BD0FE2F29D0F7
:10200000660F771F881FBB1F261737074807AB07C8
:10201000B0E809F0BB0B802DBF01FF2793585F4F3D
:102020003AF09E3F510578F00C94D40E0C941F0F9B
:102030005F3FE4F3983ED4F3869577956795B7951F
:10204000F7959F5FC9F7880F911D9695879597F92A
:102050000895E1E0660F771F881FBB1F62177307A3
:102060008407BA0720F0621B730B840BBA0BEE1FB8
:1020700088F7E09508950E9442106894B1110C947D
:102080001F0F08950E94040F88F09F5798F0B92FF2
:102090009927B751B0F0E1F0660F771F881F991F9D
:1020A0001AF0BA95C9F714C0B13091F00E941E0F12
:1020B000B1E008950C941E0F672F782F8827B85F22
:1020C00039F0B93FCCF3869577956795B395D9F7F5
:1020D0003EF490958095709561957F4F8F4F9F4FFF
:1020E00008950E94400E08F48FEF08950E94400E5C
:1020F000880B990B0895AA1BBB1B51E107C0AA1FAF
:10210000BB1FA617B70710F0A61BB70B881F991F98
:102110005A95A9F780959095BC01CD010895A1E24B
:102120001A2EAA1BBB1BFD010DC0AA1FBB1FEE1F51
:10213000FF1FA217B307E407F50720F0A21BB30B9C
:10214000E40BF50B661F771F881F991F1A9469F718
:1021500060957095809590959B01AC01BD01CF0174
:102160000895EE0FFF1F0590F491E02D09940F9351
:102170001F93CF93DF938230910510F482E090E0BB
:10218000E091D502F091D60230E020E0B0E0A0E08E
:10219000309799F42115310509F44AC0281B390BF1
:1021A00024303105D8F58A819B816115710589F14B
:1021B000FB0193838283FE0111C040815181028122
:1021C000138148175907E0F04817590799F41097F9
:1021D00061F012960C93129713961C933296CF01CE
:1021E000DF91CF911F910F9108950093D502109325
:1021F000D602F4CF2115310551F04217530738F0BC
:10220000A901DB019A01BD01DF01F801C1CFEF0196
:10221000F9CF9093D6028093D502CDCFFE01E20F85
:10222000F31F819391932250310939832883D7CFAB
:102230002091D3023091D402232B41F42091060146
:10224000309107013093D4022093D30220910401EE
:10225000309105012115310541F42DB73EB740916C
:10226000080150910901241B350BE091D302F09134
:10227000D402E217F307A0F42E1B3F0B28173907EF
:1022800078F0AC014E5F5F4F2417350748F04E0FD2
:102290005F1F5093D4024093D302819391939FCFB9
:1022A000F0E0E0E09CCFCF93DF930097E9F0FC01F2
:1022B000329713821282A091D502B091D602ED011D
:1022C00030E020E01097A1F420813181820F931F2C
:1022D0002091D3023091D4022817390709F061C048
:1022E000F093D402E093D302DF91CF910895EA01F5
:1022F000CE17DF07E8F54A815B819E014115510544
:10230000B1F7E901FB83EA8349915991C40FD51FC5
:10231000EC17FD0761F4808191810296840F951F6F
:10232000E90199838883828193819B838A83F0E08A
:10233000E0E012968D919C9113970097B9F52D913D
:102340003C911197CD010296820F931F2091D302E9
:102350003091D4022817390739F6309751F5109289
:10236000D6021092D502B093D402A093D302BCCF70
:10237000D383C28340815181840F951FC817D90729
:1023800061F44E5F5F4F88819981480F591F5183D7
:1023900040838A819B81938382832115310509F0D3
:1023A000B0CFF093D602E093D5029ECFFD01DC01C1
:1023B000C0CF13821282D7CFB0E0A0E0E2EEF1E10D
:1023C0000C94270F8C01009751F4CB010E94B71099
:1023D0008C01C801CDB7DEB7E0E10C94430FFC01DE
:1023E000E60FF71F9C0122503109E217F30708F4AA
:1023F0009DC0D901CD91DC911197C617D70798F0F0
:10240000C530D10530F3CE0104978617970708F33E
:10241000C61BD70B2297C193D1936D937C93CF01A9
:102420000E945311D6CF5B01AC1ABD0A4C018C0E31
:102430009D1EA091D502B091D602512C412CF12CB9
:10244000E12C109731F58091D3029091D402881538
:10245000990509F05CC04616570608F058C08091EF
:10246000040190910501009741F48DB79EB740910A
:10247000080150910901841B950BE817F90708F032
:1024800055C0F093D402E093D302F90171836083C5
:10249000A0CF8D919C91119712966C9012971396E4
:1024A0007C901397A815B90559F56C0142E0C40E4C
:1024B000D11CCA14DB0420F1AC014A195B09DA0112
:1024C0001296159780F06282738251834083D901FE
:1024D0006D937C93E114F10471F0D7011396FC9392
:1024E000EE93129776CF22968C0F9D1FF901918360
:1024F0008083F301EFCFF093D602E093D50269CF4A
:102500004816590608F42C017D01D3019ACFCB015E
:102510000E94B7107C01009749F0AE01B8010E94FB
:102520009912C8010E945311870153CF10E000E0B7
:1025300050CFFB01DC0102C001900D924150504090
:10254000D8F70895FB01DC018D91019080190110ED
:10255000D9F3990B0895FB01DC0101900D92002045
:10256000E1F70895FB01DC014150504030F08D91BE
:102570000190801919F40020B9F7881B990B089570
:1025800010E0C2E6D0E004C0FE010E94B110219626
:0A259000C336D107C9F7F894FFCF56
:10259A00010101010000D7028000060007000800BF
:1025AA0009000E000F001000110000000000430394
:1025BA0071029E0290030103AD02F30200000000C3
:1025CA00C90371025C04C80325043B04B0035049E3
:1025DA004E470044494F3A00494E004F5554004473
:1025EA0057524954453A0052533438353A000D0A85
:1025FA00004745545F56455253494F4E005645527F
:10260A0053494F4E3A312E322E3300413A006E6111
:10261A006E00696E66006F7666002C007C443A0094
:0E262A007C6D6F64653A007C414444523A0076
:00000001FF
