:100000000C9463000C942E070C9407070C94C407FF
:100010000C94C4070C94C4070C94AD070C948B008B
:100020000C948B000C948B000C948B000C948B0024
:100030000C948B000C948B000C948B000C948B0014
:100040000C94BD060C948B000C947B070C94550704
:100050000C948B000C948B000C948B000C948B00F4
:100060000C948B000C948B000000000024002700EF
:100070002A0000000008000201000003040700003D
:1000800000000000000000000000230026002900FE
:1000900000000000250028002B00040404040404D0
:1000A0000404020202020202030303030303010227
:1000B00004081020408001020408102001020408F6
:1000C00010203C088B0E11241FBECFEFD8E0DEBFFE
:1000D000CDBF22E0AAE8B1E001C01D92A33CB20767
:1000E000E1F711E0A0E0B1E0E2EAF7E202C005903A
:1000F0000D92AA38B107D9F710E0C2E6D0E004C0EB
:100100002197FE010E94AE11C136D107C9F70E94A6
:1001100046090C94C4130C94000020918C02309179
:100120008D02232B81F190919202992361F0899F96
:1001300090011124832F969FB0011124672F949F63
:10014000A0011124452FE091980220919302309153
:10015000940290919502E91721F0E20FF32FF11D1F
:100160001082E0919502E20FF32FF11D8083E09160
:100170009602E20FF32FF11D608380919702280F02
:10018000311DF90140830895833081F028F48130D6
:1001900099F08230A9F008958730A9F08830C9F02D
:1001A0008430B1F4809180008F7D03C08091800005
:1001B0008F7780938000089584B58F7784BD0895EC
:1001C00084B58F7DFBCF8091B0008F778093B00096
:1001D00008958091B0008F7DF9CFCF93DF93282FC2
:1001E00030E0F901EE58FF4F8491F901E255FF4FDD
:1001F000D491F901E656FF4FC491CC23A1F08111AF
:100200000E94C400EC2FF0E0EE0FFF1FEA57FF4FF3
:10021000A591B491EC91ED2381E090E009F480E0A8
:10022000DF91CF91089580E090E0FACF1F93CF93B4
:10023000DF93282F30E0F901EE58FF4F8491F90148
:10024000E255FF4FD491F901E656FF4FC491CC23FC
:10025000A9F0162F81110E94C400EC2FF0E0EE0FE0
:10026000FF1FE057FF4FA591B4918FB7F894EC9121
:10027000111108C0D095DE23DC938FBFDF91CF91A1
:100280001F910895DE2BF8CFCF93DF9390E0FC0110
:10029000E255FF4F249186569F4FFC01849188239D
:1002A000C9F090E0880F991FFC01E859FF4FA59114
:1002B000B491FC01E057FF4FC591D49161110DC07D
:1002C0009FB7F8948C91209582238C938881282362
:1002D00028839FBFDF91CF910895623051F49FB77B
:1002E000F8943C91822F809583238C93E8812E2B68
:1002F000EFCF8FB7F894EC912E2B2C938FBFEACFD2
:100300008E3008F08E508770806480937C008091DE
:100310007A00806480937A0080917A0086FDFCCF19
:10032000809178009091790008953FB7F89480917A
:10033000E5019091E601A091E701B091E80126B5B1
:10034000A89B05C02F3F19F00196A11DB11D3FBF0D
:10035000BA2FA92F982F8827BC01CD01620F711DDC
:10036000811D911D42E0660F771F881F991F4A95D6
:10037000D1F708950F931F93CF93DF93CDB7DEB7D7
:1003800029970FB6F894DEBF0FBECDBF0E9495012E
:100390000091990210919A0220919B0230919C0247
:1003A000601771078207930740F460939902709376
:1003B0009A0280939B0290939C0200919902109163
:1003C0009A0220919B0230919C02601B710B820B60
:1003D000930B6C32714081059105C0F2F8948091C5
:1003E0008E0290918F029A838983E0919302F0911B
:1003F0009402DF0111968081898790918A02E091B1
:100400009D02F0919E0280919F02992309F445C0BC
:100410009081982B98879081809589238F838F81F5
:100420008C8388E08B8358856F8149853B812C8143
:1004300089819A81508347FD252F3A952083262F65
:1004400039F0441F00C000006083000000C0F2CFFC
:1004500038E04D9160830000019761F7F0939E02B0
:10046000E0939D0249873B832C839A838983789408
:100470000E9495016093990270939A0280939B0267
:1004800090939C0229960FB6F894DEBF0FBECDBFA5
:10049000DF91CF911F910F9108959081982B9887AC
:1004A0009081809589238F838F818E8388E08D83CF
:1004B00058856F8149853D812E8189819A8150833C
:1004C00047FD252F00C000C0208300C000C000C031
:1004D00000C000C060830000262F3A9541F0441F01
:1004E000000000C000C000C000C000C0E8CF38E07D
:1004F0004D9100C0608300C0019709F7F0939E0200
:10050000E0939D0249873D832E83AFCF8F929F92C8
:10051000AF92BF92CF92DF92EF92FF924B015C01BC
:100520000E9495016B017C010E9495016C197D0967
:100530008E099F09683E734081059105A8F321E06B
:10054000821A9108A108B10888EEC80E83E0D81E6F
:10055000E11CF11C81149104A104B10429F7FF905E
:10056000EF90DF90CF90BF90AF909F908F900895C5
:1005700081E08093E30108950895AF92BF92CF92F6
:10058000DF92EF92FF920F931F93CF93DF936C0153
:100590007B018B01040F151FEB015E01AE18BF0834
:1005A000C017D10759F06991D601ED91FC910190E6
:1005B000F081E02DC6010995892B79F7C501DF91FE
:1005C000CF911F910F91FF90EF90DF90CF90BF9050
:1005D000AF900895FC01538D448D252F30E0842F7A
:1005E00090E0821B930B541710F0CF96089501975B
:1005F0000895FC01918D828D981761F0A28DAE0F48
:10060000BF2FB11D5D968C91928D9F5F9F73928FCE
:1006100090E008958FEF9FEF08952FB7F8948091A1
:10062000E9019091EA01A091EB01B091EC012FBF9B
:100630008093F5019093F601A093F701B093F80130
:100640008DEE91E00E94F90297FF26C02FB7F89433
:100650008091E9019091EA01A091EB01B091EC0148
:100660002FBF4091F5015091F6016091F701709113
:10067000F801841B950BA60BB70B4091F10150912B
:10068000F2016091F3017091F40184179507A607B8
:10069000B707B0F28FEF9FEF0895FC01918D828D27
:1006A000981731F0828DE80FF11D858D90E0089547
:1006B0008FEF9FEF0895FC01918D228D892F90E09F
:1006C000805C9F4F821B91098F73992708958DEE4F
:1006D00091E00E945B0321E0892B09F420E0822F46
:1006E000089580E090E0892B29F00E946703811132
:1006F0000C9400000895FC01A48DA80FB92FB11D22
:10070000A35ABF4F2C91848D90E001968F73992747
:10071000848FA689B7892C93A089B1898C91837025
:1007200080648C93938D848D981306C00288F3891E
:10073000E02D80818F7D80830895EF92FF920F934B
:100740001F93CF93DF93EC0181E0888F9B8D8C8D7D
:1007500098131AC0E889F989808185FF15C09FB771
:10076000F894EE89FF896083E889F9898081837034
:10077000806480839FBF81E090E0DF91CF911F91E3
:100780000F91FF90EF900895F62E0B8D10E00F5F04
:100790001F4F0F731127E02E8C8D8E110CC00FB6DA
:1007A00007FCFACFE889F989808185FFF5CFCE0172
:1007B0000E947B03F1CFEB8DEC0FFD2FF11DE35A6F
:1007C000FF4FF0829FB7F8940B8FEA89FB898081F5
:1007D0008062CFCFCF93DF93EC01888D8823B9F06F
:1007E000AA89BB89E889F9898C9185FD03C080813C
:1007F00086FD0DC00FB607FCF7CF8C9185FFF2CFB9
:10080000808185FFEDCFCE010E947B03E9CFDF9190
:10081000CF9108954115510529F4EAE7F0E0808170
:100820008F7780836A307105B9F0CB01880F991FEB
:10083000880F991F807267706860682B88E10FB617
:10084000F894A895809360000FBE60936000E0E686
:10085000F0E0808180648083232BD9F483B7817F8B
:10086000846083BFF89483B7816083BF85B7806657
:1008700085BF8F7D85BF7894889583B78E7F83BF32
:100880007894452B29F4EAE7F0E080818068808342
:10089000089583B7817F846083BFF89483B78160B4
:1008A00083BF7894889583B78E7F83BF7894E9CF90
:1008B0002091CC013091CD012817390771F4909126
:1008C000CA018091CB01981741F0E091CA01F0E094
:1008D000E657FE4F808190E008958FEF9FEF0895D7
:1008E0000895EF92FF920F931F93CF93DF93DC0154
:1008F0005C96ED90FC905D97E114F10479F481E051
:1009000090E013969C938E93129790E080E0DF9195
:10091000CF911F910F91FF90EF9008955196ED9117
:10092000FC91529750968C915097982F90950FB7B5
:100930005E962C915E97122F127021FD6095F894AF
:100940002081112319F1282B2083E7012197F1F74A
:1009500028E0462F50E0308160FF1AC0382B3083EA
:10096000E7012197F1F7BA0175956795215089F74D
:10097000112381F08081892380830FBF5C968D9144
:100980009C910197F1F781E090E0C1CF2923DCCF62
:100990003923E5CF9081892BEFCF2091CC01309185
:1009A000CD012817390761F48091CB012091CA014C
:1009B00090E0805C9F4F821B91098F739927089567
:1009C00090E080E008952091CC013091CD0128176E
:1009D0003907B9F49091CA018091CB01981789F039
:1009E000E091CA01F0E0E657FE4F80812091CA01F4
:1009F00030E02F5F3F4F2F7333272093CA0190E0E1
:100A000008958FEF9FEF089590E080E00895813082
:100A10009105F9F01CF4892B39F008958230910585
:100A200021F1039769F1089560E082E00E941601C8
:100A300060E083E00E9416014FEF60E080E00E94DA
:100A40008D008091930290919402892B19F10C945E
:100A5000BA0161E082E00E94160160E083E00E943A
:100A6000160140E060E08FEFEACF60E082E00E9494
:100A7000160161E083E00E94160140E06FEFF3CFC2
:100A800061E082E00E94160161E083E00E941601AD
:100A90004FEFF4CF0895FC0180819181009711F010
:100AA0000C9450120895FC0180819181009711F0FF
:100AB0000C94B60E60E070E0CB010895FB0101904C
:100AC0000020E9F73197AF01461B570BDC01ED9190
:100AD000FC910280F381E02D09948F929F92AF9256
:100AE000BF920F931F93CF93DF93CDB7DEB7A1973C
:100AF0000FB6F894DEBF0FBECDBF19A2423008F486
:100B00004AE08E010F5D1F4F842E912CB12CA12C39
:100B1000A50194010E948C11E62FB901CA01EA30A7
:100B200004F5E05DD801EE938D01232B242B252BBA
:100B300079F790E080E0109729F0BD018DEE91E00B
:100B40000E945E05A1960FB6F894DEBF0FBECDBF22
:100B5000DF91CF911F910F91BF90AF909F908F9099
:100B60000895E95CDFCFCF92DF92EF92FF92CF93AF
:100B7000DF9397FF1BC06B017C016DE28DEE91E06E
:100B80000E949D03EC0166277727CB016C197D0934
:100B90008E099F094AE00E946D058C0F9D1FDF9111
:100BA000CF91FF90EF90DF90CF9008954AE0DF91D2
:100BB000CF91FF90EF90DF90CF900C946D05FB01EB
:100BC00044815581FC01248135812417350778F053
:100BD00080819181009759F0FB01608171816115DD
:100BE000710529F00E94B61321E0892B09F020E05D
:100BF000822F08950F931F93CF93DF93EC01888189
:100C00009981009759F02A813B812617370730F0E8
:100C100081E0DF91CF911F910F9108958B016F5F5C
:100C20007F4F0E94D912009759F0998388831B83C4
:100C30000A832C813D81232B59F7FC011082E8CFD8
:100C400080E0E7CFEF92FF920F931F93CF93DF9354
:100C5000EC017B018A01BA010E94FA0528813981E1
:100C6000811114C02115310519F0C9010E945012DB
:100C7000198218821D821C821B821A82CE01DF918A
:100C8000CF911F910F91FF90EF9008951D830C83DA
:100C9000B701C9010E94AF13F1CFFC01118210828C
:100CA0001382128215821482FB0101900020E9F761
:100CB0003197AF01461B570B0C942206AF92BF929F
:100CC000CF92DF92EF92FF920F931F93CF93DF9318
:100CD000EC016B015A0179012417350720F48B2DA3
:100CE0005901E42EF82E6FE571E0CE010E944D0609
:100CF000D60114960D911C91A016B10628F5E016A8
:100D0000F10608F48701D601ED91FC911197E00FEF
:100D1000F11FF08010826D917C916A0D7B1D611531
:100D20007105F1F0FB0101900020E9F73197AF0167
:100D3000461B570BCE010E942206F601808191814D
:100D4000080F191FD801FC92CE01DF91CF911F919E
:100D50000F91FF90EF90DF90CF90BF90AF900895EC
:100D600088819981009711F00E945012198218828F
:100D70001D821C821B821A82E0CF1F920F920FB637
:100D80000F9211242F933F938F939F93AF93BF9311
:100D90008091E9019091EA01A091EB01B091EC0101
:100DA0003091E40123E0230F2D3758F50196A11D62
:100DB000B11D2093E4018093E9019093EA01A0938F
:100DC000EB01B093EC018091E5019091E601A091D7
:100DD000E701B091E8010196A11DB11D8093E501E5
:100DE0009093E601A093E701B093E801BF91AF9122
:100DF0009F918F913F912F910F900FBE0F901F9059
:100E0000189526E8230F0296A11DB11DD2CF1F927F
:100E10000F920FB60F9211242F933F934F935F932E
:100E20006F937F938F939F93AF93BF93EF93FF93B2
:100E3000E0910201F09103010995FF91EF91BF91BB
:100E4000AF919F918F917F916F915F914F913F9162
:100E50002F910F900FBE0F901F9018951F920F9219
:100E60000FB60F9211242F933F934F935F936F937D
:100E70007F938F939F93AF93BF93EF93FF93E091F3
:100E80000001F09101010995FF91EF91BF91AF91A0
:100E90009F918F917F916F915F914F913F912F9192
:100EA0000F900FBE0F901F9018951F920F920FB6C4
:100EB0000F9211242F933F934F935F936F937F93E0
:100EC0008F939F93AF93BF93EF93FF938DEE91E03A
:100ED0000E947B03FF91EF91BF91AF919F918F9102
:100EE0007F916F915F914F913F912F910F900FBE26
:100EF0000F901F9018951F920F920FB60F9211240A
:100F00002F938F939F93EF93FF93E091FD01F091C7
:100F1000FE018081E0910302F091040282FD1BC07A
:100F20009081809106028F5F8F7320910702821754
:100F300041F0E0910602F0E0E351FE4F958F80937F
:100F40000602FF91EF919F918F912F910F900FBE0D
:100F50000F901F9018958081F4CF1F920F920FB6BB
:100F60000F9211248F930FB6F894A895809160008A
:100F7000886180936000109260000FBE8F910F9087
:100F80000FBE0F901F9018951F920F920FB60F92E1
:100F900011242F933F934F935F936F937F938F937E
:100FA0009F93AF93BF93EF93FF93E091CC01F091A8
:100FB000CD01309749F0A685B7858585968D91FF3F
:100FC00014C09C918923A1F4FF91EF91BF91AF913F
:100FD0009F918F917F916F915F914F913F912F9151
:100FE0000F900FBE0F901F9018959C91892361F769
:100FF000A389B4899C918589809589238C9386895E
:1010000097890197F1F7608D718DA685B785558514
:1010100038E020E0CB010197F1F7822F90E0959521
:101020008795282F4C91452309F02068315091F77E
:10103000868D81FD20958091CB0190E001968F7384
:1010400099273091CA01381799F0A091CB01B0E0EF
:10105000A657BE4F2C938093CB01828D938D019721
:10106000F1F7A389B4898C919589892B8C93ACCFA6
:10107000868D8160868FF1CF1092F0011092EF0182
:1010800088EE93E0A0E0B0E08093F1019093F2014C
:10109000A093F301B093F40122E231E03093EE012A
:1010A0002093ED0125EC30E03093FA012093F90113
:1010B00024EC30E03093FC012093FB0120EC30E085
:1010C0003093FE012093FD0121EC30E030930002CB
:1010D0002093FF0122EC30E03093020220930102C2
:1010E00026EC30E0309304022093030210920602B3
:1010F0001092070210920802109209021092A302A5
:101100001092A2028093A4029093A502A093A6023B
:10111000B093A70284E391E09093A1028093A00290
:101120001092B7021092B6021092B9021092B80251
:101130001092BB021092BA021092BD021092BC0231
:101140006091BE026E7F6D7F6093BE026695617096
:1011500081E0682784E00E94160161E084E00E943B
:101160004401E2EBF0E0E491E093B002EEE9F0E05C
:10117000E491F0E0EE0FFF1FE057FF4F859194914F
:101180009093B2028093B10260E085E00E94440136
:101190008091BE0281FD04C061E085E00E941601DD
:1011A00085E08093AC02E3EBF0E0E491E093AD02E4
:1011B000EFE9F0E0E491F0E0EE0FFF1FEA57FF4F98
:1011C000859194919093AF028093AE0210928B021E
:1011D000109292021092990210929A0210929B021F
:1011E00010929C0281E08093980280939502109265
:1011F000960292E09093970280938A0283E090E0B7
:1012000090938F0280938E020E94B4119093940267
:1012100080939302009789F123E0FC0111922A95B3
:10122000E9F781E090E090938D0280938C028BE04F
:1012300090E0909391028093900280918B0288239A
:1012400041F061E08BE00E94440160E08BE00E948D
:101250001601E5EAF0E0E491F0E0EE0FFF1FE05741
:10126000FF4F8591949190939E0280939D02E9EBAC
:10127000F0E0E491E0939F02089510928F021092A3
:101280008E0210928D0210928C02D1CFCF93DF93F9
:10129000CDB7DEB72E970FB6F894DEBF0FBECDBF29
:1012A000789484B5826084BD84B5816084BD85B541
:1012B000826085BD85B5816085BD80916E0081604D
:1012C00080936E00109281008091810082608093F3
:1012D00081008091810081608093810080918000F5
:1012E0008160809380008091B10084608093B10020
:1012F0008091B00081608093B00080917A0084601A
:1013000080937A0080917A00826080937A00809145
:101310007A00816080937A0080917A00806880935F
:101320007A001092C100E091FD01F091FE0182E08F
:101330008083E091F901F091FA011082E091FB01C4
:10134000F091FC0180E1808310920502E09101029E
:10135000F091020286E08083E091FF01F0910002AB
:10136000808180618083E091FF01F09100028081A3
:1013700088608083E091FF01F091000280818068A5
:101380008083E091FF01F091000280818F7D808356
:101390001092BB021092BA021092B9021092B802D7
:1013A0001092B7021092B6028DE991E09093BD02BF
:1013B0008093BC029091AC02963108F047C02DEBAF
:1013C00030E03093B7022093B6022BE931E030933E
:1013D000B9022093B8022CE231E03093BB02209393
:1013E000BA022091680084E0983048F031E09E30E5
:1013F00008F430E081E001C0880F3A95EAF7822BCB
:10140000809368002DE630E0983050F02BE630E015
:101410009E3030F02CE630E0963110F030E020E0E5
:101420003093B4022093B302292F30E0983008F0B3
:101430007CC081E001C0880F9A95EAF78093B502DD
:101440008091BC029091BD020197F1F78091BA02A0
:101450009091BB02892B49F1E091CC01F091CD0133
:1014600082E0E03AF80709F1309739F0A389B489AE
:101470009C918589809589238C938091BE028E7F73
:101480008093BE021092CB011092CA0180EA92E0D2
:101490009093CD018093CC01E091B302F091B4021E
:1014A00080819091B502892B808361E082E00E9467
:1014B000440161E083E00E94440162E08AE00E940E
:1014C0004401809190029091910297FD08C061E0E3
:1014D0000E94440160E0809190020E94160181E028
:1014E00080938B0260919202623091F1209193027D
:1014F00030919402615031F170E08FEF91E00E94E1
:101500007811F90140918E0250918F02CF01821B18
:10151000930B84179507C8F44081469FC001479FED
:10152000900D112490833196EDCF9E3040F42850D9
:10153000310981E001C0880F2A95EAF77FCF2E504C
:101540003109F7CF70E060E0DCCF82E08093920257
:101550008091E0019091E1010E94070560E086E042
:101560000E94440160E087E00E94440160E088E05E
:101570000E94440160E089E00E94440153E0252E6E
:10158000312C8AE00E94ED00892BB9F51092E3011D
:1015900062E370E080E090E00E9486028AE00E94B0
:1015A000ED00892B51F540918E0250918F0270E031
:1015B00060E080919302909194020E949F13809129
:1015C000930290919402892B11F00E94BA0130E0AD
:1015D00020E050E040E06AE070E082EE91E00E949E
:1015E0000A0464E670E080E090E00E948602809148
:1015F000E0019091E1010E9407058DEE91E00E94CB
:101600005B03892B09F468C06FE571E0CE01079692
:101610000E944D060E940D0397FD1EC08A30910561
:10162000D9F089831A820B851C850F5F1F4FB80183
:10163000CE0107960E94FA05882361F32F81388531
:101640008B859C85BE016F5F7F4F820F931F0E9429
:10165000AF131C870B87DECFAF80B884A114B10411
:1016600039F00B851C8575010115110509F09FC125
:1016700066E771E0CE0101960E944D06BE016F5FE4
:101680007F4FCE0107960E94DF05182FCE010196ED
:101690000E944B05112309F4C0C12B853C8545E010
:1016A00050E0BE01695F7F4FCE0101960E945E0649
:1016B000CE0101960E9453056B017093E101609386
:1016C000E001CE0101960E944B05C6010E9407056C
:1016D000CE0107960E944B0506E111E0E4EDF1E032
:1016E000FE87ED877F01F80180810E5F1F4F0E940A
:1016F0008001BC01990F880B990B0E94020F2AE010
:1017000038E240EA5BE30E94610F20E030E048EC01
:1017100052E40E94610F0E943811F70161937193A6
:101720007F018EE191E080179107E9F604E011E076
:10173000F12CE12CF80181918F01882381F0F701D0
:10174000EE0FFF1FE25FFE4F80810E94ED00F70168
:10175000E053FE4F21E0892B09F420E02083FFEFC6
:10176000EF1AFF0A84E0E816F10421F784E10E94F1
:1017700080018C0185E10E948001BC01990F880BDA
:10178000990B0E94020F2AE038E240EA5BE30E94D4
:10179000610F4B015C01B801110F880B990B0E947E
:1017A000020F2AE038E240EA5BE30E94610F20E08A
:1017B00030E040E250E40E946E1120E030E040E270
:1017C00050E418160CF41EC2C501B4010E946E113B
:1017D00018160CF410C2E1E0F0E0F093CF01E093B2
:1017E000CE012FB7F8948091E9019091EA01A09180
:1017F000EB01B091EC012FBF4091DC015091DD0174
:101800006091DE017091DF01841B950BA60BB70B75
:1018100084369105A105B10508F4BBC02FB7F89433
:101820008091E9019091EA01A091EB01B091EC0166
:101830002FBF8093DC019093DD01A093DE01B09374
:10184000DF0160E671E08DEE91E00E945E0510E040
:1018500000E0ED85FE8561917191FE87ED87072E91
:10186000000C880B990B0E94020F20E030E048EC3E
:1018700052E40E94C6106B017C014B015C01AC017B
:101880009B010E94731163E671E081111BC0260168
:101890003701E89477F82FEF3FEF4FE75FE7C30199
:1018A000B2010E9473118111BDC12FEF3FEF4FE7CD
:1018B0005FE7C301B2010E94FB0E18160CF0B2C123
:1018C00067E671E08DEE91E00E945E050330110540
:1018D00031F06FE671E08DEE91E00E945E050F5FE2
:1018E0001F4F0430110509F0B4CF61E771E08DEEB0
:1018F00091E00E945E0580EDE82E81E0F82E10E078
:1019000000E0F70161917F0170E090E080E00E94CB
:10191000B3050330110531F06FE671E08DEE91E013
:101920000E945E050F5F1F4F0430110551F765E7F8
:1019300071E08DEE91E00E945E056091E001709192
:10194000E101072E000C880B990B0E94B3056CE790
:1019500071E08DEE91E00E945E056AE270E080E049
:1019600090E00E94B30563E871E08DEE91E00E9483
:101970005E056091CE017091CF01072E000C880B9F
:10198000990B0E94B3056DE571E08DEE91E00E9428
:101990005E0580E090E0892B09F4F3CD0E94670397
:1019A000882309F4EECD0E940000EBCD760167019B
:1019B0009FEFC91AD90AF7018081082E000C990BF4
:1019C0000E94F20E892B91F7015011090A0D1B1D7F
:1019D000F8018081082E000C990B0E94F20E892BD1
:1019E00031F00E151F0518F001501109F1CF0F5FEE
:1019F0001F4FA8014E195F095C874B87AE14BF04C7
:101A000020F4B701C5010E949613EF81F8858B85FC
:101A10009C85E80FF91F10822BCE62E471E0CE01A5
:101A200001960E944D06BE016F5F7F4FCE01079663
:101A30000E94DF05182FCE0101960E944B0511234D
:101A400009F455C025E030E044E050E0BE01695F94
:101A50007F4FCE0101960E945E06CE0101960E9444
:101A600053056B01CE0101960E944B052B853C85E9
:101A700046E050E0BE01695F7F4FCE0101960E94B3
:101A80005E06F4E0CF16D104D8F48D819E81892BB7
:101A9000B9F009811A8167E471E0C8010E94A613B8
:101AA000892B99F4F601EC5FFE4F81E08083F6010B
:101AB000EE0FFF1FE25FFE4F60E080810E94440155
:101AC000CE0101960E944B0503CE6AE471E0C80185
:101AD0000E94A613892BA1F7F601EC5FFE4F10823E
:101AE000F601EE0FFF1FE25FFE4F61E0E6CF6EE40E
:101AF00071E0CE0101960E944D06BE016F5F7F4FDF
:101B0000CE0107960E94DF05182FCE0101960E9494
:101B10004B05112309F440C028E030E047E050E0D5
:101B2000BE01695F7F4FCE0101960E945E06CE0125
:101B300001960E9453054B01CE0101960E944B0570
:101B40002B853C8549E050E0BE01695F7F4FCE01A7
:101B500001960E945E06CE0101960E9453056B011C
:101B6000CE0101960E944B0594E08916910408F07D
:101B7000AFCDF401EC5FFE4F80818111A9CD61E012
:101B8000CD2809F460E0F401EE0FFF1FE25FFE4F85
:101B900080810E9416019CCD66E571E0CE01019620
:101BA0000E944D06BE016F5F7F4FCE0107960E94D7
:101BB000DF05182FCE0101960E944B05112309F471
:101BC00087CD2B853C8546E050E0BE01695F7F4FA5
:101BD000CE0101960E945E064D815E8169817A8107
:101BE00080EA92E00E94BD026DE571E080EA92E039
:101BF0000E945E0565CF82E090E09093CF018093D4
:101C0000CE01EFCDC501B4010E946E1118162CF063
:101C10003092CF012092CE01E4CDF092CF01E0923C
:101C2000CE01DFCD2FEF3FEF4FE75FE4C701B601F5
:101C30000E946E1118161CF46BE671E043CE2FEF74
:101C40003FEF4FE75FECC701B6010E94FB0E87FD37
:101C5000F3CF20E030E0A901C701B6010E94FB0EDE
:101C600087FF0BC06DE28DEE91E00E949D0346015F
:101C70005701B7FAB094B7F8B0942AE037ED43EAC9
:101C80005BE3C501B4010E945A104B015C010E9444
:101C90003F116B017C010E94000F9B01AC01C5014B
:101CA000B4010E9459104B015C014AE0C701B60122
:101CB0000E946D056EE28DEE91E00E949D0320E092
:101CC00030E040E251E4C501B4010E94610F4B01D4
:101CD0005C010E943F116B01F12CE12C4AE0C7012D
:101CE000B6010E946D05C701B6010E94000F9B015D
:101CF000AC01C501B4010E94591020E030E040E27F
:101D000051E40E94610F0E943F1190E080E04AE0A0
:101D10000E946D05DBCD80919302909194020E9408
:101D20005012809190029091910297FD03C060E063
:101D30000E94440184E391E09093A1028093A00269
:101D40008091CC019091CD01805A924071F4E09144
:101D5000B302F091B40290818091B50280958923FD
:101D600080831092CD011092CC0108951F93FC0145
:101D700099278827BC01E89411911032E9F31930B2
:101D800010F01E30C8F31B3251F01D3249F4689434
:101D900006C00E94DD0E610F711D811D911D119104
:101DA00010531A30B0F33EF490958095709561957C
:101DB0007F4F8F4F9F4F1F910895592F482F372FD7
:101DC000262F660F771F881F991F660F771F881FA2
:101DD000991F620F731F841F951F660F771F881F3F
:101DE000991F089591110C94CE0F803219F08950EB
:101DF0008550C8F708950E943D0F08F481E00895CA
:101E0000E89409C097FB3EF4909580957095619594
:101E10007F4F8F4F9F4F9923A9F0F92F96E9BB274A
:101E20009395F695879577956795B795F111F8CFC6
:101E3000FAF4BB0F11F460FF1BC06F5F7F4F8F4F31
:101E40009F4F16C0882311F096E911C0772321F027
:101E50009EE8872F762F05C0662371F096E8862FBF
:101E600070E060E02AF09A95660F771F881FDAF716
:101E7000880F9695879597F90895990F0008550F43
:101E8000AA0BE0E8FEEF16161706E807F907C0F000
:101E900012161306E407F50798F0621B730B840B08
:101EA000950B39F40A2661F0232B242B252B21F4E2
:101EB00008950A2609F4A140A6958FEF811D811D82
:101EC00008950E94740F0C94E80F0E94DA0F38F006
:101ED0000E94E10F20F0952311F00C94D10F0C9487
:101EE000D70F11240C941C100E94F90F70F3959FCA
:101EF000C1F3950F50E0551F629FF001729FBB2701
:101F0000F00DB11D639FAA27F00DB11DAA1F649F9C
:101F10006627B00DA11D661F829F2227B00DA11D4F
:101F2000621F739FB00DA11D621F839FA00D611DD5
:101F3000221F749F3327A00D611D231F849F600DF6
:101F4000211D822F762F6A2F11249F5750409AF01F
:101F5000F1F088234AF0EE0FFF1FBB1F661F771FAB
:101F6000881F91505040A9F79E3F510580F00C9476
:101F7000D10F0C941C105F3FE4F3983ED4F3869588
:101F800077956795B795F795E7959F5FC1F7FE2B16
:101F9000880F911D9695879597F908959927882719
:101FA000089597F99F6780E870E060E008959FEFDB
:101FB00080EC089500240A941616170618060906E0
:101FC000089500240A9412161306140605060895AF
:101FD000092E0394000C11F4882352F0BB0F40F437
:101FE000BF2B11F460FF04C06F5F7F4F8F4F9F4F77
:101FF000089557FD9058440F551F59F05F3F71F0F9
:102000004795880F97FB991F61F09F3F79F087955F
:102010000895121613061406551FF2CF4695F1DFE8
:1020200008C0161617061806991FF1CF8695710578
:10203000610508940895E894BB2766277727CB01AC
:1020400097F908952F923F924F925F926F927F92ED
:102050008F929F92AF92BF92CF92DF92EF92FF92B8
:102060000F931F93CF93DF93CDB7DEB7CA1BDB0B64
:102070000FB6F894DEBF0FBECDBF09942A88398809
:1020800048885F846E847D848C849B84AA84B98410
:10209000C884DF80EE80FD800C811B81AA81B9811C
:1020A000CE0FD11D0FB6F894DEBF0FBECDBFED0130
:1020B00008955058BB27AA270E9471100C94E80F6E
:1020C0000E94DA0F38F00E94E10F20F039F49F3FB0
:1020D00019F426F40C94D70F0EF4E095E7FB0C945A
:1020E000D10FE92F0E94F90F58F3BA17620773074F
:1020F0008407950720F079F4A6F50C941B100EF4D4
:10210000E0950B2EBA2FA02D0B01B90190010C0107
:10211000CA01A0011124FF27591B99F0593F50F41F
:10212000503E68F11A16F040A22F232F342F442777
:10213000585FF3CF469537952795A795F04053956F
:10214000C9F77EF41F16BA0B620B730B840BBAF03F
:102150009150A1F0FF0FBB1F661F771F881FC2F7AA
:102160000EC0BA0F621F731F841F48F487957795BE
:102170006795B795F7959E3F08F0B0CF9395880F78
:1021800008F09927EE0F9795879508950E94DA1029
:102190000C94E80F0E94E10F58F00E94DA0F40F013
:1021A00029F45F3F29F00C94D10F51110C941C10AD
:1021B0000C94D70F0E94F90F68F39923B1F35523BC
:1021C00091F3951B550BBB27AA276217730784074A
:1021D00038F09F5F5F4F220F331F441FAA1FA9F3E0
:1021E00035D00E2E3AF0E0E832D091505040E695CE
:1021F000001CCAF72BD0FE2F29D0660F771F881F2F
:10220000BB1F261737074807AB07B0E809F0BB0B21
:10221000802DBF01FF2793585F4F3AF09E3F510535
:1022200078F00C94D10F0C941C105F3FE4F3983EAF
:10223000D4F3869577956795B795F7959F5FC9F71E
:10224000880F911D9695879597F90895E1E0660F9F
:10225000771F881FBB1F621773078407BA0720F018
:10226000621B730B840BBA0BEE1F88F7E095089581
:102270000E943F116894B1110C941C1008950E94A3
:10228000011088F09F5798F0B92F9927B751B0F0F7
:10229000E1F0660F771F881F991F1AF0BA95C9F7EA
:1022A00014C0B13091F00E941B10B1E008950C945D
:1022B0001B10672F782F8827B85F39F0B93FCCF310
:1022C000869577956795B395D9F73EF49095809567
:1022D000709561957F4F8F4F9F4F08950E943D0FDE
:1022E00008F48FEF08950E943D0F880B990B089515
:1022F000AA1BBB1B51E107C0AA1FBB1FA617B7072C
:1023000010F0A61BB70B881F991F5A95A9F7809547
:102310009095BC01CD010895A1E21A2EAA1BBB1B0A
:10232000FD010DC0AA1FBB1FEE1FFF1FA217B307A1
:10233000E407F50720F0A21BB30BE40BF50B661FB7
:10234000771F881F991F1A9469F76095709580957B
:1023500090959B01AC01BD01CF010895EE0FFF1FC9
:102360000590F491E02D09940F931F93CF93DF9381
:102370008230910510F482E090E0E091C102F0918A
:10238000C20230E020E0B0E0A0E0309799F42115DF
:10239000310509F44AC0281B390B24303105D8F522
:1023A0008A819B816115710589F1FB019383828389
:1023B000FE0111C0408151810281138148175907E4
:1023C000E0F04817590799F4109761F012960C93B2
:1023D000129713961C933296CF01DF91CF911F91E4
:1023E0000F9108950093C1021093C202F4CF2115FA
:1023F000310551F04217530738F0A901DB019A016A
:10240000BD01DF01F801C1CFEF01F9CF9093C20206
:102410008093C102CDCFFE01E20FF31F8193919310
:102420002250310939832883D7CF2091BF023091C0
:10243000C002232B41F420910A0130910B0130930B
:10244000C0022093BF02209108013091090121159B
:10245000310541F42DB73EB740910C0150910D016B
:10246000241B350BE091BF02F091C002E217F30785
:10247000A0F42E1B3F0B2817390778F0AC014E5FF4
:102480005F4F2417350748F04E0F5F1F5093C0026F
:102490004093BF02819391939FCFF0E0E0E09CCF07
:1024A000CF93DF930097E9F0FC01329713821282F9
:1024B000A091C102B091C202ED0130E020E010977E
:1024C000A1F420813181820F931F2091BF023091AE
:1024D000C0022817390709F061C0F093C002E093E9
:1024E000BF02DF91CF910895EA01CE17DF07E8F52B
:1024F0004A815B819E0141155105B1F7E901FB83DA
:10250000EA8349915991C40FD51FEC17FD0761F477
:10251000808191810296840F951FE90199838883B8
:10252000828193819B838A83F0E0E0E012968D9113
:102530009C9113970097B9F52D913C911197CD017E
:102540000296820F931F2091BF023091C00228177C
:10255000390739F6309751F51092C2021092C10234
:10256000B093C002A093BF02BCCFD383C28340818B
:102570005181840F951FC817D90761F44E5F5F4FD3
:1025800088819981480F591F518340838A819B819B
:10259000938382832115310509F0B0CFF093C202F5
:1025A000E093C1029ECFFD01DC01C0CF13821282F5
:1025B000D7CFB0E0A0E0EFEDF2E10C9424108C0155
:1025C000009751F4CB010E94B4118C01C801CDB722
:1025D000DEB7E0E10C944010FC01E60FF71F9C0110
:1025E00022503109E217F30708F49DC0D901CD91BB
:1025F000DC911197C617D70798F0C530D10530F395
:10260000CE0104978617970708F3C61BD70B2297AE
:10261000C193D1936D937C93CF010E945012D6CF7A
:102620005B01AC1ABD0A4C018C0E9D1EA091C1022B
:10263000B091C202512C412CF12CE12C109731F5B4
:102640008091BF029091C0028815990509F05CC085
:102650004616570608F058C080910801909109016C
:10266000009741F48DB79EB740910C0150910D0138
:10267000841B950BE817F90708F055C0F093C002CA
:10268000E093BF02F90171836083A0CF8D919C918B
:10269000119712966C90129713967C901397A81529
:1026A000B90559F56C0142E0C40ED11CCA14DB0413
:1026B00020F1AC014A195B09DA011296159780F0F6
:1026C0006282738251834083D9016D937C93E114BC
:1026D000F10471F0D7011396FC93EE93129776CF25
:1026E00022968C0F9D1FF90191838083F301EFCF18
:1026F000F093C202E093C10269CF4816590608F46C
:102700002C017D01D3019ACFCB010E94B4117C0131
:10271000009749F0AE01B8010E949613C8010E94CB
:102720005012870153CF10E000E050CFFB01DC01D5
:1027300002C001900D9241505040D8F70895DC013D
:1027400001C06D9341505040E0F70895FB01DC015A
:102750008D91019080190110D9F3990B0895FB0117
:10276000DC0101900D920020E1F70895FB01DC01EE
:102770004150504030F08D910190801919F40020A3
:10278000B9F7881B990B089510E0C2E6D0E004C0A9
:10279000FE010E94AE112196C336D107C9F7F89405
:0227A000FFCF69
:1027A200BC02BC02010101010000C302800006005C
:1027B2000700080009000E000F00100011000000C1
:1027C20000009D03BD02EA02EA035B03F9024D0326
:1027D200000000007104BD0204057004CD04E3048E
:1027E200580444494F3A00494E004F55540044574B
:1027F200524954453A0052533438353A000D0A00D2
:10280200413A006E616E00696E66006F7666002C5A
:10281200007C443A007C4D4F44453A007C4144449C
:0A282200523A007C4143433A0000A3
:00000001FF
