:100000000C9463000C948B000C948B000C94B80639
:100010000C94B8060C94B8060C948B000C948B00CE
:100020000C948B000C948B000C948B000C948B0024
:100030000C948B000C948B000C948B000C948B0014
:100040000C9416060C948B000C9486060C94600697
:100050000C948B000C948B000C948B000C948B00F4
:100060000C948B000C948B000000000024002700EF
:100070002A0000000008000201000003040700003D
:1000800000000000000000000000230026002900FE
:1000900000000000250028002B00040404040404D0
:1000A0000404020202020202030303030303010227
:1000B00004081020408001020408102001020408F6
:1000C00010203007390D11241FBECFEFD8E0DEBF5E
:1000D000CDBF22E0A0E8B1E001C01D92A53BB20770
:1000E000E1F711E0A0E0B1E0E0EFF4E202C005903A
:1000F0000D92A038B107D9F710E0C2E6D0E004C0F5
:100100002197FE010E945C10C136D107C9F70E94F9
:100110003A080C946B120C9400008F929F92AF924D
:10012000BF92CF92DF92EF92FF9220917E023091A8
:100130007F02232B09F440C04C01AA24BB24C72E04
:10014000D82EE92EFF24BC2DA62F20918402482D05
:10015000222391F0A22FB0E0A89DF001A99DF00DFF
:10016000B89DF00D11244F2F2C9D60011124BD2D41
:10017000269FC0011124A92FE0918A028091850257
:100180009091860220918702E21721F0E80FF92F63
:10019000F11D1082E0918702E80FF92FF11D4083D5
:1001A000E0918802E80FF92FF11DB08320918902B8
:1001B000820F911DFC01A083FF90EF90DF90CF9004
:1001C000BF90AF909F908F900895833081F028F476
:1001D000813099F08230A9F008958730A9F08830F5
:1001E000C9F08430B1F4809180008F7D03C080918C
:1001F00080008F7780938000089584B58F7784BDC9
:10020000089584B58F7DFBCF8091B0008F77809368
:10021000B00008958091B0008F7DF9CF1F93CF93E8
:10022000DF93282F30E0F901EE58FF4F8491F90158
:10023000E255FF4FD491F901E656FF4FC491CC230C
:10024000A9F0162F81110E94E500EC2FF0E0EE0FCF
:10025000FF1FE057FF4FA591B4918FB7F894EC9131
:10026000111108C0D095DE23DC938FBFDF91CF91B1
:100270001F910895DE2BF8CFCF93DF9390E0FC0120
:10028000E255FF4F249186569F4FFC0184918823AD
:10029000D1F090E0880F991FFC01E859FF4FA5911C
:1002A000B491FC01E057FF4FC591D49161110EC08C
:1002B0009FB7F8948C91E22FE0958E238C93288140
:1002C000E223E8839FBFDF91CF9108958FB7F89421
:1002D000EC91E22BEC938FBFF6CF3FB7F89480916F
:1002E000D7019091D801A091D901B091DA0126B53A
:1002F000A89B05C02F3F19F00196A11DB11D3FBF5E
:10030000BA2FA92F982F8827BC01CD01620F711D2C
:10031000811D911D42E0660F771F881F991F4A9526
:10032000D1F708950F931F93CF93DF93CDB7DEB727
:1003300029970FB6F894DEBF0FBECDBF0E946D01A6
:1003400000918B0210918C0220918D0230918E02CF
:10035000601771078207930740F460938B027093D4
:100360008C0280938D0290938E0200918B021091EB
:100370008C0220918D0230918E02601B710B820BDA
:10038000930B6C32714081059105C0F2F894809115
:100390008002909181029A838983E0918502F09195
:1003A0008602DF0111968081898790917C02E0911D
:1003B0008F02F091900280919102992309F445C037
:1003C0009081982B98879081809589238F838F8146
:1003D0008C8388E08B8358856F8149853B812C8194
:1003E00089819A81508347FD252F3A952083262FB6
:1003F00039F0441F00C000006083000000C0F2CF4D
:1004000038E04D9160830000019761F7F09390020E
:10041000E0938F0249873B832C839A838983789466
:100420000E946D0160938B0270938C0280938D0209
:1004300090938E0229960FB6F894DEBF0FBECDBF03
:10044000DF91CF911F910F9108959081982B9887FC
:100450009081809589238F838F818E8388E08D831F
:1004600058856F8149853D812E8189819A8150838C
:1004700047FD252F00C000C0208300C000C000C081
:1004800000C000C060830000262F3A9541F0441F51
:10049000000000C000C000C000C000C0E8CF38E0CD
:1004A0004D9100C0608300C0019709F7F09390025E
:1004B000E0938F0249873D832E83AFCFAF92BF92E7
:1004C000CF92DF92EF92FF920F931F93CF93DF9320
:1004D0006C017B018B01040F151FEB015E01AE184F
:1004E000BF08C017D10759F06991D601ED91FC9171
:1004F0000190F081E02DC6010995892B79F7C5019E
:10050000DF91CF911F910F91FF90EF90DF90CF90EF
:10051000BF90AF900895FC01538D448D252F30E09E
:10052000842F90E0821B930B541710F0CF96089500
:1005300001970895FC01918D828D981761F0A28D2D
:10054000AE0FBF2FB11D5D968C91928D9F5F9F73F3
:10055000928F90E008958FEF9FEF08952FB7F89452
:100560008091DB019091DC01A091DD01B091DE0171
:100570002FBF8093E7019093E801A093E901B09326
:10058000EA018FED91E00E949A0297FF26C02FB7F3
:10059000F8948091DB019091DC01A091DD01B09194
:1005A000DE012FBF4091E7015091E8016091E90120
:1005B0007091EA01841B950BA60BB70B4091E301E8
:1005C0005091E4016091E5017091E601841795076F
:1005D000A607B707B0F28FEF9FEF0895FC01918D4A
:1005E000828D981731F0828DE80FF11D858D90E096
:1005F00008958FEF9FEF0895FC01918D228D892F33
:1006000090E0805C9F4F821B91098F73992708951A
:100610008FED91E00E94FC0221E0892B09F420E09B
:10062000822F089580E090E0892B29F00E94080332
:1006300081110C9400000895FC01A48DA80FB92F1E
:10064000B11DA35ABF4F2C91848D90E001968F73FA
:100650009927848FA689B7892C93A089B1898C9119
:10066000837080648C93938D848D981306C0028868
:10067000F389E02D80818F7D80830895EF92FF9232
:100680000F931F93CF93DF93EC0181E0888F9B8DB5
:100690008C8D98131AC0E889F989808185FF15C06F
:1006A0009FB7F894EE89FF896083E889F989808192
:1006B0008370806480839FBF81E090E0DF91CF9161
:1006C0001F910F91FF90EF900895F62E0B8D10E083
:1006D0000F5F1F4F0F731127E02E8C8D8E110CC0F2
:1006E0000FB607FCFACFE889F989808185FFF5CF3D
:1006F000CE010E941C03F1CFEB8DEC0FFD2FF11DFD
:10070000E35AFF4FF0829FB7F8940B8FEA89FB8979
:1007100080818062CFCFCF93DF93EC01888D8823D7
:10072000B9F0AA89BB89E889F9898C9185FD03C054
:10073000808186FD0DC00FB607FCF7CF8C9185FF39
:10074000F2CF808185FFEDCFCE010E941C03E9CF5F
:10075000DF91CF9108952091C2013091C3012817F4
:10076000390771F49091C0018091C101981741F04F
:10077000E091C001F0E0E058FE4F808190E00895E4
:100780008FEF9FEF08950895EF92FF920F931F93BD
:10079000CF93DF93DC015C96ED90FC905D97E114C4
:1007A000F10479F481E090E013969C938E93129774
:1007B00090E080E0DF91CF911F910F91FF90EF903B
:1007C00008955196ED91FC91529750968C915097C7
:1007D000982F90950FB75E962C915E97122F1270FE
:1007E00021FD6095F8942081112319F1282B208395
:1007F000E7012197F1F728E0462F50E0308160FFB4
:100800001AC0382B3083E7012197F1F7BA017595AB
:100810006795215089F7112381F080818923808396
:100820000FBF5C968D919C910197F1F781E090E06C
:10083000C1CF2923DCCF3923E5CF9081892BEFCF9E
:100840002091C2013091C3012817390761F48091CA
:10085000C1012091C00190E0805C9F4F821B9109F3
:100860008F739927089590E080E008952091C20148
:100870003091C30128173907B9F49091C0018091D4
:10088000C101981789F0E091C001F0E0E058FE4FF7
:1008900080812091C00130E02F5F3F4F2F733327BD
:1008A0002093C00190E008958FEF9FEF089590E0AE
:1008B00080E0089581309105F9F01CF4892B39F01E
:1008C00008958230910529F1039781F1089560E040
:1008D00082E00E940E0160E083E00E940E0160E869
:1008E00070E0CB010E948D0080918502909186027C
:1008F000892B49F10C94920161E082E00E940E0183
:1009000060E083E00E940E0160E070E08FEF90E015
:10091000E9CF60E082E00E940E0161E083E00E9486
:100920000E0160E07FEF8FEF90E0DCCF61E082E0CE
:100930000E940E0161E083E00E940E0160E07FEF03
:1009400080E090E0CFCF0895FC01808191810097F5
:1009500011F00C94FE100895FC01808191810097A4
:1009600011F00C94640D60E070E0CB010895FB0180
:1009700001900020E9F73197AF01461B570BDC01CE
:10098000ED91FC910280F381E02D09948F929F926A
:10099000AF92BF920F931F93CF93DF93CDB7DEB784
:1009A000A1970FB6F894DEBF0FBECDBF19A242309B
:1009B00008F44AE08E010F5D1F4F842E912CB12C5C
:1009C000A12CA50194010E943A10E62FB901CA0199
:1009D000EA3004F5E05DD801EE938D01232B242B42
:1009E000252B79F790E080E0109729F0BD018FED7D
:1009F00091E00E94B704A1960FB6F894DEBF0FBE37
:100A0000CDBFDF91CF911F910F91BF90AF909F907D
:100A10008F900895E95CDFCFCF92DF92EF92FF9243
:100A2000CF93DF9397FF1BC06B017C016DE28FEDCD
:100A300091E00E943E03EC0166277727CB016C19F9
:100A40007D098E099F094AE00E94C6048C0F9D1FF4
:100A5000DF91CF91FF90EF90DF90CF9008954AE023
:100A6000DF91CF91FF90EF90DF90CF900C94C60470
:100A7000FB0144815581FC01248135812417350710
:100A800078F080819181009759F0FB01608171813C
:100A90006115710529F00E945D1221E0892B09F092
:100AA00020E0822F08950F931F93CF93DF93EC01E3
:100AB00088819981009759F02A813B812617370751
:100AC00030F081E0DF91CF911F910F9108958B015C
:100AD0006F5F7F4F0E948711009759F09983888339
:100AE0001B830A832C813D81232B59F7FC01108243
:100AF000E8CF80E0E7CFEF92FF920F931F93CF9361
:100B0000DF93EC017B018A01BA010E945305288121
:100B10003981811114C02115310519F0C9010E94D4
:100B2000FE10198218821D821C821B821A82CE013D
:100B3000DF91CF911F910F91FF90EF9008951D834A
:100B40000C83B701C9010E945612F1CFFC0111823A
:100B500010821382128215821482FB010190002000
:100B6000E9F73197AF01461B570B0C947B05AF9209
:100B7000BF92CF92DF92EF92FF920F931F93CF938A
:100B8000DF93EC016B015A0179012417350720F43A
:100B90008B2D5901E42EF82E6BE571E0CE010E94F9
:100BA000A605D60114960D911C91A016B10628F544
:100BB000E016F10608F48701D601ED91FC9111973A
:100BC000E00FF11FF08010826D917C916A0D7B1D0A
:100BD00061157105F1F0FB0101900020E9F73197F3
:100BE000AF01461B570BCE010E947B05F6018081A9
:100BF0009181080F191FD801FC92CE01DF91CF918E
:100C00001F910F91FF90EF90DF90CF90BF90AF902A
:100C1000089588819981009711F00E94FE10198231
:100C200018821D821C821B821A82E0CF1F920F92B3
:100C30000FB60F9211242F933F938F939F93AF93EF
:100C4000BF938091DB019091DC01A091DD01B09117
:100C5000DE013091D60123E0230F2D3758F50196A0
:100C6000A11DB11D2093D6018093DB019093DC017F
:100C7000A093DD01B093DE018091D7019091D8015E
:100C8000A091D901B091DA010196A11DB11D809307
:100C9000D7019093D801A093D901B093DA01BF9105
:100CA000AF919F918F913F912F910F900FBE0F9019
:100CB0001F90189526E8230F0296A11DB11DD2CFD3
:100CC0001F920F920FB60F9211242F933F934F93C1
:100CD0005F936F937F938F939F93AF93BF93EF93A4
:100CE000FF938FED91E00E941C03FF91EF91BF9164
:100CF000AF919F918F917F916F915F914F913F91B4
:100D00002F910F900FBE0F901F9018951F920F926A
:100D10000FB60F9211242F938F939F93EF93FF930E
:100D2000E091EF01F091F0018081E091F501F09107
:100D3000F60182FD1BC090818091F8018F5F8F7357
:100D40002091F901821741F0E091F801F0E0E152C1
:100D5000FE4F958F8093F801FF91EF919F918F91B6
:100D60002F910F900FBE0F901F9018958081F4CF98
:100D70001F920F920FB60F9211242F933F934F9310
:100D80005F936F937F938F939F93AF93BF93EF93F3
:100D9000FF93E091C201F091C301309749F0A6851D
:100DA000B7858585968D91FF14C09C918923A1F408
:100DB000FF91EF91BF91AF919F918F917F916F9133
:100DC0005F914F913F912F910F900FBE0F901F9009
:100DD00018959C91892361F7A389B4899C91858991
:100DE000809589238C93868997890197F1F7608D87
:100DF000718DA685B785558538E020E0CB01019738
:100E0000F1F7822F90E095958795282F4C914523F7
:100E100009F02068315091F7868D81FD20958091F1
:100E2000C10190E001968F7399273091C001381766
:100E300099F0A091C101B0E0A058BE4F2C938093CF
:100E4000C101828D938D0197F1F7A389B4898C91AB
:100E50009589892B8C93ACCF868D8160868FF1CF5D
:100E60001092E2011092E10188EE93E0A0E0B0E080
:100E70008093E3019093E401A093E501B093E60130
:100E80002EE131E03093E0012093DF0125EC30E0EA
:100E90003093EC012093EB0124EC30E03093EE0131
:100EA0002093ED0120EC30E03093F0012093EF012E
:100EB00021EC30E03093F2012093F10122EC30E09C
:100EC0003093F4012093F30126EC30E03093F601E7
:100ED0002093F5011092F8011092F9011092FA0195
:100EE0001092FB0110929502109294028093960248
:100EF00090939702A0939802B093990280E391E0B7
:100F000090939302809392021092A9021092A802E9
:100F10001092AB021092AA021092AD021092AC0293
:100F20001092AF021092AE026091B0026E7F6D7FA0
:100F30006093B0026695617081E0682784E00E944A
:100F40000E0161E084E00E943C01E2EBF0E0E491FC
:100F5000E093A202EEE9F0E0E491F0E0EE0FFF1F73
:100F6000E057FF4F859194919093A4028093A30240
:100F700060E085E00E943C018091B00281FD04C0E8
:100F800061E085E00E940E0185E080939E02E3EB24
:100F9000F0E0E491E0939F02EFE9F0E0E491F0E00B
:100FA000EE0FFF1FEA57FF4F859194919093A10296
:100FB0008093A00210927D021092840210928B0204
:100FC00010928C0210928D0210928E0281E080931A
:100FD0008A02809387021092880292E0909389029D
:100FE00080937C0283E090E0909381028093800262
:100FF0000E9462109093860280938502009789F187
:1010000023E0FC0111922A95E9F781E090E09093AA
:101010007F0280937E028BE090E090938302809326
:10102000820280917D02882341F061E08BE00E9482
:101030003C0160E08BE00E940E01E5EAF0E0E49103
:10104000F0E0EE0FFF1FE057FF4F859194919093D2
:10105000900280938F02E9EBF0E0E491E09391023B
:101060000895109281021092800210927F021092D5
:101070007E02D1CFCF93DF93CDB7DEB72C970FB6DB
:10108000F894DEBF0FBECDBF789484B5826084BD76
:1010900084B5816084BD85B5826085BD85B581607C
:1010A00085BD80916E00816080936E0010928100FA
:1010B00080918100826080938100809181008160B5
:1010C0008093810080918000816080938000809176
:1010D000B10084608093B1008091B0008160809302
:1010E000B00080917A00846080937A0080917A00C9
:1010F000826080937A0080917A00816080937A0088
:1011000080917A00806880937A001092C1000E94DA
:101110006D014B015C0178EEC72E73E0D72EE12CF8
:10112000F12C0E946D01681979098A099B09683EB2
:10113000734081059105A8F321E0C21AD108E108A6
:10114000F10888EE880E83E0981EA11CB11CC11422
:10115000D104E104F10429F7E091EF01F091F001ED
:1011600082E08083E091EB01F091EC011082E0914C
:10117000ED01F091EE0180E180831092F701E091A2
:10118000F301F091F40186E08083E091F101F091A8
:10119000F201808180618083E091F101F091F201A0
:1011A000808188608083E091F101F091F20180817B
:1011B00080688083E091F101F091F20180818F7D60
:1011C00080831092AD021092AC021092AB0210928A
:1011D000AA021092A9021092A8028DE991E09093C0
:1011E000AF028093AE0290919E02963108F047C004
:1011F0002DEB30E03093A9022093A8022BE931E0D7
:101200003093AB022093AA022CE231E03093AD027E
:101210002093AC022091680084E0983048F031E0DF
:101220009E3008F430E081E001C0880F3A95EAF77B
:10123000822B809368002DE630E0983050F02BE64A
:1012400030E09E3030F02CE630E0963110F030E0A7
:1012500020E03093A6022093A502292F30E0983099
:1012600008F078C081E001C0880F9A95EAF7809372
:10127000A7028091AE029091AF020197F1F78091A1
:10128000AC029091AD02892B49F1E091C201F0913D
:10129000C30122E0E239F20709F1309739F0A3895E
:1012A000B4899C918589809589238C938091B00223
:1012B0008E7F8093B0021092C1011092C00182E92A
:1012C00092E09093C3018093C201E091A502F09156
:1012D000A60280819091A702892B808361E082E041
:1012E0000E943C0161E083E00E943C018091820207
:1012F0009091830297FD08C061E00E943C0160E08C
:10130000809182020E940E0181E080937D026091B3
:101310008402613491F120918502309186026150FE
:1013200031F170E08FEF90E40E942610F9014091B6
:10133000800250918102CF01821B930B8417950785
:10134000C8F44081469FC001479F900D11249083AF
:101350003196EDCF9E3040F42850310981E001C034
:10136000880F2A95EAF783CF2E503109F7CF70E026
:1013700060E0DCCF81E48093840260E07FEF80E076
:1013800090E00E948D008091850290918602892BC9
:1013900011F00E94920160E086E00E943C0160E052
:1013A00087E00E943C0160E088E00E943C0160E030
:1013B00089E00E943C018091C4019091C5010E9486
:1013C0005A048FED91E00E94FC02892B09F468C059
:1013D0006BE571E0CE0107960E94A6050E94AE0261
:1013E00097FD1EC08A309105D9F089831A820B853A
:1013F0001C850F5F1F4FB801CE0107960E94530551
:10140000882361F32F8138858B859C85BE016F5FB2
:101410007F4F820F931F0E9456121C870B87DECFCF
:10142000CF80D884C114D10439F00B851C85760196
:101430000115110509F080C162E771E0CE01019646
:101440000E94A605BE016F5F7F4FCE0107960E94E6
:101450003805182FCE0101960E94A404112309F427
:10146000A1C12B853C8545E050E0BE01695F7F4FFF
:10147000CE0101960E94B705CE0101960E94AC04F0
:101480006B017093C5016093C401CE0101960E9467
:10149000A404C6010E945A04CE0107960E94A40427
:1014A00002E111E03AEC232E31E0332E7101F80114
:1014B00080810E5F1F4F8E3008F08E5087708064E1
:1014C00080937C0080917A00806480937A00809180
:1014D0007A0086FDFCCF6091780070917900072E2C
:1014E000000C880B990B0E94B00D2AE038E240EA0C
:1014F0005BE30E940F0E20E030E048EC52E40E94D3
:101500000F0E0E94E60FF701619371937F018AE14C
:1015100091E08017910759F600E011E0F12CE12CE1
:10152000F80181918F01882359F1F701EE0FFF1F18
:10153000E65FFE4F208131813327F901EE58FF4FDE
:101540008491F901E255FF4FD490F901E656FF4F1F
:10155000C490CC2079F081110E94E500EC2DF0E0E0
:10156000EE0FFF1FEA57FF4FA591B491EC91DE22D9
:1015700081E009F480E0F701EA53FE4F8170808337
:10158000FFEFEF1AFF0A24E0E216F10409F0C8CFDA
:101590002FB7F8948091DB019091DC01A091DD01DF
:1015A000B091DE012FBF4091D2015091D3016091E3
:1015B000D4017091D501841B950BA60BB70B843613
:1015C0009105A105B10508F4A9C02FB7F894809141
:1015D000DB019091DC01A091DD01B091DE012FBF14
:1015E0008093D2019093D301A093D401B093D501FD
:1015F0006CE571E08FED91E00E94B70410E000E02F
:10160000F101619171911F01072E000C880B990B5C
:101610000E94B00D20E030E048EC52E40E94740FCC
:101620006B017C014B015C01AC019B010E9421100C
:101630006FE571E081111BC026013701E89477F84E
:101640002FEF3FEF4FE75FE7C301B2010E94211088
:10165000811196C12FEF3FEF4FE75FE7C301B20162
:101660000E94A90D18160CF08BC163E671E08FED96
:1016700091E00E94B7040330110531F06BE671E090
:101680008FED91E00E94B7040F5F1F4F04301105EA
:1016900009F0B6CF6DE671E08FED91E00E94B704DE
:1016A00086ECE82E81E0F82E10E000E0F701619171
:1016B0007F0170E090E080E00E940C05033011058E
:1016C00031F06BE671E08FED91E00E94B7040F5F9F
:1016D0001F4F0430110551F761E771E08FED91E084
:1016E0000E94B7046091C4017091C501072E000CDF
:1016F000880B990B0E940C0568E771E08FED91E073
:101700000E94B7046AE270E080E090E00E940C055D
:1017100069E571E08FED91E00E94B70480E090E010
:10172000892B09F44ECE0E940803882309F449CE80
:101730000E94000046CE750157018FEFA81AB80A23
:10174000F7018081082E000C990B0E94A00D892BB7
:1017500091F7015011090C0D1D1DF8018081082E13
:10176000000C990B0E94A00D892B31F00E151F055E
:1017700018F001501109F1CF0F5F1F4FA8014E194A
:101780005F095C874B87CE14DF0420F4B701C601E4
:101790000E944412EF81F8858B859C85E80FF91F24
:1017A00010824ACE6EE371E0CE0101960E94A6053A
:1017B000BE016F5F7F4FCE0107960E943805182F3C
:1017C000CE0101960E94A404112309F455C025E01E
:1017D00030E044E050E0BE01695F7F4FCE010196EA
:1017E0000E94B705CE0101960E94AC046B01CE01A8
:1017F00001960E94A4042B853C8546E050E0BE0182
:10180000695F7F4FCE0101960E94B705F4E0CF16C5
:10181000D104D8F48D819E81892BB9F009811A8178
:1018200063E471E0C8010E944D12892B99F4F6011E
:10183000E050FF4F21E02083F601EE0FFF1FE65F2F
:10184000FE4F60E080810E943C01CE0101960E9423
:10185000A40422CE66E471E0C8010E944D12892BD7
:10186000A1F7F601E050FF4F1082F601EE0FFF1FC7
:10187000E65FFE4F61E0E6CF6AE471E0CE010196DB
:101880000E94A605BE016F5F7F4FCE0107960E94A2
:101890003805182FCE0101960E94A404112309F4E3
:1018A00040C028E030E047E050E0BE01695F7F4F74
:1018B000CE0101960E94B705CE0101960E94AC04AC
:1018C0006B01CE0101960E94A4042B853C8549E062
:1018D00050E0BE01695F7F4FCE0101960E94B705BF
:1018E000CE0101960E94AC044B01CE0101960E94EC
:1018F000A40484E0C816D10408F0CECDF601E0506F
:10190000FF4F80818111C8CD61E0892809F460E032
:10191000F601EE0FFF1FE65FFE4F80810E940E0171
:10192000BBCD62E571E0CE0101960E94A605BE0125
:101930006F5F7F4FCE0107960E943805182FCE01AA
:1019400001960E94A404112309F4A6CD2B853C85A1
:1019500046E050E0BE01695F7F4FCE0101960E94D4
:10196000B7054D815E8169817A8182E992E00E94AA
:101970005E0269E571E082E992E00E94B70465CFFA
:101980002FEF3FEF4FE75FE4C701B6010E941C1045
:1019900018161CF467E671E06ACE2FEF3FEF4FE7B1
:1019A0005FECC701B6010E94A90D87FDF3CF20E0CF
:1019B00030E0A901C701B6010E94A90D87FF0BC045
:1019C0006DE28FED91E00E943E0346015701B7FAA8
:1019D000B094B7F8B0942AE037ED43EA5BE3C50171
:1019E000B4010E94080F4B015C010E94ED0F6B01D6
:1019F0007C010E94AE0D9B01AC01C501B4010E94A7
:101A0000070F4B015C014AE0C701B6010E94C60402
:101A10006EE28FED91E00E943E0320E030E040E274
:101A200051E4C501B4010E940F0E4B015C010E94FC
:101A3000ED0F6B01F12CE12C4AE0C701B6010E94C9
:101A4000C604C701B6010E94AE0D9B01AC01C501E1
:101A5000B4010E94070F20E030E040E251E40E9410
:101A60000F0E0E94ED0F90E080E04AE00E94C60455
:101A700002CE80918502909186020E94FE10809194
:101A800082029091830297FD03C060E00E943C01B6
:101A900080E391E090939302809392028091C2013F
:101AA0009091C3018259924071F4E091A502F091A6
:101AB000A60290818091A70280958923808310924D
:101AC000C3011092C20108951F93FC019927882732
:101AD000BC01E89411911032E9F3193010F01E3076
:101AE000C8F31B3251F01D3249F4689406C00E94BD
:101AF0008B0D610F711D811D911D119110531A30B5
:101B0000B0F33EF490958095709561957F4F8F4F1F
:101B10009F4F1F910895592F482F372F262F660F5B
:101B2000771F881F991F660F771F881F991F620FE5
:101B3000731F841F951F660F771F881F991F0895B5
:101B400091110C947C0E803219F089508550C8F7A1
:101B500008950E94EB0D08F481E00895E89409C00F
:101B600097FB3EF490958095709561957F4F8F4FD0
:101B70009F4F9923A9F0F92F96E9BB279395F695E6
:101B8000879577956795B795F111F8CFFAF4BB0F64
:101B900011F460FF1BC06F5F7F4F8F4F9F4F16C0C8
:101BA000882311F096E911C0772321F09EE8872F52
:101BB000762F05C0662371F096E8862F70E060E00E
:101BC0002AF09A95660F771F881FDAF7880F969587
:101BD000879597F90895990F0008550FAA0BE0E82B
:101BE000FEEF16161706E807F907C0F012161306DF
:101BF000E407F50798F0621B730B840B950B39F41F
:101C00000A2661F0232B242B252B21F408950A2684
:101C100009F4A140A6958FEF811D811D08950E94B2
:101C2000220E0C94960E0E94880E38F00E948F0EA1
:101C300020F0952311F00C947F0E0C94850E112446
:101C40000C94CA0E0E94A70E70F3959FC1F3950FD6
:101C500050E0551F629FF001729FBB27F00DB11D30
:101C6000639FAA27F00DB11DAA1F649F6627B00DC0
:101C7000A11D661F829F2227B00DA11D621F739FA9
:101C8000B00DA11D621F839FA00D611D221F749FB7
:101C90003327A00D611D231F849F600D211D822FFE
:101CA000762F6A2F11249F5750409AF0F1F0882325
:101CB0004AF0EE0FFF1FBB1F661F771F881F915052
:101CC0005040A9F79E3F510580F00C947F0E0C9474
:101CD000CA0E5F3FE4F3983ED4F3869577956795F7
:101CE000B795F795E7959F5FC1F7FE2B880F911D7C
:101CF0009695879597F9089599278827089597F9D4
:101D00009F6780E870E060E008959FEF80EC0895A1
:101D100000240A94161617061806090608950024CA
:101D20000A9412161306140605060895092E039444
:101D3000000C11F4882352F0BB0F40F4BF2B11F4B8
:101D400060FF04C06F5F7F4F8F4F9F4F089557FD17
:101D50009058440F551F59F05F3F71F04795880F19
:101D600097FB991F61F09F3F79F0879508951216B0
:101D700013061406551FF2CF4695F1DF08C016165C
:101D800017061806991FF1CF86957105610508940D
:101D90000895E894BB2766277727CB0197F9089524
:101DA0002F923F924F925F926F927F928F929F926B
:101DB000AF92BF92CF92DF92EF92FF920F931F9359
:101DC000CF93DF93CDB7DEB7CA1BDB0B0FB6F8940A
:101DD000DEBF0FBECDBF09942A88398848885F844A
:101DE0006E847D848C849B84AA84B984C884DF80BB
:101DF000EE80FD800C811B81AA81B981CE0FD11D9F
:101E00000FB6F894DEBF0FBECDBFED010895505858
:101E1000BB27AA270E941F0F0C94960E0E94880EC3
:101E200038F00E948F0E20F039F49F3F19F426F409
:101E30000C94850E0EF4E095E7FB0C947F0EE92FD1
:101E40000E94A70E58F3BA17620773078407950715
:101E500020F079F4A6F50C94C90E0EF4E0950B2E43
:101E6000BA2FA02D0B01B90190010C01CA01A001EC
:101E70001124FF27591B99F0593F50F4503E68F147
:101E80001A16F040A22F232F342F4427585FF3CF88
:101E9000469537952795A795F0405395C9F77EF459
:101EA0001F16BA0B620B730B840BBAF09150A1F0A2
:101EB000FF0FBB1F661F771F881FC2F70EC0BA0F28
:101EC000621F731F841F48F4879577956795B795B0
:101ED000F7959E3F08F0B0CF9395880F08F09927AB
:101EE000EE0F9795879508950E94880F0C94960E93
:101EF0000E948F0E58F00E94880E40F029F45F3F38
:101F000029F00C947F0E51110C94CA0E0C94850E7E
:101F10000E94A70E68F39923B1F3552391F3951B03
:101F2000550BBB27AA2762177307840738F09F5FFA
:101F30005F4F220F331F441FAA1FA9F335D00E2E67
:101F40003AF0E0E832D091505040E695001CCAF7D4
:101F50002BD0FE2F29D0660F771F881FBB1F261797
:101F600037074807AB07B0E809F0BB0B802DBF016E
:101F7000FF2793585F4F3AF09E3F510578F00C943D
:101F80007F0E0C94CA0E5F3FE4F3983ED4F386951F
:101F900077956795B795F7959F5FC9F7880F911D5E
:101FA0009695879597F90895E1E0660F771F881F4A
:101FB000BB1F621773078407BA0720F0621B730BFD
:101FC000840BBA0BEE1F88F7E09508950E94ED0F81
:101FD0006894B1110C94CA0E08950E94AF0E88F057
:101FE0009F5798F0B92F9927B751B0F0E1F0660FDD
:101FF000771F881F991F1AF0BA95C9F714C0B1301E
:1020000091F00E94C90EB1E008950C94C90E672F9B
:10201000782F8827B85F39F0B93FCCF3869577954C
:102020006795B395D9F73EF4909580957095619535
:102030007F4F8F4F9F4F08950E94EB0D08F48FEF55
:1020400008950E94EB0D880B990B0895AA1BBB1BEA
:1020500051E107C0AA1FBB1FA617B70710F0A61BA8
:10206000B70B881F991F5A95A9F780959095BC01C9
:10207000CD010895A1E21A2EAA1BBB1BFD010DC0C4
:10208000AA1FBB1FEE1FFF1FA217B307E407F50728
:1020900020F0A21BB30BE40BF50B661F771F881F04
:1020A000991F1A9469F760957095809590959B019A
:1020B000AC01BD01CF010895EE0FFF1F0590F49113
:1020C000E02D09940F931F93CF93DF9382309105F6
:1020D00010F482E090E0E091B302F091B40230E0BD
:1020E00020E0B0E0A0E0309799F42115310509F423
:1020F0004AC0281B390B24303105D8F58A819B81D1
:102100006115710589F1FB0193838283FE0111C082
:10211000408151810281138148175907E0F0481727
:10212000590799F4109761F012960C931297139631
:102130001C933296CF01DF91CF911F910F9108959B
:102140000093B3021093B402F4CF2115310551F07E
:102150004217530738F0A901DB019A01BD01DF01E5
:10216000F801C1CFEF01F9CF9093B4028093B3028D
:10217000CDCFFE01E20FF31F8193919322503109DD
:1021800039832883D7CF2091B1023091B202232B1B
:1021900041F420910601309107013093B20220935F
:1021A000B10220910401309105012115310541F45E
:1021B0002DB73EB74091080150910901241B350B02
:1021C000E091B102F091B202E217F307A0F42E1BE6
:1021D0003F0B2817390778F0AC014E5F5F4F24178B
:1021E000350748F04E0F5F1F5093B2024093B10283
:1021F000819391939FCFF0E0E0E09CCFCF93DF936A
:102200000097E9F0FC01329713821282A091B30289
:10221000B091B402ED0130E020E01097A1F42081EC
:102220003181820F931F2091B1023091B2022817A1
:10223000390709F061C0F093B202E093B102DF9177
:10224000CF910895EA01CE17DF07E8F54A815B8157
:102250009E0141155105B1F7E901FB83EA834991DC
:102260005991C40FD51FEC17FD0761F4808191814E
:102270000296840F951FE901998388838281938157
:102280009B838A83F0E0E0E012968D919C911397F6
:102290000097B9F52D913C911197CD010296820FCF
:1022A000931F2091B1023091B2022817390739F6F5
:1022B000309751F51092B4021092B302B093B2026B
:1022C000A093B102BCCFD383C28340815181840FDC
:1022D000951FC817D90761F44E5F5F4F88819981B8
:1022E000480F591F518340838A819B819383828346
:1022F0002115310509F0B0CFF093B402E093B30299
:102300009ECFFD01DC01C0CF13821282D7CFB0E097
:10231000A0E0EDE8F1E10C94D20E8C01009751F4AD
:10232000CB010E9462108C01C801CDB7DEB7E0E19D
:102330000C94EE0EFC01E60FF71F9C0122503109B0
:10234000E217F30708F49DC0D901CD91DC911197F4
:10235000C617D70798F0C530D10530F3CE010497E2
:102360008617970708F3C61BD70B2297C193D19303
:102370006D937C93CF010E94FE10D6CF5B01AC1A07
:10238000BD0A4C018C0E9D1EA091B302B091B40207
:10239000512C412CF12CE12C109731F58091B10298
:1023A0009091B2028815990509F05CC0461657064F
:1023B00008F058C08091040190910501009741F404
:1023C0008DB79EB74091080150910901841B950B70
:1023D000E817F90708F055C0F093B202E093B10294
:1023E000F90171836083A0CF8D919C911197129612
:1023F0006C90129713967C901397A815B90559F510
:102400006C0142E0C40ED11CCA14DB0420F1AC0103
:102410004A195B09DA011296159780F0628273827D
:1024200051834083D9016D937C93E114F10471F0E1
:10243000D7011396FC93EE93129776CF22968C0FCA
:102440009D1FF90191838083F301EFCFF093B402D4
:10245000E093B30269CF4816590608F42C017D01B8
:10246000D3019ACFCB010E9462107C01009749F002
:10247000AE01B8010E944412C8010E94FE108701FB
:1024800053CF10E000E050CFFB01DC0102C001900F
:102490000D9241505040D8F70895FB01DC018D9119
:1024A000019080190110D9F3990B0895FB01DC010B
:1024B00001900D920020E1F70895FB01DC014150ED
:1024C000504030F08D910190801919F40020B9F737
:1024D000881B990B089510E0C2E6D0E004C0FE010D
:1024E0000E945C102196C336D107C9F7F894FFCF3C
:1024F000010101010000B50280000600070008008C
:1025000009000E000F0010001100000000003E0343
:102510005E028B028B03FC029A02EE0200000000B6
:10252000C4035E025704C30320043604AB034449CA
:102530004F3A00494E004F555400445752495445B4
:102540003A0052533438353A000D0A00413A006ED1
:10255000616E00696E66006F7666002C007C443AFE
:10256000007C6D6F64653A007C414444523A00003F
:00000001FF
